{"abi":[{"type":"constructor","inputs":[{"name":"_memeToken","type":"address","internalType":"address"},{"name":"_lpToken","type":"address","internalType":"address"}],"stateMutability":"nonpayable"},{"type":"receive","stateMutability":"payable"},{"type":"function","name":"FEE_PRECISION","inputs":[],"outputs":[{"name":"","type":"uint256","internalType":"uint256"}],"stateMutability":"view"},{"type":"function","name":"MIN_LIQUIDITY","inputs":[],"outputs":[{"name":"","type":"uint256","internalType":"uint256"}],"stateMutability":"view"},{"type":"function","name":"PRECISION","inputs":[],"outputs":[{"name":"","type":"uint256","internalType":"uint256"}],"stateMutability":"view"},{"type":"function","name":"activate","inputs":[{"name":"bnbAmount","type":"uint256","internalType":"uint256"},{"name":"memeAmount","type":"uint256","internalType":"uint256"}],"outputs":[],"stateMutability":"payable"},{"type":"function","name":"addLiquidity","inputs":[],"outputs":[{"name":"lpTokens","type":"uint256","internalType":"uint256"}],"stateMutability":"payable"},{"type":"function","name":"bnbReserve","inputs":[],"outputs":[{"name":"","type":"uint256","internalType":"uint256"}],"stateMutability":"view"},{"type":"function","name":"getAmountOut","inputs":[{"name":"isBuy","type":"bool","internalType":"bool"},{"name":"amountIn","type":"uint256","internalType":"uint256"}],"outputs":[{"name":"","type":"uint256","internalType":"uint256"}],"stateMutability":"view"},{"type":"function","name":"getMemeAmountForLiquidity","inputs":[{"name":"bnbAmount","type":"uint256","internalType":"uint256"}],"outputs":[{"name":"","type":"uint256","internalType":"uint256"}],"stateMutability":"view"},{"type":"function","name":"getPriceImpact","inputs":[{"name":"isBuy","type":"bool","internalType":"bool"},{"name":"amountIn","type":"uint256","internalType":"uint256"}],"outputs":[{"name":"","type":"uint256","internalType":"uint256"}],"stateMutability":"view"},{"type":"function","name":"getReserves","inputs":[],"outputs":[{"name":"bnb","type":"uint256","internalType":"uint256"},{"name":"meme","type":"uint256","internalType":"uint256"}],"stateMutability":"view"},{"type":"function","name":"getSpotPrice","inputs":[],"outputs":[{"name":"","type":"uint256","internalType":"uint256"}],"stateMutability":"view"},{"type":"function","name":"isActive","inputs":[],"outputs":[{"name":"","type":"bool","internalType":"bool"}],"stateMutability":"view"},{"type":"function","name":"lpToken","inputs":[],"outputs":[{"name":"","type":"address","internalType":"contract ILPToken"}],"stateMutability":"view"},{"type":"function","name":"memeReserve","inputs":[],"outputs":[{"name":"","type":"uint256","internalType":"uint256"}],"stateMutability":"view"},{"type":"function","name":"memeToken","inputs":[],"outputs":[{"name":"","type":"address","internalType":"contract IERC20"}],"stateMutability":"view"},{"type":"function","name":"owner","inputs":[],"outputs":[{"name":"","type":"address","internalType":"address"}],"stateMutability":"view"},{"type":"function","name":"priceFeed","inputs":[],"outputs":[{"name":"","type":"address","internalType":"contract IPriceFeed"}],"stateMutability":"view"},{"type":"function","name":"removeLiquidity","inputs":[{"name":"lpTokenAmount","type":"uint256","internalType":"uint256"}],"outputs":[{"name":"bnbOut","type":"uint256","internalType":"uint256"},{"name":"memeOut","type":"uint256","internalType":"uint256"}],"stateMutability":"nonpayable"},{"type":"function","name":"renounceOwnership","inputs":[],"outputs":[],"stateMutability":"nonpayable"},{"type":"function","name":"setPriceFeed","inputs":[{"name":"_priceFeed","type":"address","internalType":"address"}],"outputs":[],"stateMutability":"nonpayable"},{"type":"function","name":"setSwapFee","inputs":[{"name":"_fee","type":"uint256","internalType":"uint256"}],"outputs":[],"stateMutability":"nonpayable"},{"type":"function","name":"swapBNBForMeme","inputs":[{"name":"minAmountOut","type":"uint256","internalType":"uint256"}],"outputs":[{"name":"memeOut","type":"uint256","internalType":"uint256"}],"stateMutability":"payable"},{"type":"function","name":"swapFee","inputs":[],"outputs":[{"name":"","type":"uint256","internalType":"uint256"}],"stateMutability":"view"},{"type":"function","name":"swapMemeForBNB","inputs":[{"name":"memeAmount","type":"uint256","internalType":"uint256"},{"name":"minAmountOut","type":"uint256","internalType":"uint256"}],"outputs":[{"name":"bnbOut","type":"uint256","internalType":"uint256"}],"stateMutability":"nonpayable"},{"type":"function","name":"transferOwnership","inputs":[{"name":"newOwner","type":"address","internalType":"address"}],"outputs":[],"stateMutability":"nonpayable"},{"type":"event","name":"Activated","inputs":[],"anonymous":false},{"type":"event","name":"FeeUpdated","inputs":[{"name":"oldFee","type":"uint256","indexed":false,"internalType":"uint256"},{"name":"newFee","type":"uint256","indexed":false,"internalType":"uint256"}],"anonymous":false},{"type":"event","name":"LiquidityAdded","inputs":[{"name":"user","type":"address","indexed":true,"internalType":"address"},{"name":"bnbAmount","type":"uint256","indexed":false,"internalType":"uint256"},{"name":"memeAmount","type":"uint256","indexed":false,"internalType":"uint256"},{"name":"lpTokens","type":"uint256","indexed":false,"internalType":"uint256"}],"anonymous":false},{"type":"event","name":"LiquidityRemoved","inputs":[{"name":"user","type":"address","indexed":true,"internalType":"address"},{"name":"bnbAmount","type":"uint256","indexed":false,"internalType":"uint256"},{"name":"memeAmount","type":"uint256","indexed":false,"internalType":"uint256"},{"name":"lpTokens","type":"uint256","indexed":false,"internalType":"uint256"}],"anonymous":false},{"type":"event","name":"OwnershipTransferred","inputs":[{"name":"previousOwner","type":"address","indexed":true,"internalType":"address"},{"name":"newOwner","type":"address","indexed":true,"internalType":"address"}],"anonymous":false},{"type":"event","name":"Swap","inputs":[{"name":"user","type":"address","indexed":true,"internalType":"address"},{"name":"isBuy","type":"bool","indexed":false,"internalType":"bool"},{"name":"amountIn","type":"uint256","indexed":false,"internalType":"uint256"},{"name":"amountOut","type":"uint256","indexed":false,"internalType":"uint256"},{"name":"fee","type":"uint256","indexed":false,"internalType":"uint256"}],"anonymous":false},{"type":"error","name":"ExcessivePriceImpact","inputs":[]},{"type":"error","name":"InsufficientLiquidity","inputs":[]},{"type":"error","name":"InsufficientOutputAmount","inputs":[]},{"type":"error","name":"InvalidAmount","inputs":[]},{"type":"error","name":"NotActive","inputs":[]},{"type":"error","name":"OwnableInvalidOwner","inputs":[{"name":"owner","type":"address","internalType":"address"}]},{"type":"error","name":"OwnableUnauthorizedAccount","inputs":[{"name":"account","type":"address","internalType":"address"}]},{"type":"error","name":"ReentrancyGuardReentrantCall","inputs":[]},{"type":"error","name":"SafeERC20FailedOperation","inputs":[{"name":"token","type":"address","internalType":"address"}]},{"type":"error","name":"TransferFailed","inputs":[]},{"type":"error","name":"ZeroAddress","inputs":[]}],"bytecode":{"object":"0x6080604052601e60065534801562000015575f80fd5b506040516200187338038062001873833981016040819052620000389162000168565b33806200005e57604051631e4fbdf760e01b81525f600482015260240160405180910390fd5b6200006981620000fd565b5060017f9b779b17422d0df92223018b32b4d1fa46e071723d6817e2486d003becc55f00556001600160a01b0382161580620000ac57506001600160a01b038116155b15620000cb5760405163d92e233d60e01b815260040160405180910390fd5b600180546001600160a01b039384166001600160a01b031991821617909155600280549290931691161790556200019e565b5f80546001600160a01b038381166001600160a01b0319831681178455604051919092169283917f8be0079c531659141344cd1fd0a4f28419497f9722a3daafe3b4186f6b6457e09190a35050565b80516001600160a01b038116811462000163575f80fd5b919050565b5f80604083850312156200017a575f80fd5b62000185836200014c565b915062000195602084016200014c565b90509250929050565b6116c780620001ac5f395ff3fe608060405260043610610128575f3560e01c806304e7b5b8146101335780630902f1ac1461016557806321b77d631461018d57806322f3e2d4146101a257806334e19907146101cb57806351b4ed7c146101ec57806354cf2aeb146102015780635b7e4afc146102165780635fcbd28514610235578063715018a614610261578063724e78da14610275578063741bef1a146102945780638290d9b8146102b35780638da5cb5b146102d25780638ea8f83c146102e6578063972598e7146102f95780639c8f9f2314610318578063aaf5eb6814610337578063b472356014610352578063d5cb45c714610371578063dc76fabc14610384578063e63a391f14610398578063e8078d94146103ad578063f2fde38b146103b5578063fe4bb69a146103d4575f80fd5b3661012f57005b5f80fd5b34801561013e575f80fd5b5061015261014d3660046114d8565b6103e9565b6040519081526020015b60405180910390f35b348015610170575f80fd5b506004546005545b6040805192835260208301919091520161015c565b348015610198575f80fd5b506101526103e881565b3480156101ad575f80fd5b506007546101bb9060ff1681565b604051901515815260200161015c565b3480156101d6575f80fd5b506101ea6101e5366004611506565b61052f565b005b3480156101f7575f80fd5b5061015260045481565b34801561020c575f80fd5b5061015260065481565b348015610221575f80fd5b50610152610230366004611506565b6105bd565b348015610240575f80fd5b50600254610254906001600160a01b031681565b60405161015c919061151d565b34801561026c575f80fd5b506101ea6105e8565b348015610280575f80fd5b506101ea61028f366004611531565b6105fb565b34801561029f575f80fd5b50600354610254906001600160a01b031681565b3480156102be575f80fd5b506101526102cd3660046114d8565b61064c565b3480156102dd575f80fd5b506102546106d5565b6101ea6102f436600461155e565b6106e3565b348015610304575f80fd5b50600154610254906001600160a01b031681565b348015610323575f80fd5b50610178610332366004611506565b610932565b348015610342575f80fd5b50610152670de0b6b3a764000081565b34801561035d575f80fd5b5061015261036c36600461155e565b610b86565b61015261037f366004611506565b610de6565b34801561038f575f80fd5b50610152610fe6565b3480156103a3575f80fd5b5061015261271081565b61015261101d565b3480156103c0575f80fd5b506101ea6103cf366004611531565b6111f6565b3480156103df575f80fd5b5061015260055481565b5f815f036103f857505f610529565b5f610401610fe6565b90505f6127106006546127106104179190611592565b61042190866115a5565b61042b91906115bc565b90505f80861561047f578560045461044391906115db565b91508260045461045391906115db565b8360055461046191906115a5565b61046b91906115bc565b6005546104789190611592565b90506104c5565b8560055461048d91906115db565b90508260055461049d91906115db565b836004546104ab91906115a5565b6104b591906115bc565b6004546104c29190611592565b91505b5f816104d9670de0b6b3a7640000856115a5565b6104e391906115bc565b90508481111561051b57846127106104fb8284611592565b61050591906115a5565b61050f91906115bc565b95505050505050610529565b846127106104fb8383611592565b92915050565b610537611233565b606481111561057c5760405162461bcd60e51b815260206004820152600c60248201526b08ccaca40e8dede40d0d2ced60a31b60448201526064015b60405180910390fd5b60065460408051918252602082018390527f528d9479e9f9889a87a3c30c7f7ba537e5e59c4c85a37733b16e57c62df61302910160405180910390a1600655565b5f6004545f036105ce57505f919050565b6004546005546105de90846115a5565b61052991906115bc565b6105f0611233565b6105f95f611265565b565b610603611233565b6001600160a01b03811661062a5760405163d92e233d60e01b815260040160405180910390fd5b600380546001600160a01b0319166001600160a01b0392909216919091179055565b5f815f0361065b57505f610529565b5f61271060065461271061066f9190611592565b61067990856115a5565b61068391906115bc565b905083156106b9578060045461069991906115db565b816005546106a791906115a5565b6106b191906115bc565b915050610529565b806005546106c791906115db565b816004546106a791906115a5565b5f546001600160a01b031690565b6106eb611233565b60075460ff161561072f5760405162461bcd60e51b815260206004820152600e60248201526d416c72656164792061637469766560901b6044820152606401610573565b8134146107745760405162461bcd60e51b81526020600482015260136024820152720849c8440c2dadeeadce840dad2e6dac2e8c6d606b1b6044820152606401610573565b5f81116107b95760405162461bcd60e51b8152602060048201526013602482015272125b9d985b1a59081351535148185b5bdd5b9d606a1b6044820152606401610573565b6001546107d1906001600160a01b03163330846112b4565b600482905560058190556007805460ff191660011790555f6107fb6107f683856115a5565b6112e7565b6002546040516340c10f1960e01b81529192506001600160a01b0316906340c10f199061082e90339085906004016115ee565b5f604051808303815f87803b158015610845575f80fd5b505af1158015610857573d5f803e3d5ffd5b50506003546001600160a01b03161591506108d39050576003546001600160a01b0316638d6cc56d610887610fe6565b6040518263ffffffff1660e01b81526004016108a591815260200190565b5f604051808303815f87803b1580156108bc575f80fd5b505af11580156108ce573d5f803e3d5ffd5b505050505b6040517fed1cd0670ee0c0017f550451a038818c696d0b6a9d6ce5b369e44275573cf9b0905f90a1336001600160a01b03165f8051602061167283398151915284848460405161092593929190611607565b60405180910390a2505050565b5f8061093c611354565b825f0361095c5760405163162908e360e11b815260040160405180910390fd5b600254604080516318160ddd60e01b815290515f926001600160a01b0316916318160ddd9160048083019260209291908290030181865afa1580156109a3573d5f803e3d5ffd5b505050506040513d601f19601f820116820180604052508101906109c7919061161d565b905080600454856109d891906115a5565b6109e291906115bc565b925080600554856109f391906115a5565b6109fd91906115bc565b9150821580610a0a575081155b15610a285760405163bb55fd2760e01b815260040160405180910390fd5b600254604051632770a7eb60e21b81526001600160a01b0390911690639dc29fac90610a5a90339088906004016115ee565b5f604051808303815f87803b158015610a71575f80fd5b505af1158015610a83573d5f803e3d5ffd5b505050508260045f828254610a989190611592565b925050819055508160055f828254610ab09190611592565b90915550506040515f90339085908381818185875af1925050503d805f8114610af4576040519150601f19603f3d011682016040523d82523d5f602084013e610af9565b606091505b5050905080610b1b576040516312171d8360e31b815260040160405180910390fd5b600154610b32906001600160a01b0316338561136c565b336001600160a01b03167f1dc8bb69df2b8e91fbdcbfcf93d951b3f0000f085a95fe3f7946d6161439245d858588604051610b6f93929190611607565b60405180910390a25050610b8161139d565b915091565b5f610b8f611354565b60075460ff16610bb257604051634065aaf160e11b815260040160405180910390fd5b825f03610bd25760405163162908e360e11b815260040160405180910390fd5b5f612710600654612710610be69190611592565b610bf090866115a5565b610bfa91906115bc565b905080600554610c0a91906115db565b81600454610c1891906115a5565b610c2291906115bc565b915082821015610c45576040516342301c2360e01b815260040160405180910390fd5b6004548210610c675760405163bb55fd2760e01b815260040160405180910390fd5b600154610c7f906001600160a01b03163330876112b4565b8360055f828254610c9091906115db565b925050819055508160045f828254610ca89190611592565b90915550506040515f90339084908381818185875af1925050503d805f8114610cec576040519150601f19603f3d011682016040523d82523d5f602084013e610cf1565b606091505b5050905080610d13576040516312171d8360e31b815260040160405180910390fd5b6003546001600160a01b031615610d89576003546001600160a01b0316638d6cc56d610d3d610fe6565b6040518263ffffffff1660e01b8152600401610d5b91815260200190565b5f604051808303815f87803b158015610d72575f80fd5b505af1158015610d84573d5f803e3d5ffd5b505050505b5f61271060065487610d9b91906115a5565b610da591906115bc565b9050336001600160a01b03165f805160206116528339815191525f888785604051610dd39493929190611634565b60405180910390a250505061052961139d565b5f610def611354565b60075460ff16610e1257604051634065aaf160e11b815260040160405180910390fd5b345f03610e325760405163162908e360e11b815260040160405180910390fd5b60065434905f9061271090610e479082611592565b610e5190846115a5565b610e5b91906115bc565b905080600454610e6b91906115db565b81600554610e7991906115a5565b610e8391906115bc565b925083831015610ea6576040516342301c2360e01b815260040160405180910390fd5b6005548310610ec85760405163bb55fd2760e01b815260040160405180910390fd5b8160045f828254610ed991906115db565b925050819055508260055f828254610ef19190611592565b9091555050600154610f0d906001600160a01b0316338561136c565b6003546001600160a01b031615610f83576003546001600160a01b0316638d6cc56d610f37610fe6565b6040518263ffffffff1660e01b8152600401610f5591815260200190565b5f604051808303815f87803b158015610f6c575f80fd5b505af1158015610f7e573d5f803e3d5ffd5b505050505b5f61271060065484610f9591906115a5565b610f9f91906115bc565b9050336001600160a01b03165f805160206116528339815191526001858785604051610fce9493929190611634565b60405180910390a2505050610fe161139d565b919050565b5f6005545f03610ff557505f90565b600554670de0b6b3a764000060045461100e91906115a5565b61101891906115bc565b905090565b5f611026611354565b60075460ff1661104957604051634065aaf160e11b815260040160405180910390fd5b345f036110695760405163162908e360e11b815260040160405180910390fd5b60045460055434915f9161107d90846115a5565b61108791906115bc565b6001549091506110a2906001600160a01b03163330846112b4565b600254604080516318160ddd60e01b815290515f926001600160a01b0316916318160ddd9160048083019260209291908290030181865afa1580156110e9573d5f803e3d5ffd5b505050506040513d601f19601f8201168201806040525081019061110d919061161d565b60045490915061111d82856115a5565b61112791906115bc565b93508260045f82825461113a91906115db565b925050819055508160055f82825461115291906115db565b90915550506002546040516340c10f1960e01b81526001600160a01b03909116906340c10f199061118990339088906004016115ee565b5f604051808303815f87803b1580156111a0575f80fd5b505af11580156111b2573d5f803e3d5ffd5b50505050336001600160a01b03165f805160206116728339815191528484876040516111e093929190611607565b60405180910390a25050506111f361139d565b90565b6111fe611233565b6001600160a01b038116611227575f604051631e4fbdf760e01b8152600401610573919061151d565b61123081611265565b50565b3361123c6106d5565b6001600160a01b0316146105f9573360405163118cdaa760e01b8152600401610573919061151d565b5f80546001600160a01b038381166001600160a01b0319831681178455604051919092169283917f8be0079c531659141344cd1fd0a4f28419497f9722a3daafe3b4186f6b6457e09190a35050565b6112c28484848460016113aa565b6112e15783604051635274afe760e01b8152600401610573919061151d565b50505050565b5f60038211156113465750805f6112ff6002836115bc565b61130a9060016115db565b90505b818110156113405790508060028161132581866115bc565b61132f91906115db565b61133991906115bc565b905061130d565b50919050565b8115610fe157506001919050565b61135c611417565b60026113696111f361143d565b55565b6113798383836001611461565b6113985782604051635274afe760e01b8152600401610573919061151d565b505050565b60016113696111f361143d565b6040516323b872dd60e01b5f8181526001600160a01b038781166004528616602452604485905291602083606481808c5af1925060015f511483166114065783831516156113fa573d5f823e3d81fd5b5f883b113d1516831692505b604052505f60605295945050505050565b61141f6114c3565b156105f957604051633ee5aeb560e01b815260040160405180910390fd5b7f9b779b17422d0df92223018b32b4d1fa46e071723d6817e2486d003becc55f0090565b60405163a9059cbb60e01b5f8181526001600160a01b038616600452602485905291602083604481808b5af1925060015f511483166114b75783831516156114ab573d5f823e3d81fd5b5f873b113d1516831692505b60405250949350505050565b5f60026114d16111f361143d565b5414919050565b5f80604083850312156114e9575f80fd5b823580151581146114f8575f80fd5b946020939093013593505050565b5f60208284031215611516575f80fd5b5035919050565b6001600160a01b0391909116815260200190565b5f60208284031215611541575f80fd5b81356001600160a01b0381168114611557575f80fd5b9392505050565b5f806040838503121561156f575f80fd5b50508035926020909101359150565b634e487b7160e01b5f52601160045260245ffd5b818103818111156105295761052961157e565b80820281158282048414176105295761052961157e565b5f826115d657634e487b7160e01b5f52601260045260245ffd5b500490565b808201808211156105295761052961157e565b6001600160a01b03929092168252602082015260400190565b9283526020830191909152604082015260600190565b5f6020828403121561162d575f80fd5b5051919050565b93151584526020840192909252604083015260608201526080019056fe176648f1f11cda284c124490086be42a926ddf0ae887ebe7b1d6b337d894275664b83944e79c3ce8d4c297411de637c3e102d064677aac0c163976ebdcd6f50ea264697066735822122013b29ad462d321392bc86ca4020e57ea95db48ca5dcb1d4b060c2ffd9f9d024964736f6c63430008180033","linkReferences":{}},"methodIdentifiers":{"FEE_PRECISION()":"e63a391f","MIN_LIQUIDITY()":"21b77d63","PRECISION()":"aaf5eb68","activate(uint256,uint256)":"8ea8f83c","addLiquidity()":"e8078d94","bnbReserve()":"51b4ed7c","getAmountOut(bool,uint256)":"8290d9b8","getMemeAmountForLiquidity(uint256)":"5b7e4afc","getPriceImpact(bool,uint256)":"04e7b5b8","getReserves()":"0902f1ac","getSpotPrice()":"dc76fabc","isActive()":"22f3e2d4","lpToken()":"5fcbd285","memeReserve()":"fe4bb69a","memeToken()":"972598e7","owner()":"8da5cb5b","priceFeed()":"741bef1a","removeLiquidity(uint256)":"9c8f9f23","renounceOwnership()":"715018a6","setPriceFeed(address)":"724e78da","setSwapFee(uint256)":"34e19907","swapBNBForMeme(uint256)":"d5cb45c7","swapFee()":"54cf2aeb","swapMemeForBNB(uint256,uint256)":"b4723560","transferOwnership(address)":"f2fde38b"},"id":96}