{"abi":[{"type":"constructor","inputs":[{"name":"_positionManager","type":"address","internalType":"address"},{"name":"_vault","type":"address","internalType":"address"},{"name":"_priceFeed","type":"address","internalType":"address"}],"stateMutability":"nonpayable"},{"type":"receive","stateMutability":"payable"},{"type":"function","name":"BPS_PRECISION","inputs":[],"outputs":[{"name":"","type":"uint256","internalType":"uint256"}],"stateMutability":"view"},{"type":"function","name":"FUNDING_INTERVAL","inputs":[],"outputs":[{"name":"","type":"uint256","internalType":"uint256"}],"stateMutability":"view"},{"type":"function","name":"FUNDING_RATE_BPS","inputs":[],"outputs":[{"name":"","type":"uint256","internalType":"uint256"}],"stateMutability":"view"},{"type":"function","name":"INSURANCE_CAP_RATIO","inputs":[],"outputs":[{"name":"","type":"uint256","internalType":"uint256"}],"stateMutability":"view"},{"type":"function","name":"OVERFLOW_TO_INSURANCE","inputs":[],"outputs":[{"name":"","type":"uint256","internalType":"uint256"}],"stateMutability":"view"},{"type":"function","name":"OVERFLOW_TO_PLATFORM","inputs":[],"outputs":[{"name":"","type":"uint256","internalType":"uint256"}],"stateMutability":"view"},{"type":"function","name":"PRECISION","inputs":[],"outputs":[{"name":"","type":"uint256","internalType":"uint256"}],"stateMutability":"view"},{"type":"function","name":"canCollectFunding","inputs":[],"outputs":[{"name":"","type":"bool","internalType":"bool"}],"stateMutability":"view"},{"type":"function","name":"collectFunding","inputs":[],"outputs":[],"stateMutability":"nonpayable"},{"type":"function","name":"coverDeficit","inputs":[{"name":"amount","type":"uint256","internalType":"uint256"}],"outputs":[{"name":"covered","type":"uint256","internalType":"uint256"}],"stateMutability":"nonpayable"},{"type":"function","name":"emergencyWithdrawInsurance","inputs":[{"name":"amount","type":"uint256","internalType":"uint256"},{"name":"recipient","type":"address","internalType":"address"}],"outputs":[],"stateMutability":"nonpayable"},{"type":"function","name":"getAnnualizedRate","inputs":[],"outputs":[{"name":"","type":"uint256","internalType":"uint256"}],"stateMutability":"pure"},{"type":"function","name":"getCurrentFundingRate","inputs":[],"outputs":[{"name":"","type":"uint256","internalType":"uint256"}],"stateMutability":"pure"},{"type":"function","name":"getEstimatedFundingRate","inputs":[],"outputs":[{"name":"","type":"int256","internalType":"int256"}],"stateMutability":"pure"},{"type":"function","name":"getInsuranceCap","inputs":[],"outputs":[{"name":"","type":"uint256","internalType":"uint256"}],"stateMutability":"view"},{"type":"function","name":"getInsuranceFundBalance","inputs":[],"outputs":[{"name":"","type":"uint256","internalType":"uint256"}],"stateMutability":"view"},{"type":"function","name":"getLastFundingTime","inputs":[],"outputs":[{"name":"","type":"uint256","internalType":"uint256"}],"stateMutability":"view"},{"type":"function","name":"getNextFundingTime","inputs":[],"outputs":[{"name":"","type":"uint256","internalType":"uint256"}],"stateMutability":"view"},{"type":"function","name":"getPendingFunding","inputs":[{"name":"","type":"address","internalType":"address"}],"outputs":[{"name":"","type":"int256","internalType":"int256"}],"stateMutability":"pure"},{"type":"function","name":"getRiskReserveBalance","inputs":[],"outputs":[{"name":"","type":"uint256","internalType":"uint256"}],"stateMutability":"view"},{"type":"function","name":"injectInsuranceFund","inputs":[],"outputs":[],"stateMutability":"payable"},{"type":"function","name":"insuranceFundBalance","inputs":[],"outputs":[{"name":"","type":"uint256","internalType":"uint256"}],"stateMutability":"view"},{"type":"function","name":"isInsuranceOverCap","inputs":[],"outputs":[{"name":"","type":"bool","internalType":"bool"}],"stateMutability":"view"},{"type":"function","name":"lastFundingTime","inputs":[],"outputs":[{"name":"","type":"uint256","internalType":"uint256"}],"stateMutability":"view"},{"type":"function","name":"owner","inputs":[],"outputs":[{"name":"","type":"address","internalType":"address"}],"stateMutability":"view"},{"type":"function","name":"positionManager","inputs":[],"outputs":[{"name":"","type":"address","internalType":"contract IPositionManager"}],"stateMutability":"view"},{"type":"function","name":"priceFeed","inputs":[],"outputs":[{"name":"","type":"address","internalType":"contract IPriceFeed"}],"stateMutability":"view"},{"type":"function","name":"renounceOwnership","inputs":[],"outputs":[],"stateMutability":"nonpayable"},{"type":"function","name":"riskReserveBalance","inputs":[],"outputs":[{"name":"","type":"uint256","internalType":"uint256"}],"stateMutability":"view"},{"type":"function","name":"setSuperAdmin","inputs":[{"name":"newAdmin","type":"address","internalType":"address"}],"outputs":[],"stateMutability":"nonpayable"},{"type":"function","name":"settleFunding","inputs":[],"outputs":[],"stateMutability":"nonpayable"},{"type":"function","name":"settleUserFunding","inputs":[{"name":"","type":"address","internalType":"address"}],"outputs":[{"name":"","type":"int256","internalType":"int256"}],"stateMutability":"pure"},{"type":"function","name":"superAdmin","inputs":[],"outputs":[{"name":"","type":"address","internalType":"address"}],"stateMutability":"view"},{"type":"function","name":"totalFundingCollected","inputs":[],"outputs":[{"name":"","type":"uint256","internalType":"uint256"}],"stateMutability":"view"},{"type":"function","name":"transferOwnership","inputs":[{"name":"newOwner","type":"address","internalType":"address"}],"outputs":[],"stateMutability":"nonpayable"},{"type":"function","name":"vault","inputs":[],"outputs":[{"name":"","type":"address","internalType":"contract IVault"}],"stateMutability":"view"},{"type":"function","name":"withdrawRiskReserve","inputs":[{"name":"recipient","type":"address","internalType":"address"}],"outputs":[],"stateMutability":"nonpayable"},{"type":"event","name":"FundingCollected","inputs":[{"name":"timestamp","type":"uint256","indexed":false,"internalType":"uint256"},{"name":"totalOI","type":"uint256","indexed":false,"internalType":"uint256"},{"name":"fundingAmount","type":"uint256","indexed":false,"internalType":"uint256"},{"name":"toInsurance","type":"uint256","indexed":false,"internalType":"uint256"},{"name":"toPlatform","type":"uint256","indexed":false,"internalType":"uint256"}],"anonymous":false},{"type":"event","name":"InsuranceFundInjected","inputs":[{"name":"from","type":"address","indexed":true,"internalType":"address"},{"name":"amount","type":"uint256","indexed":false,"internalType":"uint256"}],"anonymous":false},{"type":"event","name":"InsuranceFundWithdrawn","inputs":[{"name":"to","type":"address","indexed":true,"internalType":"address"},{"name":"amount","type":"uint256","indexed":false,"internalType":"uint256"}],"anonymous":false},{"type":"event","name":"OwnershipTransferred","inputs":[{"name":"previousOwner","type":"address","indexed":true,"internalType":"address"},{"name":"newOwner","type":"address","indexed":true,"internalType":"address"}],"anonymous":false},{"type":"event","name":"RiskReserveWithdrawn","inputs":[{"name":"to","type":"address","indexed":true,"internalType":"address"},{"name":"amount","type":"uint256","indexed":false,"internalType":"uint256"}],"anonymous":false},{"type":"event","name":"SuperAdminUpdated","inputs":[{"name":"oldAdmin","type":"address","indexed":true,"internalType":"address"},{"name":"newAdmin","type":"address","indexed":true,"internalType":"address"}],"anonymous":false},{"type":"error","name":"FailedCall","inputs":[]},{"type":"error","name":"InsufficientBalance","inputs":[{"name":"balance","type":"uint256","internalType":"uint256"},{"name":"needed","type":"uint256","internalType":"uint256"}]},{"type":"error","name":"InsufficientBalance","inputs":[]},{"type":"error","name":"OwnableInvalidOwner","inputs":[{"name":"owner","type":"address","internalType":"address"}]},{"type":"error","name":"OwnableUnauthorizedAccount","inputs":[{"name":"account","type":"address","internalType":"address"}]},{"type":"error","name":"TooEarlyToCollect","inputs":[]},{"type":"error","name":"Unauthorized","inputs":[]},{"type":"error","name":"ZeroAddress","inputs":[]},{"type":"error","name":"ZeroAmount","inputs":[]}],"bytecode":{"object":"0x608060405234801562000010575f80fd5b506040516200123838038062001238833981016040819052620000339162000174565b33806200005957604051631e4fbdf760e01b81525f600482015260240160405180910390fd5b620000648162000109565b506001600160a01b03831615806200008357506001600160a01b038216155b806200009657506001600160a01b038116155b15620000b55760405163d92e233d60e01b815260040160405180910390fd5b600180546001600160a01b039485166001600160a01b0319918216179091556002805493851693821693909317909255600380549190931690821617909155426004556007805490911633179055620001bb565b5f80546001600160a01b038381166001600160a01b0319831681178455604051919092169283917f8be0079c531659141344cd1fd0a4f28419497f9722a3daafe3b4186f6b6457e09190a35050565b80516001600160a01b03811681146200016f575f80fd5b919050565b5f805f6060848603121562000187575f80fd5b620001928462000158565b9250620001a26020850162000158565b9150620001b26040850162000158565b90509250925092565b61106f80620001c95f395ff3fe6080604052600436106101ac575f3560e01c806311f574eb146101ef5780631570005214610210578063243530d91461022f57806329575f6a14610256578063321d7fa9146102825780633b61b2e4146102975780633dbc645d146102ab5780634469fc9d146102c057806355efb287146102d3578063715018a6146102e8578063741bef1a146102fc578063776e4f241461031b578063791b98bc1461032f57806379a963691461034e5780637a894e69146103635780637bfbcc071461037857806383c6963e1461039c5780638da5cb5b146103b15780639c775629146103c5578063a6dc6bec146103d9578063aaf5eb68146103f8578063ab6e9af814610413578063abce334114610427578063b0fd06d0146102c0578063b626382d1461042f578063ccee675c146103d9578063cd54a4a514610443578063d4d31c7f14610458578063da65aad61461046c578063e3437a3c14610480578063e41de3131461049f578063e833d8ae146104b4578063ed83d79c146104d3578063ee851391146104e7578063f0663a9a146104fb578063f2fde38b14610510578063fbfa77cf1461052f575f80fd5b366101eb573460055f8282546101c29190610f15565b909155505060405134815233905f8051602061101a8339815191529060200160405180910390a2005b5f80fd5b3480156101fa575f80fd5b5061020e610209366004610f44565b61054e565b005b34801561021b575f80fd5b5061020e61022a366004610f6e565b61065a565b34801561023a575f80fd5b506102436106da565b6040519081526020015b60405180910390f35b348015610261575f80fd5b50600754610275906001600160a01b031681565b60405161024d9190610f8e565b34801561028d575f80fd5b5061024360045481565b3480156102a2575f80fd5b50610243600181565b3480156102b6575f80fd5b5061024360055481565b3480156102cb575f80fd5b506001610243565b3480156102de575f80fd5b5061024361012c81565b3480156102f3575f80fd5b5061020e6106f9565b348015610307575f80fd5b50600354610275906001600160a01b031681565b348015610326575f80fd5b5061024361070c565b34801561033a575f80fd5b50600154610275906001600160a01b031681565b348015610359575f80fd5b50610243610dac81565b34801561036e575f80fd5b5061024361196481565b348015610383575f80fd5b5061038c610829565b604051901515815260200161024d565b3480156103a7575f80fd5b506102436103e881565b3480156103bc575f80fd5b50610275610842565b3480156103d0575f80fd5b50600654610243565b3480156103e4575f80fd5b506102436103f3366004610f6e565b505f90565b348015610403575f80fd5b50610243670de0b6b3a764000081565b34801561041e575f80fd5b5061020e610850565b61020e610a99565b34801561043a575f80fd5b50610243610af3565b34801561044e575f80fd5b5061024360065481565b348015610463575f80fd5b50600454610243565b348015610477575f80fd5b50600554610243565b34801561048b575f80fd5b5061024361049a366004610fa2565b610b04565b3480156104aa575f80fd5b5061024361271081565b3480156104bf575f80fd5b5061020e6104ce366004610f6e565b610b93565b3480156104de575f80fd5b5061020e610c38565b3480156104f2575f80fd5b5061038c610c88565b348015610506575f80fd5b5061024360085481565b34801561051b575f80fd5b5061020e61052a366004610f6e565b610dac565b34801561053a575f80fd5b50600254610275906001600160a01b031681565b6007546001600160a01b03163314801590610582575061056c610842565b6001600160a01b0316336001600160a01b031614155b1561059f576040516282b42960e81b815260040160405180910390fd5b6001600160a01b0381166105c65760405163d92e233d60e01b815260040160405180910390fd5b6005548211156105e957604051631e9acf1760e31b815260040160405180910390fd5b8160055f8282546105fa9190610fb9565b9091555061061390506001600160a01b03821683610de9565b806001600160a01b03167ff921e3865f3b6c74a325ab75d54571c15d97e71f64b87607b421235a8f22c2ec8360405161064e91815260200190565b60405180910390a25050565b610662610e60565b6001600160a01b0381166106895760405163d92e233d60e01b815260040160405180910390fd5b600780546001600160a01b038381166001600160a01b0319831681179093556040519116919082907fd0f5553fb48dccd0de81c4705fa3feaf0b9a936a294741cfb724c33b8373f0c1905f90a35050565b5f6106e86001610120610fcc565b6106f49061016d610fcc565b905090565b610701610e60565b61070a5f610e92565b565b5f8060015f9054906101000a90046001600160a01b03166001600160a01b031663e74131276040518163ffffffff1660e01b8152600401602060405180830381865afa15801561075e573d5f803e3d5ffd5b505050506040513d601f19601f820116820180604052508101906107829190610fe3565b90505f60015f9054906101000a90046001600160a01b03166001600160a01b031663cb47a60b6040518163ffffffff1660e01b8152600401602060405180830381865afa1580156107d5573d5f803e3d5ffd5b505050506040513d601f19601f820116820180604052508101906107f99190610fe3565b90505f6108068284610f15565b90506127106108176103e883610fcc565b6108219190610ffa565b935050505090565b5f61012c60045461083a9190610f15565b421015905090565b5f546001600160a01b031690565b61012c6004546108609190610f15565b4210156108805760405163ea98eae160e01b815260040160405180910390fd5b6001546040805163e741312760e01b815290515f926001600160a01b03169163e74131279160048083019260209291908290030181865afa1580156108c7573d5f803e3d5ffd5b505050506040513d601f19601f820116820180604052508101906108eb9190610fe3565b90505f60015f9054906101000a90046001600160a01b03166001600160a01b031663cb47a60b6040518163ffffffff1660e01b8152600401602060405180830381865afa15801561093e573d5f803e3d5ffd5b505050506040513d601f19601f820116820180604052508101906109629190610fe3565b90505f61096f8284610f15565b9050805f036109815750504260045550565b5f612710610990600184610fcc565b61099a9190610ffa565b90505f6127106109ac6103e885610fcc565b6109b69190610ffa565b90505f808260055410156109ce57508290505f6109f6565b6127106109dd61196486610fcc565b6109e79190610ffa565b91506109f38285610fb9565b90505b8160055f828254610a079190610f15565b925050819055508060065f828254610a1f9190610f15565b925050819055508360085f828254610a379190610f15565b90915550504260048190556040805191825260208201879052810185905260608101839052608081018290527fad92770b1a15adfb4efaa4c21f89cdd5b45a4f40311af464e6eaa69610d895899060a00160405180910390a150505050505050565b345f03610ab957604051631f2a200560e01b815260040160405180910390fd5b3460055f828254610aca9190610f15565b909155505060405134815233905f8051602061101a8339815191529060200160405180910390a2565b5f61012c6004546106f49190610f15565b6002545f906001600160a01b03163314610b525760405162461bcd60e51b815260206004820152600a60248201526913db9b1e4815985d5b1d60b21b60448201526064015b60405180910390fd5b6005548211610b615781610b65565b6005545b90508015610b8e578060055f828254610b7e9190610fb9565b90915550610b8e90503382610de9565b919050565b610b9b610e60565b6001600160a01b038116610bc25760405163d92e233d60e01b815260040160405180910390fd5b6006545f819003610be657604051631f2a200560e01b815260040160405180910390fd5b5f600655610bfd6001600160a01b03831682610de9565b816001600160a01b03167f3bdf3230fab7f2c975da0b51dc74560a8dcc51068a43537dbd988add2150c42f8260405161064e91815260200190565b306001600160a01b031663ab6e9af86040518163ffffffff1660e01b81526004015f604051808303815f87803b158015610c70575f80fd5b505af1158015610c82573d5f803e3d5ffd5b50505050565b5f8060015f9054906101000a90046001600160a01b03166001600160a01b031663e74131276040518163ffffffff1660e01b8152600401602060405180830381865afa158015610cda573d5f803e3d5ffd5b505050506040513d601f19601f82011682018060405250810190610cfe9190610fe3565b90505f60015f9054906101000a90046001600160a01b03166001600160a01b031663cb47a60b6040518163ffffffff1660e01b8152600401602060405180830381865afa158015610d51573d5f803e3d5ffd5b505050506040513d601f19601f82011682018060405250810190610d759190610fe3565b90505f610d828284610f15565b90505f612710610d946103e884610fcc565b610d9e9190610ffa565b600554101595945050505050565b610db4610e60565b6001600160a01b038116610ddd575f604051631e4fbdf760e01b8152600401610b499190610f8e565b610de681610e92565b50565b80471015610e135760405163cf47918160e01b815247600482015260248101829052604401610b49565b610e2c828260405180602001604052805f815250610ee1565b15610e35575050565b3d15610e4757610e43610ef6565b5050565b60405163d6bda27560e01b815260040160405180910390fd5b33610e69610842565b6001600160a01b03161461070a573360405163118cdaa760e01b8152600401610b499190610f8e565b5f80546001600160a01b038381166001600160a01b0319831681178455604051919092169283917f8be0079c531659141344cd1fd0a4f28419497f9722a3daafe3b4186f6b6457e09190a35050565b5f805f83516020850186885af1949350505050565b6040513d5f823e3d81fd5b634e487b7160e01b5f52601160045260245ffd5b80820180821115610f2857610f28610f01565b92915050565b80356001600160a01b0381168114610b8e575f80fd5b5f8060408385031215610f55575f80fd5b82359150610f6560208401610f2e565b90509250929050565b5f60208284031215610f7e575f80fd5b610f8782610f2e565b9392505050565b6001600160a01b0391909116815260200190565b5f60208284031215610fb2575f80fd5b5035919050565b81810381811115610f2857610f28610f01565b8082028115828204841417610f2857610f28610f01565b5f60208284031215610ff3575f80fd5b5051919050565b5f8261101457634e487b7160e01b5f52601260045260245ffd5b50049056fe6ac84e41648f915cbd857269ef9939058bfb5ac44e5e5b9bd6c6952cfe0a89cca2646970667358221220cc43a4f108c5383ea29df6d338cd15c07f88566258706947a74d6e222ade2d1264736f6c63430008180033","linkReferences":{}},"methodIdentifiers":{"BPS_PRECISION()":"e41de313","FUNDING_INTERVAL()":"55efb287","FUNDING_RATE_BPS()":"3b61b2e4","INSURANCE_CAP_RATIO()":"83c6963e","OVERFLOW_TO_INSURANCE()":"7a894e69","OVERFLOW_TO_PLATFORM()":"79a96369","PRECISION()":"aaf5eb68","canCollectFunding()":"7bfbcc07","collectFunding()":"ab6e9af8","coverDeficit(uint256)":"e3437a3c","emergencyWithdrawInsurance(uint256,address)":"11f574eb","getAnnualizedRate()":"243530d9","getCurrentFundingRate()":"4469fc9d","getEstimatedFundingRate()":"b0fd06d0","getInsuranceCap()":"776e4f24","getInsuranceFundBalance()":"da65aad6","getLastFundingTime()":"d4d31c7f","getNextFundingTime()":"b626382d","getPendingFunding(address)":"ccee675c","getRiskReserveBalance()":"9c775629","injectInsuranceFund()":"abce3341","insuranceFundBalance()":"3dbc645d","isInsuranceOverCap()":"ee851391","lastFundingTime()":"321d7fa9","owner()":"8da5cb5b","positionManager()":"791b98bc","priceFeed()":"741bef1a","renounceOwnership()":"715018a6","riskReserveBalance()":"cd54a4a5","setSuperAdmin(address)":"15700052","settleFunding()":"ed83d79c","settleUserFunding(address)":"a6dc6bec","superAdmin()":"29575f6a","totalFundingCollected()":"f0663a9a","transferOwnership(address)":"f2fde38b","vault()":"fbfa77cf","withdrawRiskReserve(address)":"e833d8ae"},"id":90}