{"abi":[{"type":"constructor","inputs":[{"name":"_positionManager","type":"address","internalType":"address"},{"name":"_vault","type":"address","internalType":"address"},{"name":"_riskManager","type":"address","internalType":"address"},{"name":"_priceFeed","type":"address","internalType":"address"}],"stateMutability":"nonpayable"},{"type":"receive","stateMutability":"payable"},{"type":"function","name":"LIQUIDATOR_REWARD_RATE","inputs":[],"outputs":[{"name":"","type":"uint256","internalType":"uint256"}],"stateMutability":"view"},{"type":"function","name":"PRECISION","inputs":[],"outputs":[{"name":"","type":"uint256","internalType":"uint256"}],"stateMutability":"view"},{"type":"function","name":"addToADLQueue","inputs":[{"name":"user","type":"address","internalType":"address"}],"outputs":[],"stateMutability":"nonpayable"},{"type":"function","name":"adlQueue","inputs":[{"name":"","type":"uint256","internalType":"uint256"}],"outputs":[{"name":"","type":"address","internalType":"address"}],"stateMutability":"view"},{"type":"function","name":"canLiquidate","inputs":[{"name":"user","type":"address","internalType":"address"}],"outputs":[{"name":"","type":"bool","internalType":"bool"}],"stateMutability":"view"},{"type":"function","name":"canLiquidateToken","inputs":[{"name":"user","type":"address","internalType":"address"},{"name":"token","type":"address","internalType":"address"}],"outputs":[{"name":"","type":"bool","internalType":"bool"}],"stateMutability":"view"},{"type":"function","name":"coverDeficit","inputs":[{"name":"amount","type":"uint256","internalType":"uint256"}],"outputs":[],"stateMutability":"nonpayable"},{"type":"function","name":"depositInsuranceFund","inputs":[],"outputs":[],"stateMutability":"payable"},{"type":"function","name":"executeADL","inputs":[],"outputs":[],"stateMutability":"nonpayable"},{"type":"function","name":"executeADLWithSortedUsers","inputs":[{"name":"sortedUsers","type":"address[]","internalType":"address[]"},{"name":"targetSide","type":"bool","internalType":"bool"},{"name":"targetAmount","type":"uint256","internalType":"uint256"}],"outputs":[],"stateMutability":"nonpayable"},{"type":"function","name":"getADLQueueLength","inputs":[],"outputs":[{"name":"","type":"uint256","internalType":"uint256"}],"stateMutability":"view"},{"type":"function","name":"getADLQueueUsers","inputs":[{"name":"start","type":"uint256","internalType":"uint256"},{"name":"count","type":"uint256","internalType":"uint256"}],"outputs":[{"name":"users","type":"address[]","internalType":"address[]"}],"stateMutability":"view"},{"type":"function","name":"getInsuranceFund","inputs":[],"outputs":[{"name":"","type":"uint256","internalType":"uint256"}],"stateMutability":"view"},{"type":"function","name":"getLiquidatableTokenUsers","inputs":[{"name":"users","type":"address[]","internalType":"address[]"},{"name":"token","type":"address","internalType":"address"}],"outputs":[{"name":"liquidatable","type":"address[]","internalType":"address[]"}],"stateMutability":"view"},{"type":"function","name":"getLiquidatableUsers","inputs":[{"name":"users","type":"address[]","internalType":"address[]"}],"outputs":[{"name":"liquidatable","type":"address[]","internalType":"address[]"}],"stateMutability":"view"},{"type":"function","name":"getLiquidationReward","inputs":[{"name":"user","type":"address","internalType":"address"}],"outputs":[{"name":"reward","type":"uint256","internalType":"uint256"}],"stateMutability":"view"},{"type":"function","name":"getStats","inputs":[],"outputs":[{"name":"count","type":"uint256","internalType":"uint256"},{"name":"volume","type":"uint256","internalType":"uint256"}],"stateMutability":"view"},{"type":"function","name":"getUserPnL","inputs":[{"name":"user","type":"address","internalType":"address"}],"outputs":[{"name":"pnl","type":"int256","internalType":"int256"}],"stateMutability":"view"},{"type":"function","name":"getUserPnLToken","inputs":[{"name":"user","type":"address","internalType":"address"},{"name":"token","type":"address","internalType":"address"}],"outputs":[{"name":"pnl","type":"int256","internalType":"int256"}],"stateMutability":"view"},{"type":"function","name":"getUsersPnL","inputs":[{"name":"users","type":"address[]","internalType":"address[]"}],"outputs":[{"name":"pnls","type":"int256[]","internalType":"int256[]"}],"stateMutability":"view"},{"type":"function","name":"insuranceFund","inputs":[],"outputs":[{"name":"","type":"uint256","internalType":"uint256"}],"stateMutability":"view"},{"type":"function","name":"liquidate","inputs":[{"name":"user","type":"address","internalType":"address"}],"outputs":[],"stateMutability":"nonpayable"},{"type":"function","name":"liquidateBatch","inputs":[{"name":"users","type":"address[]","internalType":"address[]"}],"outputs":[],"stateMutability":"nonpayable"},{"type":"function","name":"liquidateBatchToken","inputs":[{"name":"users","type":"address[]","internalType":"address[]"},{"name":"token","type":"address","internalType":"address"}],"outputs":[],"stateMutability":"nonpayable"},{"type":"function","name":"liquidateSingle","inputs":[{"name":"user","type":"address","internalType":"address"},{"name":"liquidator","type":"address","internalType":"address"}],"outputs":[],"stateMutability":"nonpayable"},{"type":"function","name":"liquidateSingleToken","inputs":[{"name":"user","type":"address","internalType":"address"},{"name":"token","type":"address","internalType":"address"},{"name":"liquidator","type":"address","internalType":"address"}],"outputs":[],"stateMutability":"nonpayable"},{"type":"function","name":"liquidateToken","inputs":[{"name":"user","type":"address","internalType":"address"},{"name":"token","type":"address","internalType":"address"}],"outputs":[],"stateMutability":"nonpayable"},{"type":"function","name":"owner","inputs":[],"outputs":[{"name":"","type":"address","internalType":"address"}],"stateMutability":"view"},{"type":"function","name":"payProfit","inputs":[{"name":"user","type":"address","internalType":"address"},{"name":"amount","type":"uint256","internalType":"uint256"}],"outputs":[],"stateMutability":"nonpayable"},{"type":"function","name":"positionManager","inputs":[],"outputs":[{"name":"","type":"address","internalType":"contract IPositionManager"}],"stateMutability":"view"},{"type":"function","name":"priceFeed","inputs":[],"outputs":[{"name":"","type":"address","internalType":"contract IPriceFeed"}],"stateMutability":"view"},{"type":"function","name":"removeFromADLQueue","inputs":[{"name":"user","type":"address","internalType":"address"}],"outputs":[],"stateMutability":"nonpayable"},{"type":"function","name":"renounceOwnership","inputs":[],"outputs":[],"stateMutability":"nonpayable"},{"type":"function","name":"riskManager","inputs":[],"outputs":[{"name":"","type":"address","internalType":"contract IRiskManager"}],"stateMutability":"view"},{"type":"function","name":"totalLiquidationVolume","inputs":[],"outputs":[{"name":"","type":"uint256","internalType":"uint256"}],"stateMutability":"view"},{"type":"function","name":"totalLiquidations","inputs":[],"outputs":[{"name":"","type":"uint256","internalType":"uint256"}],"stateMutability":"view"},{"type":"function","name":"transferOwnership","inputs":[{"name":"newOwner","type":"address","internalType":"address"}],"outputs":[],"stateMutability":"nonpayable"},{"type":"function","name":"userADLIndex","inputs":[{"name":"","type":"address","internalType":"address"}],"outputs":[{"name":"","type":"uint256","internalType":"uint256"}],"stateMutability":"view"},{"type":"function","name":"vault","inputs":[],"outputs":[{"name":"","type":"address","internalType":"contract IVault"}],"stateMutability":"view"},{"type":"function","name":"withdrawInsuranceFund","inputs":[{"name":"amount","type":"uint256","internalType":"uint256"}],"outputs":[],"stateMutability":"nonpayable"},{"type":"event","name":"ADLExecuted","inputs":[{"name":"user","type":"address","indexed":true,"internalType":"address"},{"name":"reduceAmount","type":"uint256","indexed":false,"internalType":"uint256"},{"name":"reason","type":"string","indexed":false,"internalType":"string"}],"anonymous":false},{"type":"event","name":"DeficitCovered","inputs":[{"name":"amount","type":"uint256","indexed":false,"internalType":"uint256"}],"anonymous":false},{"type":"event","name":"InsuranceFundDeposit","inputs":[{"name":"amount","type":"uint256","indexed":false,"internalType":"uint256"}],"anonymous":false},{"type":"event","name":"InsuranceFundWithdraw","inputs":[{"name":"amount","type":"uint256","indexed":false,"internalType":"uint256"}],"anonymous":false},{"type":"event","name":"Liquidated","inputs":[{"name":"user","type":"address","indexed":true,"internalType":"address"},{"name":"liquidator","type":"address","indexed":true,"internalType":"address"},{"name":"size","type":"uint256","indexed":false,"internalType":"uint256"},{"name":"collateral","type":"uint256","indexed":false,"internalType":"uint256"},{"name":"liquidatorReward","type":"uint256","indexed":false,"internalType":"uint256"},{"name":"toInsuranceFund","type":"uint256","indexed":false,"internalType":"uint256"}],"anonymous":false},{"type":"event","name":"OwnershipTransferred","inputs":[{"name":"previousOwner","type":"address","indexed":true,"internalType":"address"},{"name":"newOwner","type":"address","indexed":true,"internalType":"address"}],"anonymous":false},{"type":"event","name":"ProfitPaid","inputs":[{"name":"user","type":"address","indexed":true,"internalType":"address"},{"name":"amount","type":"uint256","indexed":false,"internalType":"uint256"}],"anonymous":false},{"type":"event","name":"TokenLiquidated","inputs":[{"name":"user","type":"address","indexed":true,"internalType":"address"},{"name":"token","type":"address","indexed":true,"internalType":"address"},{"name":"liquidator","type":"address","indexed":true,"internalType":"address"},{"name":"size","type":"uint256","indexed":false,"internalType":"uint256"},{"name":"collateral","type":"uint256","indexed":false,"internalType":"uint256"},{"name":"liquidatorReward","type":"uint256","indexed":false,"internalType":"uint256"},{"name":"toInsuranceFund","type":"uint256","indexed":false,"internalType":"uint256"}],"anonymous":false},{"type":"event","name":"TradingPausedDueToInsufficient","inputs":[{"name":"deficit","type":"uint256","indexed":false,"internalType":"uint256"}],"anonymous":false},{"type":"error","name":"CannotLiquidate","inputs":[]},{"type":"error","name":"InsufficientInsuranceFund","inputs":[]},{"type":"error","name":"OwnableInvalidOwner","inputs":[{"name":"owner","type":"address","internalType":"address"}]},{"type":"error","name":"OwnableUnauthorizedAccount","inputs":[{"name":"account","type":"address","internalType":"address"}]},{"type":"error","name":"ReentrancyGuardReentrantCall","inputs":[]},{"type":"error","name":"TransferFailed","inputs":[]},{"type":"error","name":"Unauthorized","inputs":[]},{"type":"error","name":"ZeroAddress","inputs":[]}],"bytecode":{"object":"0x608060405234801562000010575f80fd5b5060405162004040380380620040408339810160408190526200003391620001ab565b33806200005957604051631e4fbdf760e01b81525f600482015260240160405180910390fd5b620000648162000140565b5060017f9b779b17422d0df92223018b32b4d1fa46e071723d6817e2486d003becc55f00556001600160a01b0384161580620000a757506001600160a01b038316155b80620000ba57506001600160a01b038216155b80620000cd57506001600160a01b038116155b15620000ec5760405163d92e233d60e01b815260040160405180910390fd5b600180546001600160a01b039586166001600160a01b031991821617909155600280549486169482169490941790935560038054928516928416929092179091556004805491909316911617905562000205565b5f80546001600160a01b038381166001600160a01b0319831681178455604051919092169283917f8be0079c531659141344cd1fd0a4f28419497f9722a3daafe3b4186f6b6457e09190a35050565b80516001600160a01b0381168114620001a6575f80fd5b919050565b5f805f8060808587031215620001bf575f80fd5b620001ca856200018f565b9350620001da602086016200018f565b9250620001ea604086016200018f565b9150620001fa606086016200018f565b905092959194509250565b613e2d80620002135f395ff3fe6080604052600436106101cd575f3560e01c8063091060801461020e57806312bdc3d11461022f578063158626f714610237578063278e16eb1461025a5780632f865568146102865780633803c690146102a55780633864b26f146102c457806342833f81146102f0578063478426631461030f57806351e3eff21461033b578063555c799d1461035a57806359877dd21461036e5780635a8dc5c6146103885780635e945830146103a7578063715018a6146103c6578063741bef1a146103da578063791b98bc146103f95780638c56444d146104185780638da5cb5b14610447578063923b29db1461045b578063954806d71461047a5780639625b3d21461048f578063965bb26e146104ae578063a0362286146104cd578063a06295d2146104ec578063aaf5eb6814610517578063b101807714610532578063b790230314610551578063b9f4ff5514610566578063bd694e7414610585578063c1924d191461059a578063c59d4847146105b9578063c63da352146105e0578063c72fb7f4146105f4578063d7b648da14610613578063e3437a3c14610632578063eae32f6614610651578063f2fde38b14610670578063f99030361461068f578063fbfa77cf146106ae575f80fd5b3661020a573460055f8282546101e39190613643565b90915550506040513481525f80516020613d188339815191529060200160405180910390a1005b5f80fd5b348015610219575f80fd5b5061022d61022836600461366a565b6106cd565b005b61022d610b12565b348015610242575f80fd5b506005545b6040519081526020015b60405180910390f35b348015610265575f80fd5b506102796102743660046136e8565b610b52565b604051610251919061373a565b348015610291575f80fd5b5061022d6102a0366004613786565b610d70565b3480156102b0575f80fd5b5061022d6102bf3660046136e8565b6111a2565b3480156102cf575f80fd5b506102e36102de3660046137a1565b6112f0565b60405161025191906137df565b3480156102fb575f80fd5b5061022d61030a366004613786565b6114b7565b34801561031a575f80fd5b5060035461032e906001600160a01b031681565b6040516102519190613816565b348015610346575f80fd5b5061027961035536600461382a565b6115fd565b348015610365575f80fd5b50600854610247565b348015610379575f80fd5b5061024766b1a2bc2ec5000081565b348015610393575f80fd5b506102476103a2366004613786565b6116f7565b3480156103b2575f80fd5b506102796103c13660046137a1565b611808565b3480156103d1575f80fd5b5061022d611a21565b3480156103e5575f80fd5b5060045461032e906001600160a01b031681565b348015610404575f80fd5b5060015461032e906001600160a01b031681565b348015610423575f80fd5b5061043761043236600461366a565b611a34565b6040519015158152602001610251565b348015610452575f80fd5b5061032e611aac565b348015610466575f80fd5b5061022d610475366004613786565b611aba565b348015610485575f80fd5b5061024760065481565b34801561049a575f80fd5b5061022d6104a936600461384a565b611b5d565b3480156104b9575f80fd5b5061022d6104c836600461366a565b611d0b565b3480156104d8575f80fd5b5061032e6104e7366004613874565b6120c1565b3480156104f7575f80fd5b50610247610506366004613786565b60096020525f908152604090205481565b348015610522575f80fd5b50610247670de0b6b3a764000081565b34801561053d575f80fd5b5061022d61054c36600461388b565b6120e9565b34801561055c575f80fd5b5061024760055481565b348015610571575f80fd5b50610437610580366004613786565b6124ab565b348015610590575f80fd5b5061024760075481565b3480156105a5575f80fd5b5061022d6105b43660046138d5565b61251a565b3480156105c4575f80fd5b5060065460075460408051928352602083019190915201610251565b3480156105eb575f80fd5b5061022d61287e565b3480156105ff575f80fd5b5061022d61060e3660046137a1565b612926565b34801561061e575f80fd5b5061022d61062d366004613874565b612a4d565b34801561063d575f80fd5b5061022d61064c366004613874565b612b4d565b34801561065c575f80fd5b5061024761066b36600461366a565b612c07565b34801561067b575f80fd5b5061022d61068a366004613786565b612d18565b34801561069a575f80fd5b506102476106a9366004613786565b612d52565b3480156106b9575f80fd5b5060025461032e906001600160a01b031681565b6106d5612f24565b600154604051638c56444d60e01b81526001600160a01b0390911690638c56444d90610707908590859060040161392d565b602060405180830381865afa158015610722573d5f803e3d5ffd5b505050506040513d601f19601f820116820180604052508101906107469190613957565b6107635760405163bf87c7d560e01b815260040160405180910390fd5b6001546040516391f454b960e01b81525f916001600160a01b0316906391f454b990610795908690869060040161392d565b61012060405180830381865afa1580156107b1573d5f803e3d5ffd5b505050506040513d601f19601f820116820180604052508101906107d591906139d4565b6004805460405163b93fb64160e01b81529293505f926001600160a01b039091169163b93fb6419161080991879101613816565b602060405180830381865afa158015610824573d5f803e3d5ffd5b505050506040513d601f19601f820116820180604052508101906108489190613a5e565b90505f6108558383612f3f565b90505f8184606001516108689190613a75565b60015460405163f635115b60e01b81529192506001600160a01b03169063f635115b9061089b908990899060040161392d565b5f604051808303815f87803b1580156108b2575f80fd5b505af11580156108c4573d5f803e3d5ffd5b505050505f805f8313156109b257826108e566b1a2bc2ec500005f19613a94565b811115610901576108fe66b1a2bc2ec500005f19613a94565b90505b670de0b6b3a764000061091b66b1a2bc2ec5000083613ab3565b6109259190613a94565b92506109318385613aca565b600254604051630b4f5c4560e31b81529193506001600160a01b031690635a7ae22890610968908c90339088905f90600401613add565b5f604051808303815f87803b15801561097f575f80fd5b505af1158015610991573d5f803e3d5ffd5b505050508160055f8282546109a69190613643565b90915550610a80915050565b5f6109bc84613b06565b905080600554106109e3578060055f8282546109d89190613aca565b909155506109fe9050565b6109f9600554826109f49190613aca565b612fde565b5f6005555b606087015115610a7e5760148760600151610a199190613a94565b600254604051630b4f5c4560e31b81529194506001600160a01b031690635a7ae22890610a50908c90339088905f90600401613add565b5f604051808303815f87803b158015610a67575f80fd5b505af1158015610a79573d5f803e3d5ffd5b505050505b505b60068054905f610a8f83613b20565b9190505550856040015160075f828254610aa99190613643565b92505081905550336001600160a01b0316876001600160a01b0316896001600160a01b03165f80516020613d3883398151915289604001518a606001518787604051610af89493929190613b38565b60405180910390a4505050505050610b0e613236565b5050565b610b1a613243565b3460055f828254610b2b9190613643565b90915550506040513481525f80516020613d188339815191529060200160405180910390a1565b60605f805b84811015610c0f576001546001600160a01b0316638c56444d878784818110610b8257610b82613b53565b9050602002016020810190610b979190613786565b866040518363ffffffff1660e01b8152600401610bb592919061392d565b602060405180830381865afa158015610bd0573d5f803e3d5ffd5b505050506040513d601f19601f82011682018060405250810190610bf49190613957565b15610c075781610c0381613b20565b9250505b600101610b57565b50806001600160401b03811115610c2857610c28613972565b604051908082528060200260200182016040528015610c51578160200160208202803683370190505b5091505f805b85811015610d66576001546001600160a01b0316638c56444d888884818110610c8257610c82613b53565b9050602002016020810190610c979190613786565b876040518363ffffffff1660e01b8152600401610cb592919061392d565b602060405180830381865afa158015610cd0573d5f803e3d5ffd5b505050506040513d601f19601f82011682018060405250810190610cf49190613957565b15610d5e57868682818110610d0b57610d0b613b53565b9050602002016020810190610d209190613786565b8483610d2b81613b20565b945081518110610d3d57610d3d613b53565b60200260200101906001600160a01b031690816001600160a01b0316815250505b600101610c57565b5050509392505050565b610d78612f24565b60015460405163b9f4ff5560e01b81526001600160a01b039091169063b9f4ff5590610da8908490600401613816565b602060405180830381865afa158015610dc3573d5f803e3d5ffd5b505050506040513d601f19601f82011682018060405250810190610de79190613957565b610e045760405163bf87c7d560e01b815260040160405180910390fd5b6001546040516316c1973960e01b81525f916001600160a01b0316906316c1973990610e34908590600401613816565b60e060405180830381865afa158015610e4f573d5f803e3d5ffd5b505050506040513d601f19601f82011682018060405250810190610e739190613b67565b90505f60045f9054906101000a90046001600160a01b03166001600160a01b031663604096326040518163ffffffff1660e01b8152600401602060405180830381865afa158015610ec6573d5f803e3d5ffd5b505050506040513d601f19601f82011682018060405250810190610eea9190613a5e565b90505f610ef78383613275565b90505f818460400151610f0a9190613a75565b60015460405163d6ae57c760e01b81529192506001600160a01b03169063d6ae57c790610f3b908890600401613816565b5f604051808303815f87803b158015610f52575f80fd5b505af1158015610f64573d5f803e3d5ffd5b505050505f805f8313156110525782610f8566b1a2bc2ec500005f19613a94565b811115610fa157610f9e66b1a2bc2ec500005f19613a94565b90505b670de0b6b3a7640000610fbb66b1a2bc2ec5000083613ab3565b610fc59190613a94565b9250610fd18385613aca565b600254604051630b4f5c4560e31b81529193506001600160a01b031690635a7ae22890611008908b90339088905f90600401613add565b5f604051808303815f87803b15801561101f575f80fd5b505af1158015611031573d5f803e3d5ffd5b505050508160055f8282546110469190613643565b9091555061111b915050565b5f61105c84613b06565b90508060055410611083578060055f8282546110789190613aca565b909155506110999050565b611094600554826109f49190613aca565b5f6005555b60408701511561111957601487604001516110b49190613a94565b600254604051630b4f5c4560e31b81529194506001600160a01b031690635a7ae228906110eb908b90339088905f90600401613add565b5f604051808303815f87803b158015611102575f80fd5b505af1158015611114573d5f803e3d5ffd5b505050505b505b60068054905f61112a83613b20565b9190505550856020015160075f8282546111449190613643565b92505081905550336001600160a01b0316876001600160a01b03165f80516020613d588339815191528860200151896040015186866040516111899493929190613b38565b60405180910390a350505050505061119f613236565b50565b6111aa612f24565b5f5b828110156112e2576001546001600160a01b0316638c56444d8585848181106111d7576111d7613b53565b90506020020160208101906111ec9190613786565b846040518363ffffffff1660e01b815260040161120a92919061392d565b602060405180830381865afa158015611225573d5f803e3d5ffd5b505050506040513d601f19601f820116820180604052508101906112499190613957565b156112da573063b101807785858481811061126657611266613b53565b905060200201602081019061127b9190613786565b6040516001600160e01b031960e084901b1681526001600160a01b03918216600482015290851660248201523360448201526064015f604051808303815f87803b1580156112c7575f80fd5b505af19250505080156112d8575060015b505b6001016111ac565b506112eb613236565b505050565b6060816001600160401b0381111561130a5761130a613972565b604051908082528060200260200182016040528015611333578160200160208202803683370190505b5090505f60045f9054906101000a90046001600160a01b03166001600160a01b031663604096326040518163ffffffff1660e01b8152600401602060405180830381865afa158015611387573d5f803e3d5ffd5b505050506040513d601f19601f820116820180604052508101906113ab9190613a5e565b90505f5b838110156114af576001545f906001600160a01b03166316c197398787858181106113dc576113dc613b53565b90506020020160208101906113f19190613786565b6040518263ffffffff1660e01b815260040161140d9190613816565b60e060405180830381865afa158015611428573d5f803e3d5ffd5b505050506040513d601f19601f8201168201806040525081019061144c9190613b67565b905080602001515f0361147d575f84838151811061146c5761146c613b53565b6020026020010181815250506114a6565b6114878184613275565b84838151811061149957611499613b53565b6020026020010181815250505b506001016113af565b505092915050565b6001546001600160a01b031633146114ea5760405162461bcd60e51b81526004016114e190613bfd565b60405180910390fd5b6001600160a01b0381165f908152600960205260409020548015610b0e576008545f9061151990600190613aca565b905080611527600184613aca565b146115ae575f6008828154811061154057611540613b53565b5f918252602090912001546001600160a01b03169050806008611564600186613aca565b8154811061157457611574613b53565b5f91825260208083209190910180546001600160a01b0319166001600160a01b039485161790559290911681526009909152604090208290555b60088054806115bf576115bf613c2b565b5f828152602080822083015f1990810180546001600160a01b03191690559092019092556001600160a01b0385168252600990526040812055505050565b60605f61160a8385613643565b60085490915081111561161c57506008545b808410611638575050604080515f8152602081019091526116f1565b6116428482613aca565b6001600160401b0381111561165957611659613972565b604051908082528060200260200182016040528015611682578160200160208202803683370190505b509150835b818110156114af57600881815481106116a2576116a2613b53565b5f918252602090912001546001600160a01b0316836116c18784613aca565b815181106116d1576116d1613b53565b6001600160a01b0390921660209283029190910190910152600101611687565b92915050565b6001546040516316c1973960e01b81525f9182916001600160a01b03909116906316c197399061172b908690600401613816565b60e060405180830381865afa158015611746573d5f803e3d5ffd5b505050506040513d601f19601f8201168201806040525081019061176a9190613b67565b905080602001515f0361177f57505f92915050565b5f60045f9054906101000a90046001600160a01b03166001600160a01b031663604096326040518163ffffffff1660e01b8152600401602060405180830381865afa1580156117d0573d5f803e3d5ffd5b505050506040513d601f19601f820116820180604052508101906117f49190613a5e565b90506118008282613275565b949350505050565b60605f805b838110156118c3576001546001600160a01b031663b9f4ff5586868481811061183857611838613b53565b905060200201602081019061184d9190613786565b6040518263ffffffff1660e01b81526004016118699190613816565b602060405180830381865afa158015611884573d5f803e3d5ffd5b505050506040513d601f19601f820116820180604052508101906118a89190613957565b156118bb57816118b781613b20565b9250505b60010161180d565b50806001600160401b038111156118dc576118dc613972565b604051908082528060200260200182016040528015611905578160200160208202803683370190505b5091505f805b84811015611a18576001546001600160a01b031663b9f4ff5587878481811061193657611936613b53565b905060200201602081019061194b9190613786565b6040518263ffffffff1660e01b81526004016119679190613816565b602060405180830381865afa158015611982573d5f803e3d5ffd5b505050506040513d601f19601f820116820180604052508101906119a69190613957565b15611a10578585828181106119bd576119bd613b53565b90506020020160208101906119d29190613786565b84836119dd81613b20565b9450815181106119ef576119ef613b53565b60200260200101906001600160a01b031690816001600160a01b0316815250505b60010161190b565b50505092915050565b611a29613243565b611a325f6132ee565b565b600154604051638c56444d60e01b81525f916001600160a01b031690638c56444d90611a66908690869060040161392d565b602060405180830381865afa158015611a81573d5f803e3d5ffd5b505050506040513d601f19601f82011682018060405250810190611aa59190613957565b9392505050565b5f546001600160a01b031690565b6001546001600160a01b03163314611ae45760405162461bcd60e51b81526004016114e190613bfd565b6001600160a01b0381165f90815260096020526040812054900361119f57600880546001810182557ff3f7a9fe364faab93b216da50a3214154f22a0a2b415b23a84c8169e8b636ee30180546001600160a01b0319166001600160a01b03939093169283179055545f9182526009602052604090912055565b611b65612f24565b6002546001600160a01b03163314611b8f5760405162461bcd60e51b81526004016114e190613c3f565b8015611d03578060055410611c57578060055f828254611baf9190613aca565b90915550506040515f906001600160a01b0384169083908381818185875af1925050503d805f8114611bfc576040519150601f19603f3d011682016040523d82523d5f602084013e611c01565b606091505b5050905080611c21578160055f828254611c1b9190613643565b90915550505b826001600160a01b03165f80516020613d7883398151915283604051611c4991815260200190565b60405180910390a250611d03565b611c68600554826109f49190613aca565b600580545f9091558015611d01575f836001600160a01b0316826040515f6040518083038185875af1925050503d805f8114611cbf576040519150601f19603f3d011682016040523d82523d5f602084013e611cc4565b606091505b505090508015611cff57836001600160a01b03165f80516020613d7883398151915283604051611cf691815260200190565b60405180910390a25b505b505b610b0e613236565b333014611d2a5760405162461bcd60e51b81526004016114e190613c63565b6001546040516316c1973960e01b81525f916001600160a01b0316906316c1973990611d5a908690600401613816565b60e060405180830381865afa158015611d75573d5f803e3d5ffd5b505050506040513d601f19601f82011682018060405250810190611d999190613b67565b90505f60045f9054906101000a90046001600160a01b03166001600160a01b031663604096326040518163ffffffff1660e01b8152600401602060405180830381865afa158015611dec573d5f803e3d5ffd5b505050506040513d601f19601f82011682018060405250810190611e109190613a5e565b90505f611e1d8383613275565b90505f818460400151611e309190613a75565b60015460405163d6ae57c760e01b81529192506001600160a01b03169063d6ae57c790611e61908990600401613816565b5f604051808303815f87803b158015611e78575f80fd5b505af1158015611e8a573d5f803e3d5ffd5b505050505f805f831315611f785782611eab66b1a2bc2ec500005f19613a94565b811115611ec757611ec466b1a2bc2ec500005f19613a94565b90505b670de0b6b3a7640000611ee166b1a2bc2ec5000083613ab3565b611eeb9190613a94565b9250611ef78385613aca565b600254604051630b4f5c4560e31b81529193506001600160a01b031690635a7ae22890611f2e908c908c9088905f90600401613add565b5f604051808303815f87803b158015611f45575f80fd5b505af1158015611f57573d5f803e3d5ffd5b505050508160055f828254611f6c9190613643565b90915550612041915050565b5f611f8284613b06565b90508060055410611fa9578060055f828254611f9e9190613aca565b90915550611fbf9050565b611fba600554826109f49190613aca565b5f6005555b60408701511561203f5760148760400151611fda9190613a94565b600254604051630b4f5c4560e31b81529194506001600160a01b031690635a7ae22890612011908c908c9088905f90600401613add565b5f604051808303815f87803b158015612028575f80fd5b505af115801561203a573d5f803e3d5ffd5b505050505b505b60068054905f61205083613b20565b9190505550856020015160075f82825461206a9190613643565b92505081905550866001600160a01b0316886001600160a01b03165f80516020613d588339815191528860200151896040015186866040516120af9493929190613b38565b60405180910390a35050505050505050565b600881815481106120d0575f80fd5b5f918252602090912001546001600160a01b0316905081565b3330146121085760405162461bcd60e51b81526004016114e190613c63565b6001546040516391f454b960e01b81525f916001600160a01b0316906391f454b99061213a908790879060040161392d565b61012060405180830381865afa158015612156573d5f803e3d5ffd5b505050506040513d601f19601f8201168201806040525081019061217a91906139d4565b6004805460405163b93fb64160e01b81529293505f926001600160a01b039091169163b93fb641916121ae91889101613816565b602060405180830381865afa1580156121c9573d5f803e3d5ffd5b505050506040513d601f19601f820116820180604052508101906121ed9190613a5e565b90505f6121fa8383612f3f565b90505f81846060015161220d9190613a75565b60015460405163f635115b60e01b81529192506001600160a01b03169063f635115b90612240908a908a9060040161392d565b5f604051808303815f87803b158015612257575f80fd5b505af1158015612269573d5f803e3d5ffd5b505050505f805f831315612357578261228a66b1a2bc2ec500005f19613a94565b8111156122a6576122a366b1a2bc2ec500005f19613a94565b90505b670de0b6b3a76400006122c066b1a2bc2ec5000083613ab3565b6122ca9190613a94565b92506122d68385613aca565b600254604051630b4f5c4560e31b81529193506001600160a01b031690635a7ae2289061230d908d908c9088905f90600401613add565b5f604051808303815f87803b158015612324575f80fd5b505af1158015612336573d5f803e3d5ffd5b505050508160055f82825461234b9190613643565b90915550612420915050565b5f61236184613b06565b90508060055410612388578060055f82825461237d9190613aca565b9091555061239e9050565b612399600554826109f49190613aca565b5f6005555b60608701511561241e57601487606001516123b99190613a94565b600254604051630b4f5c4560e31b81529194506001600160a01b031690635a7ae228906123f0908d908c9088905f90600401613add565b5f604051808303815f87803b158015612407575f80fd5b505af1158015612419573d5f803e3d5ffd5b505050505b505b60068054905f61242f83613b20565b9190505550856040015160075f8282546124499190613643565b92505081905550866001600160a01b0316886001600160a01b03168a6001600160a01b03165f80516020613d3883398151915289604001518a6060015187876040516124989493929190613b38565b60405180910390a4505050505050505050565b60015460405163b9f4ff5560e01b81525f916001600160a01b03169063b9f4ff55906124db908590600401613816565b602060405180830381865afa1580156124f6573d5f803e3d5ffd5b505050506040513d601f19601f820116820180604052508101906116f19190613957565b612522612f24565b826125615760405162461bcd60e51b815260206004820152600f60248201526e115b5c1d1e481d5cd95c881b1a5cdd608a1b60448201526064016114e1565b5f60045f9054906101000a90046001600160a01b03166001600160a01b031663604096326040518163ffffffff1660e01b8152600401602060405180830381865afa1580156125b2573d5f803e3d5ffd5b505050506040513d601f19601f820116820180604052508101906125d69190613a5e565b90506001600160ff1b035f805b86811080156125f157508482105b1561286c575f88888381811061260957612609613b53565b905060200201602081019061261e9190613786565b6001546040516316c1973960e01b81529192505f916001600160a01b03909116906316c1973990612653908590600401613816565b60e060405180830381865afa15801561266e573d5f803e3d5ffd5b505050506040513d601f19601f820116820180604052508101906126929190613b67565b905080602001515f036126a657505061285a565b80511515881515146126b957505061285a565b5f6126c48288613275565b9050858113156127245760405162461bcd60e51b815260206004820152602560248201527f5573657273206e6f7420736f727465642062792070726f6669742064657363656044820152646e64696e6760d81b60648201526084016114e1565b8095505f81136127365750505061285a565b5f612741868a613aca565b90508260200151811115612756575060208201515b60208301515f90612768836064613ab3565b6127729190613a94565b90506064811115612781575060645b805f0361278c575060015b60015460405163b606e66360e01b81526001600160a01b039091169063b606e663906127be9088908590600401613c8a565b5f604051808303815f87803b1580156127d5575f80fd5b505af19250505080156127e6575060015b15612854576127f58288613643565b9650846001600160a01b03165f80516020613dd88339815191528360405161284b9181526040602082018190526014908201527320a2261039b7b93a32b21032bc32b1baba34b7b760611b606082015260800190565b60405180910390a25b50505050505b8061286481613b20565b9150506125e3565b50505050612878613236565b50505050565b612886612f24565b5f805f60035f9054906101000a90046001600160a01b03166001600160a01b0316636cd56d686040518163ffffffff1660e01b8152600401606060405180830381865afa1580156128d9573d5f803e3d5ffd5b505050506040513d601f19601f820116820180604052508101906128fd9190613ca3565b925092509250826129105750505061291e565b61291a828261333d565b5050505b611a32613236565b61292e612f24565b5f5b81811015611d01576001546001600160a01b031663b9f4ff5584848481811061295b5761295b613b53565b90506020020160208101906129709190613786565b6040518263ffffffff1660e01b815260040161298c9190613816565b602060405180830381865afa1580156129a7573d5f803e3d5ffd5b505050506040513d601f19601f820116820180604052508101906129cb9190613957565b15612a45573063965bb26e8484848181106129e8576129e8613b53565b90506020020160208101906129fd9190613786565b336040518363ffffffff1660e01b8152600401612a1b92919061392d565b5f604051808303815f87803b158015612a32575f80fd5b505af1925050508015612a43575060015b505b600101612930565b612a55613243565b600554811115612a7857604051630aa7b37d60e01b815260040160405180910390fd5b8060055f828254612a899190613aca565b90915550506040515f90339083908381818185875af1925050503d805f8114612acd576040519150601f19603f3d011682016040523d82523d5f602084013e612ad2565b606091505b5050905080612b155760405162461bcd60e51b815260206004820152600f60248201526e151c985b9cd9995c8819985a5b1959608a1b60448201526064016114e1565b6040518281527fe780ca62f898df9d7ea0fb27ba14afbaf0270df2b31e1a675effbfd2a6dfa442906020015b60405180910390a15050565b6002546001600160a01b03163314612b775760405162461bcd60e51b81526004016114e190613c3f565b805f03612b815750565b8060055410612bc3578060055f828254612b9b9190613aca565b90915550506040518181525f80516020613db88339815191529060200160405180910390a150565b5f60055482612bd29190613aca565b5f6005559050612be181612fde565b5f80516020613db8833981519152612bf98284613aca565b604051908152602001612b41565b6001546040516391f454b960e01b81525f9182916001600160a01b03909116906391f454b990612c3d908790879060040161392d565b61012060405180830381865afa158015612c59573d5f803e3d5ffd5b505050506040513d601f19601f82011682018060405250810190612c7d91906139d4565b905080604001515f03612c93575f9150506116f1565b6004805460405163b93fb64160e01b81525f926001600160a01b039092169163b93fb64191612cc491889101613816565b602060405180830381865afa158015612cdf573d5f803e3d5ffd5b505050506040513d601f19601f82011682018060405250810190612d039190613a5e565b9050612d0f8282612f3f565b95945050505050565b612d20613243565b6001600160a01b038116612d49575f604051631e4fbdf760e01b81526004016114e19190613816565b61119f816132ee565b60015460405163b9f4ff5560e01b81525f916001600160a01b03169063b9f4ff5590612d82908590600401613816565b602060405180830381865afa158015612d9d573d5f803e3d5ffd5b505050506040513d601f19601f82011682018060405250810190612dc19190613957565b612dcc57505f919050565b6001546040516316c1973960e01b81525f916001600160a01b0316906316c1973990612dfc908690600401613816565b60e060405180830381865afa158015612e17573d5f803e3d5ffd5b505050506040513d601f19601f82011682018060405250810190612e3b9190613b67565b90505f60045f9054906101000a90046001600160a01b03166001600160a01b031663604096326040518163ffffffff1660e01b8152600401602060405180830381865afa158015612e8e573d5f803e3d5ffd5b505050506040513d601f19601f82011682018060405250810190612eb29190613a5e565b90505f612ebf8383613275565b90505f818460400151612ed29190613a75565b90505f811315612f0757670de0b6b3a7640000612ef666b1a2bc2ec5000083613ab3565b612f009190613a94565b9450612f1b565b60148460400151612f189190613a94565b94505b50505050919050565b612f2c6135d0565b6002612f3c612f396135f6565b90565b55565b5f826020015115612fb55782608001518210612f84576080830151612f648184613aca565b8460400151612f739190613ab3565b612f7d9190613a94565b90506116f1565b6080830151612f938382613aca565b8460400151612fa29190613ab3565b612fac9190613a94565b612f7d90613b06565b82608001518211612fcf576080830151612f648382613aca565b6080830151612f938184613aca565b5f805f60035f9054906101000a90046001600160a01b03166001600160a01b0316636cd56d686040518163ffffffff1660e01b8152600401606060405180830381865afa158015613031573d5f803e3d5ffd5b505050506040513d601f19601f820116820180604052508101906130559190613ca3565b92509250925082801561306757505f81115b156130d257613076828261333d565b5f6001600160a01b03165f80516020613dd8833981519152826040516130c991815260406020820181905260139082015272125b9cdd5c985b98d9481cda1bdc9d19985b1b606a1b606082015260800190565b60405180910390a25b5f8060035f9054906101000a90046001600160a01b03166001600160a01b0316637bdc9a206040518163ffffffff1660e01b8152600401606060405180830381865afa158015613124573d5f803e3d5ffd5b505050506040513d601f19601f820116820180604052508101906131489190613ce3565b92509250508082101561322e576003546040516360c7a17f60e01b815260206004820152602560248201527f496e737572616e63652066756e6420696e73756666696369656e7420616674656044820152641c8810511360da1b60648201526001600160a01b03909116906360c7a17f906084015f604051808303815f87803b1580156131d3575f80fd5b505af19250505080156131e4575060015b61320d576040518681525f80516020613d988339815191529060200160405180910390a161322e565b6040518681525f80516020613d988339815191529060200160405180910390a15b505050505050565b6001612f3c612f396135f6565b3361324c611aac565b6001600160a01b031614611a32573360405163118cdaa760e01b81526004016114e19190613816565b81515f90156132c557826060015182106132a75760608301516132988184613aca565b8460200151612f739190613ab3565b60608301516132b68382613aca565b8460200151612fa29190613ab3565b826060015182116132df5760608301516132988382613aca565b60608301516132b68184613aca565b5f80546001600160a01b038381166001600160a01b0319831681178455604051919092169283917f8be0079c531659141344cd1fd0a4f28419497f9722a3daafe3b4186f6b6457e09190a35050565b5f805b6008548110801561335057508282105b15612878575f6008828154811061336957613369613b53565b5f9182526020822001546001546040516316c1973960e01b81526001600160a01b0392831694509116906316c19739906133a7908590600401613816565b60e060405180830381865afa1580156133c2573d5f803e3d5ffd5b505050506040513d601f19601f820116820180604052508101906133e69190613b67565b905080602001515f036133fa5750506135be565b805115158615151461340d5750506135be565b5f60045f9054906101000a90046001600160a01b03166001600160a01b031663604096326040518163ffffffff1660e01b8152600401602060405180830381865afa15801561345e573d5f803e3d5ffd5b505050506040513d601f19601f820116820180604052508101906134829190613a5e565b90505f61348f8383613275565b90505f81136134a157505050506135be565b5f6134ac8789613aca565b905083602001518111156134c1575060208301515b60208401515f906134d3836064613ab3565b6134dd9190613a94565b905060648111156134ec575060645b805f036134f7575060015b60015460405163b606e66360e01b81526001600160a01b039091169063b606e663906135299089908590600401613c8a565b5f604051808303815f87803b158015613540575f80fd5b505af1925050508015613551575060015b156135b7576135608289613643565b9750856001600160a01b03165f80516020613dd8833981519152836040516135ae918152604060208201819052600c908201526b10511308195e1958dd5d195960a21b606082015260800190565b60405180910390a25b5050505050505b806135c881613b20565b915050613340565b6135d861361a565b15611a3257604051633ee5aeb560e01b815260040160405180910390fd5b7f9b779b17422d0df92223018b32b4d1fa46e071723d6817e2486d003becc55f0090565b5f6002613628612f396135f6565b5414919050565b634e487b7160e01b5f52601160045260245ffd5b808201808211156116f1576116f161362f565b6001600160a01b038116811461119f575f80fd5b5f806040838503121561367b575f80fd5b823561368681613656565b9150602083013561369681613656565b809150509250929050565b5f8083601f8401126136b1575f80fd5b5081356001600160401b038111156136c7575f80fd5b6020830191508360208260051b85010111156136e1575f80fd5b9250929050565b5f805f604084860312156136fa575f80fd5b83356001600160401b0381111561370f575f80fd5b61371b868287016136a1565b909450925050602084013561372f81613656565b809150509250925092565b602080825282518282018190525f9190848201906040850190845b8181101561377a5783516001600160a01b031683529284019291840191600101613755565b50909695505050505050565b5f60208284031215613796575f80fd5b8135611aa581613656565b5f80602083850312156137b2575f80fd5b82356001600160401b038111156137c7575f80fd5b6137d3858286016136a1565b90969095509350505050565b602080825282518282018190525f9190848201906040850190845b8181101561377a578351835292840192918401916001016137fa565b6001600160a01b0391909116815260200190565b5f806040838503121561383b575f80fd5b50508035926020909101359150565b5f806040838503121561385b575f80fd5b823561386681613656565b946020939093013593505050565b5f60208284031215613884575f80fd5b5035919050565b5f805f6060848603121561389d575f80fd5b83356138a881613656565b925060208401356138b881613656565b9150604084013561372f81613656565b801515811461119f575f80fd5b5f805f80606085870312156138e8575f80fd5b84356001600160401b038111156138fd575f80fd5b613909878288016136a1565b909550935050602085013561391d816138c8565b9396929550929360400135925050565b6001600160a01b0392831681529116602082015260400190565b8051613952816138c8565b919050565b5f60208284031215613967575f80fd5b8151611aa5816138c8565b634e487b7160e01b5f52604160045260245ffd5b60405161012081016001600160401b03811182821017156139b557634e487b7160e01b5f52604160045260245ffd5b60405290565b805161395281613656565b805160028110613952575f80fd5b5f61012082840312156139e5575f80fd5b6139ed613986565b6139f6836139bb565b8152613a0460208401613947565b602082015260408301516040820152606083015160608201526080830151608082015260a083015160a082015260c083015160c082015260e083015160e0820152610100613a538185016139c6565b908201529392505050565b5f60208284031215613a6e575f80fd5b5051919050565b8082018281125f8312801582168215821617156114af576114af61362f565b5f82613aae57634e487b7160e01b5f52601260045260245ffd5b500490565b80820281158282048414176116f1576116f161362f565b818103818111156116f1576116f161362f565b6001600160a01b0394851681529290931660208301526040820152606081019190915260800190565b5f600160ff1b8201613b1a57613b1a61362f565b505f0390565b5f60018201613b3157613b3161362f565b5060010190565b93845260208401929092526040830152606082015260800190565b634e487b7160e01b5f52603260045260245ffd5b5f60e08284031215613b77575f80fd5b60405160e081016001600160401b0381118282101715613ba557634e487b7160e01b5f52604160045260245ffd5b6040528251613bb3816138c8565b808252506020830151602082015260408301516040820152606083015160608201526080830151608082015260a083015160a082015260c083015160c08201528091505092915050565b60208082526014908201527327b7363c902837b9b4ba34b7b726b0b730b3b2b960611b604082015260600190565b634e487b7160e01b5f52603160045260245ffd5b6020808252600a908201526913db9b1e481d985d5b1d60b21b604082015260600190565b6020808252600d908201526c496e7465726e616c206f6e6c7960981b604082015260600190565b6001600160a01b03929092168252602082015260400190565b5f805f60608486031215613cb5575f80fd5b8351613cc0816138c8565b6020850151909350613cd1816138c8565b80925050604084015190509250925092565b5f805f60608486031215613cf5575f80fd5b8351613d00816138c8565b60208501516040909501519096949550939250505056fed19864fb731dcd7167dd1d6b6e972963ef8a1aad6ec31fa70a0af464548f1fa00d3719dec42e79cefea0c7d1ff34b029f7c701bb60d3c7f26ba72924becf61c581749dfaca15de9da21f7b95c96f27ca0cd78a345932577022746848573cb86118b4d88519e317cd323e73f9cb4143659b157408d6c68da2a8e309e0c7155b34b3a85821db5bbbf6b46562e4ffd4c5e1839affd09fd169481ad1bac888899467e2961aa7b9f7c52a175643bdba547a10ec04dd1470c032e84282ce39adcd6ce22c749ac5aec56f79e75b911b3b424ba7f8c7d7e1388c4cdd94e51d4bf955c4d7a264697066735822122074bcbf10c44004d81327a40981692a3fb34e0daafa88a6ce9ebcea890b8bc42c64736f6c63430008180033","linkReferences":{}},"methodIdentifiers":{"LIQUIDATOR_REWARD_RATE()":"59877dd2","PRECISION()":"aaf5eb68","addToADLQueue(address)":"923b29db","adlQueue(uint256)":"a0362286","canLiquidate(address)":"b9f4ff55","canLiquidateToken(address,address)":"8c56444d","coverDeficit(uint256)":"e3437a3c","depositInsuranceFund()":"12bdc3d1","executeADL()":"c63da352","executeADLWithSortedUsers(address[],bool,uint256)":"c1924d19","getADLQueueLength()":"555c799d","getADLQueueUsers(uint256,uint256)":"51e3eff2","getInsuranceFund()":"158626f7","getLiquidatableTokenUsers(address[],address)":"278e16eb","getLiquidatableUsers(address[])":"5e945830","getLiquidationReward(address)":"f9903036","getStats()":"c59d4847","getUserPnL(address)":"5a8dc5c6","getUserPnLToken(address,address)":"eae32f66","getUsersPnL(address[])":"3864b26f","insuranceFund()":"b7902303","liquidate(address)":"2f865568","liquidateBatch(address[])":"c72fb7f4","liquidateBatchToken(address[],address)":"3803c690","liquidateSingle(address,address)":"965bb26e","liquidateSingleToken(address,address,address)":"b1018077","liquidateToken(address,address)":"09106080","owner()":"8da5cb5b","payProfit(address,uint256)":"9625b3d2","positionManager()":"791b98bc","priceFeed()":"741bef1a","removeFromADLQueue(address)":"42833f81","renounceOwnership()":"715018a6","riskManager()":"47842663","totalLiquidationVolume()":"bd694e74","totalLiquidations()":"954806d7","transferOwnership(address)":"f2fde38b","userADLIndex(address)":"a06295d2","vault()":"fbfa77cf","withdrawInsuranceFund(uint256)":"d7b648da"},"id":92}