{"abi":[{"type":"constructor","inputs":[],"stateMutability":"nonpayable"},{"type":"function","name":"TOTAL_SUPPLY","inputs":[],"outputs":[{"name":"","type":"uint256","internalType":"uint256"}],"stateMutability":"view"},{"type":"function","name":"allowance","inputs":[{"name":"owner","type":"address","internalType":"address"},{"name":"spender","type":"address","internalType":"address"}],"outputs":[{"name":"","type":"uint256","internalType":"uint256"}],"stateMutability":"view"},{"type":"function","name":"approve","inputs":[{"name":"spender","type":"address","internalType":"address"},{"name":"value","type":"uint256","internalType":"uint256"}],"outputs":[{"name":"","type":"bool","internalType":"bool"}],"stateMutability":"nonpayable"},{"type":"function","name":"balanceOf","inputs":[{"name":"account","type":"address","internalType":"address"}],"outputs":[{"name":"","type":"uint256","internalType":"uint256"}],"stateMutability":"view"},{"type":"function","name":"burn","inputs":[{"name":"value","type":"uint256","internalType":"uint256"}],"outputs":[],"stateMutability":"nonpayable"},{"type":"function","name":"burnFrom","inputs":[{"name":"account","type":"address","internalType":"address"},{"name":"value","type":"uint256","internalType":"uint256"}],"outputs":[],"stateMutability":"nonpayable"},{"type":"function","name":"decimals","inputs":[],"outputs":[{"name":"","type":"uint8","internalType":"uint8"}],"stateMutability":"view"},{"type":"function","name":"name","inputs":[],"outputs":[{"name":"","type":"string","internalType":"string"}],"stateMutability":"view"},{"type":"function","name":"owner","inputs":[],"outputs":[{"name":"","type":"address","internalType":"address"}],"stateMutability":"view"},{"type":"function","name":"renounceOwnership","inputs":[],"outputs":[],"stateMutability":"nonpayable"},{"type":"function","name":"symbol","inputs":[],"outputs":[{"name":"","type":"string","internalType":"string"}],"stateMutability":"view"},{"type":"function","name":"totalSupply","inputs":[],"outputs":[{"name":"","type":"uint256","internalType":"uint256"}],"stateMutability":"view"},{"type":"function","name":"transfer","inputs":[{"name":"to","type":"address","internalType":"address"},{"name":"value","type":"uint256","internalType":"uint256"}],"outputs":[{"name":"","type":"bool","internalType":"bool"}],"stateMutability":"nonpayable"},{"type":"function","name":"transferFrom","inputs":[{"name":"from","type":"address","internalType":"address"},{"name":"to","type":"address","internalType":"address"},{"name":"value","type":"uint256","internalType":"uint256"}],"outputs":[{"name":"","type":"bool","internalType":"bool"}],"stateMutability":"nonpayable"},{"type":"function","name":"transferOwnership","inputs":[{"name":"newOwner","type":"address","internalType":"address"}],"outputs":[],"stateMutability":"nonpayable"},{"type":"event","name":"Approval","inputs":[{"name":"owner","type":"address","indexed":true,"internalType":"address"},{"name":"spender","type":"address","indexed":true,"internalType":"address"},{"name":"value","type":"uint256","indexed":false,"internalType":"uint256"}],"anonymous":false},{"type":"event","name":"OwnershipTransferred","inputs":[{"name":"previousOwner","type":"address","indexed":true,"internalType":"address"},{"name":"newOwner","type":"address","indexed":true,"internalType":"address"}],"anonymous":false},{"type":"event","name":"Transfer","inputs":[{"name":"from","type":"address","indexed":true,"internalType":"address"},{"name":"to","type":"address","indexed":true,"internalType":"address"},{"name":"value","type":"uint256","indexed":false,"internalType":"uint256"}],"anonymous":false},{"type":"error","name":"ERC20InsufficientAllowance","inputs":[{"name":"spender","type":"address","internalType":"address"},{"name":"allowance","type":"uint256","internalType":"uint256"},{"name":"needed","type":"uint256","internalType":"uint256"}]},{"type":"error","name":"ERC20InsufficientBalance","inputs":[{"name":"sender","type":"address","internalType":"address"},{"name":"balance","type":"uint256","internalType":"uint256"},{"name":"needed","type":"uint256","internalType":"uint256"}]},{"type":"error","name":"ERC20InvalidApprover","inputs":[{"name":"approver","type":"address","internalType":"address"}]},{"type":"error","name":"ERC20InvalidReceiver","inputs":[{"name":"receiver","type":"address","internalType":"address"}]},{"type":"error","name":"ERC20InvalidSender","inputs":[{"name":"sender","type":"address","internalType":"address"}]},{"type":"error","name":"ERC20InvalidSpender","inputs":[{"name":"spender","type":"address","internalType":"address"}]},{"type":"error","name":"OwnableInvalidOwner","inputs":[{"name":"owner","type":"address","internalType":"address"}]},{"type":"error","name":"OwnableUnauthorizedAccount","inputs":[{"name":"account","type":"address","internalType":"address"}]}],"bytecode":{"object":"0x608060405234801562000010575f80fd5b506040805180820182526004808252634d454d4560e01b6020808401829052845180860190955291845290830152339160036200004e83826200031a565b5060046200005d82826200031a565b5050506001600160a01b03811662000095575f604051631e4fbdf760e01b81526004016200008c9190620003e6565b60405180910390fd5b620000a081620000bf565b50620000b9336b033b2e3c9fd0803ce800000062000110565b62000420565b600580546001600160a01b038381166001600160a01b0319831681179093556040519116919082907f8be0079c531659141344cd1fd0a4f28419497f9722a3daafe3b4186f6b6457e0905f90a35050565b6001600160a01b0382166200013c575f60405163ec442f0560e01b81526004016200008c9190620003e6565b620001495f83836200014d565b5050565b6001600160a01b0383166200017b578060025f8282546200016f9190620003fa565b90915550620001ed9050565b6001600160a01b0383165f9081526020819052604090205481811015620001cf5760405163391434e360e21b81526001600160a01b038516600482015260248101829052604481018390526064016200008c565b6001600160a01b0384165f9081526020819052604090209082900390555b6001600160a01b0382166200020b5760028054829003905562000229565b6001600160a01b0382165f9081526020819052604090208054820190555b816001600160a01b0316836001600160a01b03167fddf252ad1be2c89b69c2b068fc378daa952ba7f163c4a11628f55a4df523b3ef836040516200026f91815260200190565b60405180910390a3505050565b634e487b7160e01b5f52604160045260245ffd5b600181811c90821680620002a557607f821691505b602082108103620002c457634e487b7160e01b5f52602260045260245ffd5b50919050565b601f8211156200031557805f5260205f20601f840160051c81016020851015620002f15750805b601f840160051c820191505b8181101562000312575f8155600101620002fd565b50505b505050565b81516001600160401b038111156200033657620003366200027c565b6200034e8162000347845462000290565b84620002ca565b602080601f83116001811462000384575f84156200036c5750858301515b5f19600386901b1c1916600185901b178555620003de565b5f85815260208120601f198616915b82811015620003b45788860151825594840194600190910190840162000393565b5085821015620003d257878501515f19600388901b60f8161c191681555b505060018460011b0185555b505050505050565b6001600160a01b0391909116815260200190565b808201808211156200041a57634e487b7160e01b5f52601160045260245ffd5b92915050565b6108e7806200042e5f395ff3fe608060405234801561000f575f80fd5b50600436106100c3575f3560e01c806306fdde03146100c7578063095ea7b3146100e557806318160ddd1461010857806323b872dd1461011a578063313ce5671461012d57806342966c681461013c57806370a0823114610151578063715018a61461017957806379cc6790146101815780638da5cb5b14610194578063902d55a5146101a957806395d89b41146101bb578063a9059cbb146101c3578063dd62ed3e146101d6578063f2fde38b146101e9575b5f80fd5b6100cf6101fc565b6040516100dc91906106f5565b60405180910390f35b6100f86100f336600461075c565b61028c565b60405190151581526020016100dc565b6002545b6040519081526020016100dc565b6100f8610128366004610784565b6102a5565b604051601281526020016100dc565b61014f61014a3660046107bd565b6102c8565b005b61010c61015f3660046107d4565b6001600160a01b03165f9081526020819052604090205490565b61014f6102d5565b61014f61018f36600461075c565b6102e8565b61019c610301565b6040516100dc91906107f4565b61010c676765c793fa10079d601b1b81565b6100cf610310565b6100f86101d136600461075c565b61031f565b61010c6101e4366004610808565b61032c565b61014f6101f73660046107d4565b610356565b60606003805461020b90610839565b80601f016020809104026020016040519081016040528092919081815260200182805461023790610839565b80156102825780601f1061025957610100808354040283529160200191610282565b820191905f5260205f20905b81548152906001019060200180831161026557829003601f168201915b5050505050905090565b5f33610299818585610399565b60019150505b92915050565b5f336102b28582856103ab565b6102bd8585856103fc565b506001949350505050565b6102d23382610459565b50565b6102dd61048d565b6102e65f6104bf565b565b6102f38233836103ab565b6102fd8282610459565b5050565b6005546001600160a01b031690565b60606004805461020b90610839565b5f336102998185856103fc565b6001600160a01b039182165f90815260016020908152604080832093909416825291909152205490565b61035e61048d565b6001600160a01b038116610390575f604051631e4fbdf760e01b815260040161038791906107f4565b60405180910390fd5b6102d2816104bf565b6103a68383836001610510565b505050565b5f6103b6848461032c565b90505f198110156103f657818110156103e857828183604051637dc7a0d960e11b815260040161038793929190610871565b6103f684848484035f610510565b50505050565b6001600160a01b038316610425575f604051634b637e8f60e11b815260040161038791906107f4565b6001600160a01b03821661044e575f60405163ec442f0560e01b815260040161038791906107f4565b6103a68383836105e2565b6001600160a01b038216610482575f604051634b637e8f60e11b815260040161038791906107f4565b6102fd825f836105e2565b33610496610301565b6001600160a01b0316146102e6573360405163118cdaa760e01b815260040161038791906107f4565b600580546001600160a01b038381166001600160a01b0319831681179093556040519116919082907f8be0079c531659141344cd1fd0a4f28419497f9722a3daafe3b4186f6b6457e0905f90a35050565b6001600160a01b038416610539575f60405163e602df0560e01b815260040161038791906107f4565b6001600160a01b038316610562575f604051634a1406b160e11b815260040161038791906107f4565b6001600160a01b038085165f90815260016020908152604080832093871683529290522082905580156103f657826001600160a01b0316846001600160a01b03167f8c5be1e5ebec7d5bd14f71427d1e84f3dd0314c0f7b2291e5b200ac8c7c3b925846040516105d491815260200190565b60405180910390a350505050565b6001600160a01b03831661060c578060025f8282546106019190610892565b909155506106699050565b6001600160a01b0383165f908152602081905260409020548181101561064b5783818360405163391434e360e21b815260040161038793929190610871565b6001600160a01b0384165f9081526020819052604090209082900390555b6001600160a01b038216610685576002805482900390556106a3565b6001600160a01b0382165f9081526020819052604090208054820190555b816001600160a01b0316836001600160a01b03167fddf252ad1be2c89b69c2b068fc378daa952ba7f163c4a11628f55a4df523b3ef836040516106e891815260200190565b60405180910390a3505050565b5f602080835283518060208501525f5b8181101561072157858101830151858201604001528201610705565b505f604082860101526040601f19601f8301168501019250505092915050565b80356001600160a01b0381168114610757575f80fd5b919050565b5f806040838503121561076d575f80fd5b61077683610741565b946020939093013593505050565b5f805f60608486031215610796575f80fd5b61079f84610741565b92506107ad60208501610741565b9150604084013590509250925092565b5f602082840312156107cd575f80fd5b5035919050565b5f602082840312156107e4575f80fd5b6107ed82610741565b9392505050565b6001600160a01b0391909116815260200190565b5f8060408385031215610819575f80fd5b61082283610741565b915061083060208401610741565b90509250929050565b600181811c9082168061084d57607f821691505b60208210810361086b57634e487b7160e01b5f52602260045260245ffd5b50919050565b6001600160a01b039390931683526020830191909152604082015260600190565b8082018082111561029f57634e487b7160e01b5f52601160045260245ffdfea264697066735822122005c4bde1660d0d6604ba2c320ad1c601e805bf4e638ea42a4c27182d330260a164736f6c63430008180033","linkReferences":{}},"methodIdentifiers":{"TOTAL_SUPPLY()":"902d55a5","allowance(address,address)":"dd62ed3e","approve(address,uint256)":"095ea7b3","balanceOf(address)":"70a08231","burn(uint256)":"42966c68","burnFrom(address,uint256)":"79cc6790","decimals()":"313ce567","name()":"06fdde03","owner()":"8da5cb5b","renounceOwnership()":"715018a6","symbol()":"95d89b41","totalSupply()":"18160ddd","transfer(address,uint256)":"a9059cbb","transferFrom(address,address,uint256)":"23b872dd","transferOwnership(address)":"f2fde38b"},"id":99}