{"abi":[{"type":"constructor","inputs":[{"name":"_vault","type":"address","internalType":"address"},{"name":"_priceFeed","type":"address","internalType":"address"},{"name":"_riskManager","type":"address","internalType":"address"}],"stateMutability":"nonpayable"},{"type":"function","name":"LEVERAGE_PRECISION","inputs":[],"outputs":[{"name":"","type":"uint256","internalType":"uint256"}],"stateMutability":"view"},{"type":"function","name":"PERP_CREATOR_FEE_SHARE","inputs":[],"outputs":[{"name":"","type":"uint256","internalType":"uint256"}],"stateMutability":"view"},{"type":"function","name":"PERP_PLATFORM_FEE_SHARE","inputs":[],"outputs":[{"name":"","type":"uint256","internalType":"uint256"}],"stateMutability":"view"},{"type":"function","name":"PERP_REFERRER_FEE_SHARE","inputs":[],"outputs":[{"name":"","type":"uint256","internalType":"uint256"}],"stateMutability":"view"},{"type":"function","name":"PRECISION","inputs":[],"outputs":[{"name":"","type":"uint256","internalType":"uint256"}],"stateMutability":"view"},{"type":"function","name":"addCollateral","inputs":[{"name":"amount","type":"uint256","internalType":"uint256"}],"outputs":[],"stateMutability":"nonpayable"},{"type":"function","name":"addCollateralToken","inputs":[{"name":"token","type":"address","internalType":"address"},{"name":"amount","type":"uint256","internalType":"uint256"}],"outputs":[],"stateMutability":"nonpayable"},{"type":"function","name":"authorizedContracts","inputs":[{"name":"","type":"address","internalType":"address"}],"outputs":[{"name":"","type":"bool","internalType":"bool"}],"stateMutability":"view"},{"type":"function","name":"canLiquidate","inputs":[{"name":"user","type":"address","internalType":"address"}],"outputs":[{"name":"","type":"bool","internalType":"bool"}],"stateMutability":"view"},{"type":"function","name":"canLiquidateToken","inputs":[{"name":"user","type":"address","internalType":"address"},{"name":"token","type":"address","internalType":"address"}],"outputs":[{"name":"","type":"bool","internalType":"bool"}],"stateMutability":"view"},{"type":"function","name":"canOpenPosition","inputs":[{"name":"user","type":"address","internalType":"address"},{"name":"isLong","type":"bool","internalType":"bool"},{"name":"size","type":"uint256","internalType":"uint256"},{"name":"leverage","type":"uint256","internalType":"uint256"}],"outputs":[{"name":"isValid","type":"bool","internalType":"bool"},{"name":"reason","type":"string","internalType":"string"}],"stateMutability":"view"},{"type":"function","name":"closeFeeRate","inputs":[],"outputs":[{"name":"","type":"uint256","internalType":"uint256"}],"stateMutability":"view"},{"type":"function","name":"closePosition","inputs":[],"outputs":[],"stateMutability":"nonpayable"},{"type":"function","name":"closePositionPartial","inputs":[{"name":"percentage","type":"uint256","internalType":"uint256"}],"outputs":[],"stateMutability":"nonpayable"},{"type":"function","name":"closePositionPartialToken","inputs":[{"name":"token","type":"address","internalType":"address"},{"name":"percentage","type":"uint256","internalType":"uint256"}],"outputs":[],"stateMutability":"nonpayable"},{"type":"function","name":"closePositionToken","inputs":[{"name":"token","type":"address","internalType":"address"}],"outputs":[],"stateMutability":"nonpayable"},{"type":"function","name":"crossMarginBalances","inputs":[{"name":"","type":"address","internalType":"address"}],"outputs":[{"name":"","type":"uint256","internalType":"uint256"}],"stateMutability":"view"},{"type":"function","name":"defaultMarginMode","inputs":[{"name":"","type":"address","internalType":"address"}],"outputs":[{"name":"","type":"uint8","internalType":"enum IPositionManager.MarginMode"}],"stateMutability":"view"},{"type":"function","name":"defaultToken","inputs":[],"outputs":[{"name":"","type":"address","internalType":"address"}],"stateMutability":"view"},{"type":"function","name":"feeReceiver","inputs":[],"outputs":[{"name":"","type":"address","internalType":"address"}],"stateMutability":"view"},{"type":"function","name":"forceClose","inputs":[{"name":"user","type":"address","internalType":"address"}],"outputs":[],"stateMutability":"nonpayable"},{"type":"function","name":"forceCloseToken","inputs":[{"name":"user","type":"address","internalType":"address"},{"name":"token","type":"address","internalType":"address"}],"outputs":[],"stateMutability":"nonpayable"},{"type":"function","name":"forceReduce","inputs":[{"name":"user","type":"address","internalType":"address"},{"name":"percentage","type":"uint256","internalType":"uint256"}],"outputs":[],"stateMutability":"nonpayable"},{"type":"function","name":"forceReduceToken","inputs":[{"name":"user","type":"address","internalType":"address"},{"name":"token","type":"address","internalType":"address"},{"name":"percentage","type":"uint256","internalType":"uint256"}],"outputs":[],"stateMutability":"nonpayable"},{"type":"function","name":"fundingRate","inputs":[],"outputs":[{"name":"","type":"address","internalType":"contract IFundingRate"}],"stateMutability":"view"},{"type":"function","name":"getCrossMarginBalance","inputs":[{"name":"user","type":"address","internalType":"address"}],"outputs":[{"name":"","type":"uint256","internalType":"uint256"}],"stateMutability":"view"},{"type":"function","name":"getCrossMarginEquity","inputs":[{"name":"user","type":"address","internalType":"address"}],"outputs":[{"name":"","type":"int256","internalType":"int256"}],"stateMutability":"view"},{"type":"function","name":"getLiquidationPrice","inputs":[{"name":"user","type":"address","internalType":"address"}],"outputs":[{"name":"","type":"uint256","internalType":"uint256"}],"stateMutability":"view"},{"type":"function","name":"getMarginRatio","inputs":[{"name":"user","type":"address","internalType":"address"}],"outputs":[{"name":"","type":"uint256","internalType":"uint256"}],"stateMutability":"view"},{"type":"function","name":"getPosition","inputs":[{"name":"user","type":"address","internalType":"address"}],"outputs":[{"name":"","type":"tuple","internalType":"struct IPositionManager.Position","components":[{"name":"isLong","type":"bool","internalType":"bool"},{"name":"size","type":"uint256","internalType":"uint256"},{"name":"collateral","type":"uint256","internalType":"uint256"},{"name":"entryPrice","type":"uint256","internalType":"uint256"},{"name":"leverage","type":"uint256","internalType":"uint256"},{"name":"lastFundingTime","type":"uint256","internalType":"uint256"},{"name":"accFundingFee","type":"int256","internalType":"int256"}]}],"stateMutability":"view"},{"type":"function","name":"getPositionByToken","inputs":[{"name":"user","type":"address","internalType":"address"},{"name":"token","type":"address","internalType":"address"}],"outputs":[{"name":"","type":"tuple","internalType":"struct IPositionManager.PositionEx","components":[{"name":"token","type":"address","internalType":"address"},{"name":"isLong","type":"bool","internalType":"bool"},{"name":"size","type":"uint256","internalType":"uint256"},{"name":"collateral","type":"uint256","internalType":"uint256"},{"name":"entryPrice","type":"uint256","internalType":"uint256"},{"name":"leverage","type":"uint256","internalType":"uint256"},{"name":"lastFundingTime","type":"uint256","internalType":"uint256"},{"name":"accFundingFee","type":"int256","internalType":"int256"},{"name":"marginMode","type":"uint8","internalType":"enum IPositionManager.MarginMode"}]}],"stateMutability":"view"},{"type":"function","name":"getTokenLiquidationPrice","inputs":[{"name":"user","type":"address","internalType":"address"},{"name":"token","type":"address","internalType":"address"}],"outputs":[{"name":"","type":"uint256","internalType":"uint256"}],"stateMutability":"view"},{"type":"function","name":"getTokenMarginRatio","inputs":[{"name":"user","type":"address","internalType":"address"},{"name":"token","type":"address","internalType":"address"}],"outputs":[{"name":"","type":"uint256","internalType":"uint256"}],"stateMutability":"view"},{"type":"function","name":"getTokenTotalLongSize","inputs":[{"name":"token","type":"address","internalType":"address"}],"outputs":[{"name":"","type":"uint256","internalType":"uint256"}],"stateMutability":"view"},{"type":"function","name":"getTokenTotalShortSize","inputs":[{"name":"token","type":"address","internalType":"address"}],"outputs":[{"name":"","type":"uint256","internalType":"uint256"}],"stateMutability":"view"},{"type":"function","name":"getTokenUnrealizedPnL","inputs":[{"name":"user","type":"address","internalType":"address"},{"name":"token","type":"address","internalType":"address"}],"outputs":[{"name":"","type":"int256","internalType":"int256"}],"stateMutability":"view"},{"type":"function","name":"getTotalLongSize","inputs":[],"outputs":[{"name":"","type":"uint256","internalType":"uint256"}],"stateMutability":"view"},{"type":"function","name":"getTotalShortSize","inputs":[],"outputs":[{"name":"","type":"uint256","internalType":"uint256"}],"stateMutability":"view"},{"type":"function","name":"getUnrealizedPnL","inputs":[{"name":"user","type":"address","internalType":"address"}],"outputs":[{"name":"","type":"int256","internalType":"int256"}],"stateMutability":"view"},{"type":"function","name":"getUserTokens","inputs":[{"name":"user","type":"address","internalType":"address"}],"outputs":[{"name":"","type":"address[]","internalType":"address[]"}],"stateMutability":"view"},{"type":"function","name":"liquidation","inputs":[],"outputs":[{"name":"","type":"address","internalType":"contract ILiquidation"}],"stateMutability":"view"},{"type":"function","name":"migrationMode","inputs":[],"outputs":[{"name":"","type":"bool","internalType":"bool"}],"stateMutability":"view"},{"type":"function","name":"openFeeRate","inputs":[],"outputs":[{"name":"","type":"uint256","internalType":"uint256"}],"stateMutability":"view"},{"type":"function","name":"openLong","inputs":[{"name":"size","type":"uint256","internalType":"uint256"},{"name":"leverage","type":"uint256","internalType":"uint256"}],"outputs":[],"stateMutability":"nonpayable"},{"type":"function","name":"openLongToken","inputs":[{"name":"token","type":"address","internalType":"address"},{"name":"size","type":"uint256","internalType":"uint256"},{"name":"leverage","type":"uint256","internalType":"uint256"},{"name":"mode","type":"uint8","internalType":"enum IPositionManager.MarginMode"}],"outputs":[],"stateMutability":"nonpayable"},{"type":"function","name":"openShort","inputs":[{"name":"size","type":"uint256","internalType":"uint256"},{"name":"leverage","type":"uint256","internalType":"uint256"}],"outputs":[],"stateMutability":"nonpayable"},{"type":"function","name":"openShortToken","inputs":[{"name":"token","type":"address","internalType":"address"},{"name":"size","type":"uint256","internalType":"uint256"},{"name":"leverage","type":"uint256","internalType":"uint256"},{"name":"mode","type":"uint8","internalType":"enum IPositionManager.MarginMode"}],"outputs":[],"stateMutability":"nonpayable"},{"type":"function","name":"owner","inputs":[],"outputs":[{"name":"","type":"address","internalType":"address"}],"stateMutability":"view"},{"type":"function","name":"priceFeed","inputs":[],"outputs":[{"name":"","type":"address","internalType":"contract IPriceFeed"}],"stateMutability":"view"},{"type":"function","name":"removeCollateral","inputs":[{"name":"amount","type":"uint256","internalType":"uint256"}],"outputs":[],"stateMutability":"nonpayable"},{"type":"function","name":"removeCollateralToken","inputs":[{"name":"token","type":"address","internalType":"address"},{"name":"amount","type":"uint256","internalType":"uint256"}],"outputs":[],"stateMutability":"nonpayable"},{"type":"function","name":"renounceOwnership","inputs":[],"outputs":[],"stateMutability":"nonpayable"},{"type":"function","name":"rescueSettleProfit","inputs":[{"name":"user","type":"address","internalType":"address"},{"name":"collateral","type":"uint256","internalType":"uint256"},{"name":"profit","type":"uint256","internalType":"uint256"}],"outputs":[],"stateMutability":"nonpayable"},{"type":"function","name":"rescueUnlockMargin","inputs":[{"name":"user","type":"address","internalType":"address"},{"name":"amount","type":"uint256","internalType":"uint256"}],"outputs":[],"stateMutability":"nonpayable"},{"type":"function","name":"riskManager","inputs":[],"outputs":[{"name":"","type":"address","internalType":"contract IRiskManager"}],"stateMutability":"view"},{"type":"function","name":"setAuthorizedContract","inputs":[{"name":"contractAddr","type":"address","internalType":"address"},{"name":"authorized","type":"bool","internalType":"bool"}],"outputs":[],"stateMutability":"nonpayable"},{"type":"function","name":"setCrossMarginBalance","inputs":[{"name":"user","type":"address","internalType":"address"},{"name":"amount","type":"uint256","internalType":"uint256"}],"outputs":[],"stateMutability":"nonpayable"},{"type":"function","name":"setDefaultMarginMode","inputs":[{"name":"mode","type":"uint8","internalType":"enum IPositionManager.MarginMode"}],"outputs":[],"stateMutability":"nonpayable"},{"type":"function","name":"setDefaultToken","inputs":[{"name":"token","type":"address","internalType":"address"}],"outputs":[],"stateMutability":"nonpayable"},{"type":"function","name":"setFeeRates","inputs":[{"name":"_openFee","type":"uint256","internalType":"uint256"},{"name":"_closeFee","type":"uint256","internalType":"uint256"}],"outputs":[],"stateMutability":"nonpayable"},{"type":"function","name":"setFeeReceiver","inputs":[{"name":"_feeReceiver","type":"address","internalType":"address"}],"outputs":[],"stateMutability":"nonpayable"},{"type":"function","name":"setFundingRate","inputs":[{"name":"_fundingRate","type":"address","internalType":"address"}],"outputs":[],"stateMutability":"nonpayable"},{"type":"function","name":"setLiquidation","inputs":[{"name":"_liquidation","type":"address","internalType":"address"}],"outputs":[],"stateMutability":"nonpayable"},{"type":"function","name":"setMigrationMode","inputs":[{"name":"enabled","type":"bool","internalType":"bool"}],"outputs":[],"stateMutability":"nonpayable"},{"type":"function","name":"setTokenFactory","inputs":[{"name":"_tokenFactory","type":"address","internalType":"address"}],"outputs":[],"stateMutability":"nonpayable"},{"type":"function","name":"tokenFactory","inputs":[],"outputs":[{"name":"","type":"address","internalType":"address"}],"stateMutability":"view"},{"type":"function","name":"tokenTotalLongSize","inputs":[{"name":"","type":"address","internalType":"address"}],"outputs":[{"name":"","type":"uint256","internalType":"uint256"}],"stateMutability":"view"},{"type":"function","name":"tokenTotalShortSize","inputs":[{"name":"","type":"address","internalType":"address"}],"outputs":[{"name":"","type":"uint256","internalType":"uint256"}],"stateMutability":"view"},{"type":"function","name":"totalLongSize","inputs":[],"outputs":[{"name":"","type":"uint256","internalType":"uint256"}],"stateMutability":"view"},{"type":"function","name":"totalShortSize","inputs":[],"outputs":[{"name":"","type":"uint256","internalType":"uint256"}],"stateMutability":"view"},{"type":"function","name":"transferOwnership","inputs":[{"name":"newOwner","type":"address","internalType":"address"}],"outputs":[],"stateMutability":"nonpayable"},{"type":"function","name":"vault","inputs":[],"outputs":[{"name":"","type":"address","internalType":"contract IVault"}],"stateMutability":"view"},{"type":"function","name":"withdrawCrossMargin","inputs":[{"name":"amount","type":"uint256","internalType":"uint256"}],"outputs":[],"stateMutability":"nonpayable"},{"type":"event","name":"CollateralAdded","inputs":[{"name":"user","type":"address","indexed":true,"internalType":"address"},{"name":"amount","type":"uint256","indexed":false,"internalType":"uint256"}],"anonymous":false},{"type":"event","name":"CollateralRemoved","inputs":[{"name":"user","type":"address","indexed":true,"internalType":"address"},{"name":"amount","type":"uint256","indexed":false,"internalType":"uint256"}],"anonymous":false},{"type":"event","name":"CrossMarginDeposited","inputs":[{"name":"user","type":"address","indexed":true,"internalType":"address"},{"name":"amount","type":"uint256","indexed":false,"internalType":"uint256"}],"anonymous":false},{"type":"event","name":"CrossMarginWithdrawn","inputs":[{"name":"user","type":"address","indexed":true,"internalType":"address"},{"name":"amount","type":"uint256","indexed":false,"internalType":"uint256"}],"anonymous":false},{"type":"event","name":"DefaultMarginModeSet","inputs":[{"name":"user","type":"address","indexed":true,"internalType":"address"},{"name":"mode","type":"uint8","indexed":false,"internalType":"enum IPositionManager.MarginMode"}],"anonymous":false},{"type":"event","name":"DefaultTokenSet","inputs":[{"name":"token","type":"address","indexed":true,"internalType":"address"}],"anonymous":false},{"type":"event","name":"FeeRatesUpdated","inputs":[{"name":"openFee","type":"uint256","indexed":false,"internalType":"uint256"},{"name":"closeFee","type":"uint256","indexed":false,"internalType":"uint256"}],"anonymous":false},{"type":"event","name":"FeeReceiverUpdated","inputs":[{"name":"oldReceiver","type":"address","indexed":true,"internalType":"address"},{"name":"newReceiver","type":"address","indexed":true,"internalType":"address"}],"anonymous":false},{"type":"event","name":"MigrationModeSet","inputs":[{"name":"enabled","type":"bool","indexed":false,"internalType":"bool"}],"anonymous":false},{"type":"event","name":"OwnershipTransferred","inputs":[{"name":"previousOwner","type":"address","indexed":true,"internalType":"address"},{"name":"newOwner","type":"address","indexed":true,"internalType":"address"}],"anonymous":false},{"type":"event","name":"PerpFeeDistributed","inputs":[{"name":"token","type":"address","indexed":true,"internalType":"address"},{"name":"user","type":"address","indexed":true,"internalType":"address"},{"name":"totalFee","type":"uint256","indexed":false,"internalType":"uint256"},{"name":"toCreator","type":"uint256","indexed":false,"internalType":"uint256"},{"name":"toReferrer","type":"uint256","indexed":false,"internalType":"uint256"},{"name":"toPlatform","type":"uint256","indexed":false,"internalType":"uint256"}],"anonymous":false},{"type":"event","name":"PnLSettled","inputs":[{"name":"user","type":"address","indexed":true,"internalType":"address"},{"name":"pnl","type":"int256","indexed":false,"internalType":"int256"},{"name":"collateral","type":"uint256","indexed":false,"internalType":"uint256"}],"anonymous":false},{"type":"event","name":"PositionClosed","inputs":[{"name":"user","type":"address","indexed":true,"internalType":"address"},{"name":"isLong","type":"bool","indexed":false,"internalType":"bool"},{"name":"size","type":"uint256","indexed":false,"internalType":"uint256"},{"name":"entryPrice","type":"uint256","indexed":false,"internalType":"uint256"},{"name":"exitPrice","type":"uint256","indexed":false,"internalType":"uint256"},{"name":"pnl","type":"int256","indexed":false,"internalType":"int256"},{"name":"fee","type":"uint256","indexed":false,"internalType":"uint256"}],"anonymous":false},{"type":"event","name":"PositionModified","inputs":[{"name":"user","type":"address","indexed":true,"internalType":"address"},{"name":"newCollateral","type":"uint256","indexed":false,"internalType":"uint256"},{"name":"newSize","type":"uint256","indexed":false,"internalType":"uint256"},{"name":"newLeverage","type":"uint256","indexed":false,"internalType":"uint256"}],"anonymous":false},{"type":"event","name":"PositionOpened","inputs":[{"name":"user","type":"address","indexed":true,"internalType":"address"},{"name":"isLong","type":"bool","indexed":false,"internalType":"bool"},{"name":"size","type":"uint256","indexed":false,"internalType":"uint256"},{"name":"collateral","type":"uint256","indexed":false,"internalType":"uint256"},{"name":"leverage","type":"uint256","indexed":false,"internalType":"uint256"},{"name":"entryPrice","type":"uint256","indexed":false,"internalType":"uint256"},{"name":"fee","type":"uint256","indexed":false,"internalType":"uint256"}],"anonymous":false},{"type":"event","name":"TokenFactorySet","inputs":[{"name":"tokenFactory","type":"address","indexed":true,"internalType":"address"}],"anonymous":false},{"type":"event","name":"TokenPositionClosed","inputs":[{"name":"user","type":"address","indexed":true,"internalType":"address"},{"name":"token","type":"address","indexed":true,"internalType":"address"},{"name":"closeSize","type":"uint256","indexed":false,"internalType":"uint256"},{"name":"pnl","type":"int256","indexed":false,"internalType":"int256"}],"anonymous":false},{"type":"event","name":"TokenPositionOpened","inputs":[{"name":"user","type":"address","indexed":true,"internalType":"address"},{"name":"token","type":"address","indexed":true,"internalType":"address"},{"name":"isLong","type":"bool","indexed":false,"internalType":"bool"},{"name":"size","type":"uint256","indexed":false,"internalType":"uint256"},{"name":"entryPrice","type":"uint256","indexed":false,"internalType":"uint256"}],"anonymous":false},{"type":"error","name":"CannotRemoveCollateral","inputs":[]},{"type":"error","name":"InsufficientCollateral","inputs":[]},{"type":"error","name":"InsufficientCrossMargin","inputs":[]},{"type":"error","name":"InsufficientMargin","inputs":[]},{"type":"error","name":"InvalidLeverage","inputs":[]},{"type":"error","name":"InvalidMarginMode","inputs":[]},{"type":"error","name":"InvalidSize","inputs":[]},{"type":"error","name":"MigrationModeActive","inputs":[]},{"type":"error","name":"OwnableInvalidOwner","inputs":[{"name":"owner","type":"address","internalType":"address"}]},{"type":"error","name":"OwnableUnauthorizedAccount","inputs":[{"name":"account","type":"address","internalType":"address"}]},{"type":"error","name":"PositionAlreadyExists","inputs":[]},{"type":"error","name":"PositionNotFound","inputs":[]},{"type":"error","name":"ReentrancyGuardReentrantCall","inputs":[]},{"type":"error","name":"TokenNotSupported","inputs":[]},{"type":"error","name":"Unauthorized","inputs":[]},{"type":"error","name":"ValidationFailed","inputs":[{"name":"reason","type":"string","internalType":"string"}]},{"type":"error","name":"ZeroAddress","inputs":[]}],"bytecode":{"object":"0x60806040526008600f5560036010553480156200001a575f80fd5b5060405162005891380380620058918339810160408190526200003d916200019e565b33806200006357604051631e4fbdf760e01b81525f600482015260240160405180910390fd5b6200006e8162000133565b5060017f9b779b17422d0df92223018b32b4d1fa46e071723d6817e2486d003becc55f00556001600160a01b0383161580620000b157506001600160a01b038216155b80620000c457506001600160a01b038116155b15620000e35760405163d92e233d60e01b815260040160405180910390fd5b600180546001600160a01b039485166001600160a01b03199182161790915560028054938516938216939093179092556003805491909316908216179091556011805490911633179055620001e5565b5f80546001600160a01b038381166001600160a01b0319831681178455604051919092169283917f8be0079c531659141344cd1fd0a4f28419497f9722a3daafe3b4186f6b6457e09190a35050565b80516001600160a01b038116811462000199575f80fd5b919050565b5f805f60608486031215620001b1575f80fd5b620001bc8462000182565b9250620001cc6020850162000182565b9150620001dc6040850162000182565b90509250925092565b61569e80620001f35f395ff3fe608060405234801561000f575f80fd5b5060043610610341575f3560e01c8063013c0b121461034557806310a6eff71461036b57806310ffb3421461037e57806311dd2fa41461039d5780631266a619146103c55780631590320d146103da57806316c19739146103ed57806317693e8c1461045757806317d8de821461046a578063242648271461047d5780632ceab8671461049c5780632f73a9f8146104a55780632fb36b0b146104b85780633237c158146104c15780633f8a01f2146104d457806341d3c84c146104e757806345cf7a52146105075780634784266314610526578063519dc8d214610539578063544305bf1461055957806354f4ac871461056c57806355522a671461057f57806357aea035146105925780635bf804af146105a55780635d3cde15146105ae5780635dd50bf9146105c1578063617b93ec146105d45780636dd87e87146105e7578063715018a6146105fa578063741bef1a1461060257806374c13fda146106155780637a01e2bd14610628578063849b2f501461064c578063870946dd1461065f5780638c56444d146106875780638da5cb5b1461069a5780638da793b2146106a257806391f454b9146106ab5780639c5a6079146106cb578063a29eda91146106de578063a8f1fca4146106e7578063aaf5eb6814610716578063ab919ee314610725578063b3f0067414610738578063b606e6631461074b578063b96684821461075e578063b9f4ff5514610771578063bcc46e8314610784578063bf6268f214610797578063bf8bfb94146107a0578063c181d418146107b3578063c29d6c9a146107c6578063c393d0e3146107ee578063c81c928e146107f6578063cafb909e14610809578063cb47a60b1461082a578063cfa0a1f214610832578063d01d3ddc14610845578063d5b9221b1461084e578063d6ae57c714610870578063dad665b714610883578063e1e32f991461088c578063e74131271461089f578063e77772fe146108a7578063efdcd974146108ba578063f2dfbf66146108cd578063f2fa7392146108e0578063f2fde38b146108f3578063f3e27c4f14610906578063f635115b14610919578063f757a6081461092c578063fbfa77cf1461093f578063feaca58314610952575b5f80fd5b610358610353366004614e5d565b610965565b6040519081526020015b60405180910390f35b610358610379366004614e5d565b610b05565b61035861038c366004614e94565b600d6020525f908152604090205481565b6103586103ab366004614e94565b6001600160a01b03165f908152600b602052604090205490565b6103d86103d3366004614eaf565b610c10565b005b6103d86103e8366004614ecf565b610c30565b6104006103fb366004614e94565b610ca3565b60405161036291905f60e0820190508251151582526020830151602083015260408301516040830152606083015160608301526080830151608083015260a083015160a083015260c083015160c083015292915050565b6103d8610465366004614f1a565b610d4b565b610358610478366004614e94565b610dab565b61035861048b366004614e94565b600b6020525f908152604090205481565b610358611b5881565b6103d86104b3366004614e94565b610f56565b61035860105481565b6103d86104cf366004614f35565b610fce565b6103d86104e2366004614f5f565b6112f4565b6004546104fa906001600160a01b031681565b6040516103629190614fa4565b610358610515366004614e94565b600c6020525f908152604090205481565b6003546104fa906001600160a01b031681565b61054c610547366004614e94565b611318565b6040516103629190614fb8565b610358610567366004614e94565b61138b565b61035861057a366004614e94565b611434565b61035861058d366004614e5d565b611515565b6103586105a0366004614e94565b6115d3565b61035860075481565b6103d86105bc366004614f35565b611762565b6103d86105cf366004615004565b611951565b6103d86105e2366004615036565b6119bf565b6103d86105f5366004615036565b6119fe565b6103d8611a4b565b6002546104fa906001600160a01b031681565b6014546104fa906001600160a01b031681565b60145461063c90600160a01b900460ff1681565b6040519015158152602001610362565b6103d861065a366004615036565b611a5e565b61035861066d366004614e94565b6001600160a01b03165f908152600d602052604090205490565b61063c610695366004614e5d565b611ac9565b6104fa611ca5565b61035861271081565b6106be6106b9366004614e5d565b611cb3565b6040516103629190615094565b6103d86106d9366004614f35565b611d72565b610358600f5481565b6107096106f5366004614e94565b600e6020525f908152604090205460ff1681565b604051610362919061510b565b610358670de0b6b3a764000081565b6103d8610733366004614e94565b611db8565b6011546104fa906001600160a01b031681565b6103d8610759366004615036565b611e09565b6103d861076c366004614e94565b611e6d565b61063c61077f366004614e94565b611ebe565b6103d8610792366004614f35565b61202a565b61035860085481565b6103d86107ae366004614f5f565b61215a565b6103d86107c1366004614eaf565b612171565b6103586107d4366004614e94565b6001600160a01b03165f908152600c602052604090205490565b6103d8612186565b6103d8610804366004615119565b6121a1565b61081c610817366004615132565b612214565b6040516103629291906151c2565b600854610358565b6103d8610840366004615036565b61229d565b6103586107d081565b61063c61085c366004614e94565b60136020525f908152604090205460ff1681565b6103d861087e366004614e94565b6126cb565b6103586103e881565b6103d861089a366004614e94565b612704565b600754610358565b6012546104fa906001600160a01b031681565b6103d86108c8366004614e94565b612808565b6005546104fa906001600160a01b031681565b6103d86108ee3660046151dc565b612892565b6103d8610901366004614e94565b6128eb565b6103d8610914366004615036565b612925565b6103d8610927366004614e5d565b612b06565b6103d861093a366004614e94565b612b40565b6001546104fa906001600160a01b031681565b6103d8610960366004614eaf565b612b54565b6001600160a01b038083165f90815260096020908152604080832093851683529290529081206001810154820361099f575f915050610aff565b80600301545f036109b3575f915050610aff565b6003546004828101546040516305ad00ff60e01b8152918201525f916001600160a01b0316906305ad00ff90602401602060405180830381865afa1580156109fd573d5f803e3d5ffd5b505050506040513d601f19601f82011682018060405250810190610a219190615208565b90505f8260040154612710670de0b6b3a7640000610a3f9190615233565b610a49919061525e565b8354909150600160a01b900460ff1615610ac6575f82610a7183670de0b6b3a7640000615271565b610a7b9190615284565b9050670de0b6b3a76400008110610a98575f945050505050610aff565b670de0b6b3a7640000818560030154610ab19190615233565b610abb919061525e565b945050505050610aff565b5f82610ada83670de0b6b3a7640000615284565b610ae49190615271565b9050670de0b6b3a7640000818560030154610ab19190615233565b92915050565b6001600160a01b038083165f908152600960209081526040808320938516835292905290812060018101548203610b40575f19915050610aff565b60025460405163b93fb64160e01b81525f916001600160a01b03169063b93fb64190610b70908790600401614fa4565b602060405180830381865afa158015610b8b573d5f803e3d5ffd5b505050506040513d601f19601f82011682018060405250810190610baf9190615208565b90505f610bbc8383612bf1565b90505f818460020154610bcf9190615297565b90505f8113610be4575f945050505050610aff565b6001840154610bfb670de0b6b3a764000083615233565b610c05919061525e565b979650505050505050565b610c18612c1d565b610c24335f8484612c38565b610c2c6130dc565b5050565b335f9081526013602052604090205460ff16610c5e576040516282b42960e81b815260040160405180910390fd5b5f81118015610c6e575060648111155b610c935760405162461bcd60e51b8152600401610c8a906152b6565b60405180910390fd5b610c9e8383836130e9565b505050565b610cde6040518060e001604052805f151581526020015f81526020015f81526020015f81526020015f81526020015f81526020015f81525090565b506001600160a01b03165f90815260066020818152604092839020835160e081018552815460ff16151581526001820154928101929092526002810154938201939093526003830154606082015260048301546080820152600583015460a082015291015460c082015290565b610d536133e8565b60148054821515600160a01b0260ff60a01b199091161790556040517fee9b45ae72fdeb8291c89f0c9a3e39ec449829f329abb1ef06f04c291b15a0f690610da090831515815260200190565b60405180910390a150565b6001600160a01b0381165f90815260066020526040812060018101548203610dd557505f92915050565b80600301545f03610de857505f92915050565b6003546004828101546040516305ad00ff60e01b8152918201525f916001600160a01b0316906305ad00ff90602401602060405180830381865afa158015610e32573d5f803e3d5ffd5b505050506040513d601f19601f82011682018060405250810190610e569190615208565b90505f8260040154612710670de0b6b3a7640000610e749190615233565b610e7e919061525e565b835490915060ff1615610ef2575f82610e9f83670de0b6b3a7640000615271565b610ea99190615284565b9050670de0b6b3a76400008110610ec557505f95945050505050565b670de0b6b3a7640000818560030154610ede9190615233565b610ee8919061525e565b9695505050505050565b5f818310610f1e5782610f0d83670de0b6b3a7640000615284565b610f179190615271565b9050610ec5565b82610f3183670de0b6b3a7640000615284565b610f3b9190615271565b9050670de0b6b3a7640000818560030154610ede9190615233565b610f5e6133e8565b6001600160a01b038116610f855760405163d92e233d60e01b815260040160405180910390fd5b601280546001600160a01b0319166001600160a01b0383169081179091556040517fcf4be1c851767114c1f4b298dc84eab48d103473908393f6d408c82ba7cda0e8905f90a250565b610fd6612c1d565b335f908152600660205260408120600181015490910361100957604051636ec9be1160e01b815260040160405180910390fd5b5f82826002015461101a9190615271565b90505f8161271084600101546110309190615233565b61103a919061525e565b90505f60035f9054906101000a90046001600160a01b03166001600160a01b0316630ea8b3bf6040518163ffffffff1660e01b8152600401602060405180830381865afa15801561108d573d5f803e3d5ffd5b505050506040513d601f19601f820116820180604052508101906110b19190615208565b9050808211156110d45760405163655bed2f60e11b815260040160405180910390fd5b6003546040516305ad00ff60e01b8152600481018490525f916001600160a01b0316906305ad00ff90602401602060405180830381865afa15801561111b573d5f803e3d5ffd5b505050506040513d601f19601f8201168201806040525081019061113f9190615208565b90505f60025f9054906101000a90046001600160a01b03166001600160a01b031663604096326040518163ffffffff1660e01b8152600401602060405180830381865afa158015611192573d5f803e3d5ffd5b505050506040513d601f19601f820116820180604052508101906111b69190615208565b90505f6111c3878361341a565b90505f6111d08288615297565b9050670de0b6b3a76400008489600101546111eb9190615233565b6111f5919061525e565b8112156112155760405163655bed2f60e11b815260040160405180910390fd5b600288018790556004808901879055600154604051630bd1560360e21b81526001600160a01b0390911691632f45580c916112549133918e91016152e2565b5f604051808303815f87803b15801561126b575f80fd5b505af115801561127d573d5f803e3d5ffd5b50506040518b81523392505f80516020615649833981519152915060200160405180910390a2336001600160a01b03165f805160206155c983398151915289600201548a600101548b600401546040516112d9939291906152fb565b60405180910390a250505050505050506112f16130dc565b50565b6112fc612c1d565b61130a33855f868686613438565b6113126130dc565b50505050565b6001600160a01b0381165f908152600a602090815260409182902080548351818402810184019094528084526060939283018282801561137f57602002820191905f5260205f20905b81546001600160a01b03168152600190910190602001808311611361575b50505050509050919050565b6001600160a01b0381165f908152600660205260408120600181015482036113b557505f92915050565b600254604080516330204b1960e11b815290515f926001600160a01b03169163604096329160048083019260209291908290030181865afa1580156113fc573d5f803e3d5ffd5b505050506040513d601f19601f820116820180604052508101906114209190615208565b905061142c828261341a565b949350505050565b6001600160a01b0381165f9081526006602052604081206001810154820361145f57505f1992915050565b600254604080516330204b1960e11b815290515f926001600160a01b03169163604096329160048083019260209291908290030181865afa1580156114a6573d5f803e3d5ffd5b505050506040513d601f19601f820116820180604052508101906114ca9190615208565b90505f6114d7838361341a565b90505f8184600201546114ea9190615297565b90505f81136114fe57505f95945050505050565b6001840154610ede670de0b6b3a764000083615233565b6001600160a01b038083165f90815260096020908152604080832093851683529290529081206001810154820361154f575f915050610aff565b60025460405163b93fb64160e01b81525f916001600160a01b03169063b93fb6419061157f908790600401614fa4565b602060405180830381865afa15801561159a573d5f803e3d5ffd5b505050506040513d601f19601f820116820180604052508101906115be9190615208565b90506115ca8282612bf1565b95945050505050565b6001600160a01b0381165f908152600d6020908152604080832054600a9092528220825b8154811015611759576001600160a01b0385165f9081526009602052604081208354829085908590811061162d5761162d615311565b5f9182526020808320909101546001600160a01b03168352820192909252604001902060018101549091501580159061167e57506001600782015460ff16600181111561167c5761167c615060565b145b156117505760025483545f916001600160a01b03169063b93fb641908690869081106116ac576116ac615311565b5f918252602090912001546040516001600160e01b031960e084901b1681526116e1916001600160a01b031690600401614fa4565b602060405180830381865afa1580156116fc573d5f803e3d5ffd5b505050506040513d601f19601f820116820180604052508101906117209190615208565b90505f61172d8383612bf1565b90506117398187615297565b955082600201548661174b9190615297565b955050505b506001016115f7565b50909392505050565b61176a612c1d565b5f81116117ae5760405162461bcd60e51b81526020600482015260126024820152710416d6f756e74206d757374206265203e20360741b6044820152606401610c8a565b335f908152600d60205260409020548111156118165760405162461bcd60e51b815260206004820152602160248201527f496e73756666696369656e742063726f7373206d617267696e2062616c616e636044820152606560f81b6064820152608401610c8a565b5f6118203361371e565b335f908152600d6020526040902054909150819061183f908490615271565b10156118a35760405162461bcd60e51b815260206004820152602d60248201527f576f756c64206c6561766520696e73756666696369656e74206d617267696e2060448201526c666f7220706f736974696f6e7360981b6064820152608401610c8a565b335f908152600d6020526040812080548492906118c1908490615271565b9091555050600154604051630bd1560360e21b81526001600160a01b0390911690632f45580c906118f890339086906004016152e2565b5f604051808303815f87803b15801561190f575f80fd5b505af1158015611921573d5f803e3d5ffd5b50506040518481523392505f805160206155e983398151915291506020015b60405180910390a2506112f16130dc565b6119596133e8565b6001546040516378ba750560e11b81526001600160a01b039091169063f174ea0a9061198d90869086908690600401615325565b5f604051808303815f87803b1580156119a4575f80fd5b505af11580156119b6573d5f803e3d5ffd5b50505050505050565b6119c7612c1d565b5f811180156119d7575060648111155b6119f35760405162461bcd60e51b8152600401610c8a906152b6565b610c243383836130e9565b611a066133e8565b6001600160a01b0382165f818152600d602052604090819020839055515f8051602061560983398151915290611a3f9084815260200190565b60405180910390a25050565b611a536133e8565b611a5c5f6137f9565b565b611a666133e8565b600154604051630bd1560360e21b81526001600160a01b0390911690632f45580c90611a9890859085906004016152e2565b5f604051808303815f87803b158015611aaf575f80fd5b505af1158015611ac1573d5f803e3d5ffd5b505050505050565b6001600160a01b038083165f908152600960209081526040808320938516835292905290812060018101548203611b03575f915050610aff565b60025460405163b93fb64160e01b81525f916001600160a01b03169063b93fb64190611b33908790600401614fa4565b602060405180830381865afa158015611b4e573d5f803e3d5ffd5b505050506040513d601f19601f82011682018060405250810190611b729190615208565b90505f611b7f8383612bf1565b90506001600784015460ff166001811115611b9c57611b9c615060565b03611bda575f611bab876115d3565b90505f8113611bc1576001945050505050610aff565b5f611bcb88613848565b9091129450610aff9350505050565b5f818460020154611beb9190615297565b90505f8113611c01576001945050505050610aff565b6003546004858101546040516305ad00ff60e01b8152918201525f916001600160a01b0316906305ad00ff90602401602060405180830381865afa158015611c4b573d5f803e3d5ffd5b505050506040513d601f19601f82011682018060405250810190611c6f9190615208565b90505f670de0b6b3a7640000828760010154611c8b9190615233565b611c95919061525e565b9092109550610aff945050505050565b5f546001600160a01b031690565b611cbb614deb565b6001600160a01b038084165f90815260096020908152604080832086851684528252918290208251610120810184528154948516815260ff600160a01b9095048516151592810192909252600180820154938301939093526002810154606083015260038101546080830152600481015460a0830152600581015460c0830152600681015460e08301526007810154909391926101008401929190911690811115611d6857611d68615060565b9052949350505050565b611d7a612c1d565b5f81118015611d8a575060648111155b611da65760405162461bcd60e51b8152600401610c8a906152b6565b611db03382613999565b6112f16130dc565b611dc06133e8565b6001600160a01b038116611de75760405163d92e233d60e01b815260040160405180910390fd5b600580546001600160a01b0319166001600160a01b0392909216919091179055565b335f9081526013602052604090205460ff16611e37576040516282b42960e81b815260040160405180910390fd5b5f81118015611e47575060648111155b611e635760405162461bcd60e51b8152600401610c8a906152b6565b610c2c8282613999565b611e756133e8565b6001600160a01b038116611e9c5760405163d92e233d60e01b815260040160405180910390fd5b600480546001600160a01b0319166001600160a01b0392909216919091179055565b6001600160a01b0381165f90815260066020526040812060018101548203611ee857505f92915050565b600254604080516330204b1960e11b815290515f926001600160a01b03169163604096329160048083019260209291908290030181865afa158015611f2f573d5f803e3d5ffd5b505050506040513d601f19601f82011682018060405250810190611f539190615208565b90505f611f60838361341a565b90505f818460020154611f739190615297565b90505f8113611f885750600195945050505050565b6003546004858101546040516305ad00ff60e01b8152918201525f916001600160a01b0316906305ad00ff90602401602060405180830381865afa158015611fd2573d5f803e3d5ffd5b505050506040513d601f19601f82011682018060405250810190611ff69190615208565b90505f670de0b6b3a76400008287600101546120129190615233565b61201c919061525e565b909210979650505050505050565b612032612c1d565b335f908152600660205260408120600181015490910361206557604051636ec9be1160e01b815260040160405180910390fd5b60015460405163a5bce37960e01b81526001600160a01b039091169063a5bce3799061209790339086906004016152e2565b5f604051808303815f87803b1580156120ae575f80fd5b505af11580156120c0573d5f803e3d5ffd5b5050505081816002015f8282546120d79190615284565b9091555050600281015460018201546120f39061271090615233565b6120fd919061525e565b600482015560405182815233905f805160206156298339815191529060200160405180910390a2336001600160a01b03165f805160206155c9833981519152826002015483600101548460040154604051611940939291906152fb565b612162612c1d565b61130a33856001868686613438565b612179612c1d565b610c243360018484612c38565b61218e612c1d565b612199336064613999565b611a5c6130dc565b335f908152600e60205260409020805482919060ff1916600183818111156121cb576121cb615060565b0217905550336001600160a01b03167f436e853d01e939ba7c0744c1356f8d2d8a7e8b405344fc08079521dcd323d84082604051612209919061510b565b60405180910390a250565b60035460405163ddac9a0b60e01b81525f916060916001600160a01b039091169063ddac9a0b9061224f908990899089908990600401615346565b5f60405180830381865afa158015612269573d5f803e3d5ffd5b505050506040513d5f823e601f3d908101601f191682016040526122909190810190615380565b9150915094509492505050565b6122a5612c1d565b335f9081526009602090815260408083206001600160a01b0386168452909152812060018101549091036122ec57604051636ec9be1160e01b815260040160405180910390fd5b6001600782015460ff16600181111561230757612307615060565b0361242357335f908152600d602052604090205482111561233b576040516317eebae960e31b815260040160405180910390fd5b5f612345336115d3565b905061235033613848565b61235a848361543d565b12156123795760405163655bed2f60e11b815260040160405180910390fd5b335f908152600d602052604081208054859290612397908490615271565b9091555050600154604051630bd1560360e21b81526001600160a01b0390911690632f45580c906123ce90339087906004016152e2565b5f604051808303815f87803b1580156123e5575f80fd5b505af11580156123f7573d5f803e3d5ffd5b50506040518581523392505f805160206155e9833981519152915060200160405180910390a2506126c2565b5f8282600201546124349190615271565b90505f81612710846001015461244a9190615233565b612454919061525e565b90505f60035f9054906101000a90046001600160a01b03166001600160a01b0316630ea8b3bf6040518163ffffffff1660e01b8152600401602060405180830381865afa1580156124a7573d5f803e3d5ffd5b505050506040513d601f19601f820116820180604052508101906124cb9190615208565b9050808211156124ee5760405163655bed2f60e11b815260040160405180910390fd5b6003546040516305ad00ff60e01b8152600481018490525f916001600160a01b0316906305ad00ff90602401602060405180830381865afa158015612535573d5f803e3d5ffd5b505050506040513d601f19601f820116820180604052508101906125599190615208565b60025460405163b93fb64160e01b81529192505f916001600160a01b039091169063b93fb6419061258e908b90600401614fa4565b602060405180830381865afa1580156125a9573d5f803e3d5ffd5b505050506040513d601f19601f820116820180604052508101906125cd9190615208565b90505f6125da8783612bf1565b90505f6125e78288615297565b9050670de0b6b3a76400008489600101546126029190615233565b61260c919061525e565b81121561262c5760405163655bed2f60e11b815260040160405180910390fd5b600288018790556004808901879055600154604051630bd1560360e21b81526001600160a01b0390911691632f45580c9161266b9133918e91016152e2565b5f604051808303815f87803b158015612682575f80fd5b505af1158015612694573d5f803e3d5ffd5b50506040518b81523392505f80516020615649833981519152915060200160405180910390a2505050505050505b50610c2c6130dc565b335f9081526013602052604090205460ff166126f9576040516282b42960e81b815260040160405180910390fd5b6112f1816064613999565b61270c6133e8565b6001600160a01b0381166127335760405163d92e233d60e01b815260040160405180910390fd5b6002546040516375151b6360e01b81526001600160a01b03909116906375151b6390612763908490600401614fa4565b602060405180830381865afa15801561277e573d5f803e3d5ffd5b505050506040513d601f19601f820116820180604052508101906127a29190615463565b6127bf57604051633dd1b30560e01b815260040160405180910390fd5b601480546001600160a01b0319166001600160a01b0383169081179091556040517fa989daebec7a605766e05c9edddd2d5e625244fb799b813d0e1b1dd58301779f905f90a250565b6128106133e8565b6001600160a01b0381166128375760405163d92e233d60e01b815260040160405180910390fd5b6011546040516001600160a01b038084169216907fa92ff4390fe6943f0b30e8fe715dde86f85ab79b2b2c640a10fc094cc4036cc8905f90a3601180546001600160a01b0319166001600160a01b0392909216919091179055565b61289a6133e8565b6001600160a01b0382166128c15760405163d92e233d60e01b815260040160405180910390fd5b6001600160a01b03919091165f908152601360205260409020805460ff1916911515919091179055565b6128f36133e8565b6001600160a01b03811661291c575f604051631e4fbdf760e01b8152600401610c8a9190614fa4565b6112f1816137f9565b61292d612c1d565b335f9081526009602090815260408083206001600160a01b03861684529091528120600181015490910361297457604051636ec9be1160e01b815260040160405180910390fd5b6001600782015460ff16600181111561298f5761298f615060565b03612a3e5760015460405163a5bce37960e01b81526001600160a01b039091169063a5bce379906129c690339086906004016152e2565b5f604051808303815f87803b1580156129dd575f80fd5b505af11580156129ef573d5f803e3d5ffd5b5050335f908152600d602052604081208054869450909250612a12908490615284565b909155505060405182815233905f805160206156098339815191529060200160405180910390a26126c2565b60015460405163a5bce37960e01b81526001600160a01b039091169063a5bce37990612a7090339086906004016152e2565b5f604051808303815f87803b158015612a87575f80fd5b505af1158015612a99573d5f803e3d5ffd5b5050505081816002015f828254612ab09190615284565b909155505060028101546001820154612acc9061271090615233565b612ad6919061525e565b600482015560405182815233905f805160206156298339815191529060200160405180910390a250610c2c6130dc565b335f9081526013602052604090205460ff16612b34576040516282b42960e81b815260040160405180910390fd5b610c2c828260646130e9565b612b48612c1d565b611db0338260646130e9565b612b5c6133e8565b60648211158015612b6e575060648111155b612ba95760405162461bcd60e51b815260206004820152600c60248201526b08ccaca40e8dede40d0d2ced60a31b6044820152606401610c8a565b600f82905560108190556040517f4f672c50736ba0fe8a4825ecfde8bcd931727422a77ac89af44fccce2746e0b390612be5908490849061547e565b60405180910390a15050565b5f612c16835f0160149054906101000a900460ff168460010154856003015485613da9565b9392505050565b612c25613e30565b6002612c35612c32613e56565b90565b55565b601454600160a01b900460ff1615612c635760405163168ea94560e21b815260040160405180910390fd5b6001600160a01b0384165f908152600660205260409020600181015415612c9d57604051630dd1bc8b60e31b815260040160405180910390fd5b60035460405163ddac9a0b60e01b81525f9182916001600160a01b039091169063ddac9a0b90612cd7908a908a908a908a90600401615346565b5f60405180830381865afa158015612cf1573d5f803e3d5ffd5b505050506040513d5f823e601f3d908101601f19168201604052612d189190810190615380565b9150915081612d3c5780604051636ca2857760e11b8152600401610c8a919061548c565b5f84612d4a61271088615233565b612d54919061525e565b90505f612710600f5488612d689190615233565b612d72919061525e565b90505f612d7f8284615284565b60015460405163f8b2cb4f60e01b815291925082916001600160a01b039091169063f8b2cb4f90612db4908e90600401614fa4565b602060405180830381865afa158015612dcf573d5f803e3d5ffd5b505050506040513d601f19601f82011682018060405250810190612df39190615208565b1015612e12576040516341c092a960e01b815260040160405180910390fd5b8115612e4d576014545f906001600160a01b0316612e31576001612e3e565b6014546001600160a01b03165b9050612e4b8b8285613e7a565b505b60015460405163a5bce37960e01b81526001600160a01b039091169063a5bce37990612e7f908d9087906004016152e2565b5f604051808303815f87803b158015612e96575f80fd5b505af1158015612ea8573d5f803e3d5ffd5b505050505f60025f9054906101000a90046001600160a01b03166001600160a01b031663604096326040518163ffffffff1660e01b8152600401602060405180830381865afa158015612efd573d5f803e3d5ffd5b505050506040513d601f19601f82011682018060405250810190612f219190615208565b875460ff19168b158015919091178955600189018b90556002890186905560038901829055600489018a90554260058a01555f60068a0155909150612f7c578860075f828254612f719190615284565b90915550612f939050565b8860085f828254612f8d9190615284565b90915550505b6004546001600160a01b03161561301557600480546040516329b71afb60e21b81526001600160a01b039091169163a6dc6bec91612fd3918f9101614fa4565b6020604051808303815f875af1158015612fef573d5f803e3d5ffd5b505050506040513d601f19601f820116820180604052508101906130139190615208565b505b6005546001600160a01b0316156130845760055460405163923b29db60e01b81526001600160a01b039091169063923b29db90613056908e90600401614fa4565b5f604051808303815f87803b15801561306d575f80fd5b505af115801561307f573d5f803e3d5ffd5b505050505b8a6001600160a01b03167f4d4528a0fc18081c61939b8aa1182f354400efa00e700a32ab6d3eef7836c3ba8b8b878c86896040516130c79695949392919061549e565b60405180910390a25050505050505050505050565b6001612c35612c32613e56565b6001600160a01b038084165f9081526009602090815260408083209386168352929052908120600181015490910361313457604051636ec9be1160e01b815260040160405180910390fd5b5f805f806131438588886141d8565b885493975091955093509150600160a01b900460ff1615613190576001600160a01b0387165f908152600b602052604081208054869290613185908490615271565b909155506131bd9050565b6001600160a01b0387165f908152600c6020526040812080548692906131b7908490615271565b90915550505b600785015460ff1660648790036132ca576001600160a01b03808a165f908152600960209081526040808320938c16835292905290812080546001600160a81b031916815560018101829055600281018290556003810182905560048101829055600581018290556006810191909155600701805460ff1916905561324289896142fe565b61324b8961440b565b15801561326257506005546001600160a01b031615155b156132c5576005546040516342833f8160e01b81526001600160a01b03909116906342833f8190613297908c90600401614fa4565b5f604051808303815f87803b1580156132ae575f80fd5b505af11580156132c0573d5f803e3d5ffd5b505050505b613328565b84866001015f8282546132dd9190615271565b9250508190555083866002015f8282546132f79190615271565b90915550606490506133098882615271565b876006015461331891906154c8565b61332291906154f7565b60068701555b600181600181111561333c5761333c615060565b036133535761334e89898686866144cd565b613360565b61336089898686866144cd565b876001600160a01b0316896001600160a01b03167f48531824aab1594d78ea038052028f850e5aa026295ec858c68d718f4ad8fad587866040516133a592919061547e565b60405180910390a3886001600160a01b03165f805160206155a983398151915284866040516133d592919061547e565b60405180910390a2505050505050505050565b336133f1611ca5565b6001600160a01b031614611a5c573360405163118cdaa760e01b8152600401610c8a9190614fa4565b8154600183015460038401545f92612c169260ff9091169185613da9565b601454600160a01b900460ff16156134635760405163168ea94560e21b815260040160405180910390fd5b6002546040516375151b6360e01b81526001600160a01b03909116906375151b6390613493908890600401614fa4565b602060405180830381865afa1580156134ae573d5f803e3d5ffd5b505050506040513d601f19601f820116820180604052508101906134d29190615463565b6134ef57604051633dd1b30560e01b815260040160405180910390fd5b6001600160a01b038087165f90815260096020908152604080832093891683529290522060018101541561353657604051630dd1bc8b60e31b815260040160405180910390fd5b613544878787878787614683565b5f8361355261271087615233565b61355c919061525e565b60025460405163b93fb64160e01b81529192505f916001600160a01b039091169063b93fb64190613591908b90600401614fa4565b602060405180830381865afa1580156135ac573d5f803e3d5ffd5b505050506040513d601f19601f820116820180604052508101906135d09190615208565b90506135e28389898986868b8b6147a9565b6135ec8989614826565b8615613624576001600160a01b0388165f908152600b602052604081208054889290613619908490615284565b909155506136519050565b6001600160a01b0388165f908152600c60205260408120805488929061364b908490615284565b90915550505b6005546001600160a01b0316156136c05760055460405163923b29db60e01b81526001600160a01b039091169063923b29db90613692908c90600401614fa4565b5f604051808303815f87803b1580156136a9575f80fd5b505af11580156136bb573d5f803e3d5ffd5b505050505b604080518815158152602081018890529081018290526001600160a01b03808a1691908b16907fea1d5ef53b3df083b6218ab6f9aeb778f52d8a8a074e6b4a3313eedea4926b109060600160405180910390a3505050505050505050565b6001600160a01b0381165f908152600a602052604081208190815b8154811015611759576001600160a01b0385165f9081526009602052604081208354829085908590811061376f5761376f615311565b5f9182526020808320909101546001600160a01b0316835282019290925260400190206001810154909150158015906137c057506001600782015460ff1660018111156137be576137be615060565b145b156137f057612710816001015460326137d99190615233565b6137e3919061525e565b6137ed9085615284565b93505b50600101613739565b5f80546001600160a01b038381166001600160a01b0319831681178455604051919092169283917f8be0079c531659141344cd1fd0a4f28419497f9722a3daafe3b4186f6b6457e09190a35050565b6001600160a01b0381165f908152600a602052604081208190815b8154811015611759576001600160a01b0385165f9081526009602052604081208354829085908590811061389957613899615311565b5f9182526020808320909101546001600160a01b0316835282019290925260400190206001810154909150158015906138ea57506001600782015460ff1660018111156138e8576138e8615060565b145b15613990576003546004828101546040516305ad00ff60e01b8152918201525f916001600160a01b0316906305ad00ff90602401602060405180830381865afa158015613939573d5f803e3d5ffd5b505050506040513d601f19601f8201168201806040525081019061395d9190615208565b9050670de0b6b3a76400008183600101546139789190615233565b613982919061525e565b61398c9086615297565b9450505b50600101613863565b6001600160a01b0382165f90815260066020526040812060018101549091036139d557604051636ec9be1160e01b815260040160405180910390fd5b6004546001600160a01b031615613a7357600480546040516329b71afb60e21b81525f926001600160a01b039092169163a6dc6bec91613a1791889101614fa4565b6020604051808303815f875af1158015613a33573d5f803e3d5ffd5b505050506040513d601f19601f82011682018060405250810190613a579190615208565b905080826006015f828254613a6c9190615297565b9091555050505b600254604080516330204b1960e11b815290515f926001600160a01b03169163604096329160048083019260209291908290030181865afa158015613aba573d5f803e3d5ffd5b505050506040513d601f19601f82011682018060405250810190613ade9190615208565b90505f6064848460010154613af39190615233565b613afd919061525e565b90505f6064858560020154613b129190615233565b613b1c919061525e565b845460038601549192505f91613b389160ff1690859087613da9565b90505f6064878760060154613b4d91906154c8565b613b5791906154f7565b9050613b63818361543d565b91505f61271060105486613b779190615233565b613b81919061525e565b875490915060ff1615613baa578460075f828254613b9f9190615271565b90915550613bc19050565b8460085f828254613bbb9190615271565b90915550505b8654600388015460ff9091169060648a9003613c8d576001600160a01b03808c165f9081526006602081905260408220805460ff19168155600181018390556002810183905560038101839055600481018390556005808201849055910191909155541615613c88576005546040516342833f8160e01b81526001600160a01b03909116906342833f8190613c5a908e90600401614fa4565b5f604051808303815f87803b158015613c71575f80fd5b505af1158015613c83573d5f803e3d5ffd5b505050505b613ceb565b86896001015f828254613ca09190615271565b9250508190555085896002015f828254613cba9190615271565b9091555060649050613ccc8b82615271565b8a60060154613cdb91906154c8565b613ce591906154f7565b60068a01555b6014545f906001600160a01b0316613d04576001613d11565b6014546001600160a01b03165b9050613d208c828989886144cd565b8b6001600160a01b03167f53d2478c2a6e1aea3c7cec23ce282616b256f489b8066e6adc70d22440df27b8848a858d8b8a604051613d639695949392919061549e565b60405180910390a28b6001600160a01b03165f805160206155a98339815191528789604051613d9392919061547e565b60405180910390a2505050505050505050505050565b5f825f03613db857505f61142c565b8415613e1357828210613deb5782613dd08184615271565b613dda9086615233565b613de4919061525e565b905061142c565b82613df68382615271565b613e009086615233565b613e0a919061525e565b613de490615523565b828211613e255782613dd08382615271565b82613df68184615271565b613e386148bf565b15611a5c57604051633ee5aeb560e01b815260040160405180910390fd5b7f9b779b17422d0df92223018b32b4d1fa46e071723d6817e2486d003becc55f0090565b805f03613e8657505050565b6012545f9081906001600160a01b031615613f7d5760125460405163c78418b960e01b81526001600160a01b039091169063c78418b990613ecb908790600401614fa4565b602060405180830381865afa925050508015613f04575060408051601f3d908101601f19168201909252613f019181019061553d565b60015b15613f0c5791505b601254604051630f87f98760e31b81526001600160a01b0390911690637c3fcc3890613f3c908890600401614fa4565b602060405180830381865afa925050508015613f75575060408051601f3d908101601f19168201909252613f729181019061553d565b60015b15613f7d5790505b5f612710613f8d6107d086615233565b613f97919061525e565b90505f612710613fa96103e887615233565b613fb3919061525e565b90505f81613fc18488615271565b613fcb9190615271565b90505f83118015613fe457506001600160a01b03851615155b1561404f5760015460405163328dc65b60e11b81526001600160a01b039091169063651b8cb69061401d908b9089908890600401615558565b5f604051808303815f87803b158015614034575f80fd5b505af1158015614046573d5f803e3d5ffd5b5050505061405f565b6140598382615284565b90505f92505b5f8211801561407657506001600160a01b03841615155b156140e15760015460405163328dc65b60e11b81526001600160a01b039091169063651b8cb6906140af908b9088908790600401615558565b5f604051808303815f87803b1580156140c6575f80fd5b505af11580156140d8573d5f803e3d5ffd5b505050506140f1565b6140eb8282615284565b90505f91505b5f8111801561410a57506011546001600160a01b031615155b156141765760015460115460405163328dc65b60e11b81526001600160a01b039283169263651b8cb692614148928d92909116908690600401615558565b5f604051808303815f87803b15801561415f575f80fd5b505af1158015614171573d5f803e3d5ffd5b505050505b6040805187815260208101859052908101839052606081018290526001600160a01b03808a1691908916907fdc8a51802fb09566019f2fcdc0ac4b87be20ee8935c4c116c41471631167cede9060800160405180910390a35050505050505050565b60025460405163b93fb64160e01b81525f9182918291829182916001600160a01b03169063b93fb64190614210908a90600401614fa4565b602060405180830381865afa15801561422b573d5f803e3d5ffd5b505050506040513d601f19601f8201168201806040525081019061424f9190615208565b905060648689600101546142639190615233565b61426d919061525e565b945060648689600201546142819190615233565b61428b919061525e565b93506142ad885f0160149054906101000a900460ff16868a6003015484613da9565b925060648689600601546142c191906154c8565b6142cb91906154f7565b6142d5908461543d565b9250612710601054866142e89190615233565b6142f2919061525e565b91505093509350935093565b6001600160a01b0382165f908152600a60205260408120905b815481101561131257826001600160a01b031682828154811061433c5761433c615311565b5f918252602090912001546001600160a01b031603614403578154829061436590600190615271565b8154811061437557614375615311565b905f5260205f20015f9054906101000a90046001600160a01b03168282815481106143a2576143a2615311565b905f5260205f20015f6101000a8154816001600160a01b0302191690836001600160a01b03160217905550818054806143dd576143dd61557c565b5f8281526020902081015f1990810180546001600160a01b031916905501905550505050565b600101614317565b6001600160a01b0381165f9081526006602052604081206001015481901561443b578061443781615590565b9150505b6001600160a01b0383165f908152600a60205260408120905b8154811015611759576001600160a01b0385165f9081526009602052604081208354829085908590811061448a5761448a615311565b5f9182526020808320909101546001600160a01b0316835282019290925260400190206001015411156144c557826144c181615590565b9350505b600101614454565b80156144fe575f8382116144e157816144e3565b835b90506144f08686836148d4565b6144fa8185615271565b9350505b5f821261456b576001546040516378ba750560e11b81526001600160a01b039091169063f174ea0a9061453990889087908790600401615325565b5f604051808303815f87803b158015614550575f80fd5b505af1158015614562573d5f803e3d5ffd5b5050505061467c565b5f61457583615523565b90508381116145f85760015460405163117868e360e31b81526001600160a01b0390911690638bc34718906145b290899088908690600401615325565b6020604051808303815f875af11580156145ce573d5f803e3d5ffd5b505050506040513d601f19601f820116820180604052508101906145f29190615208565b50611ac1565b5f6146038583615271565b600154604051631ff8212960e11b81529192506001600160a01b031690633ff0425290614638908a9089908690600401615325565b6020604051808303815f875af1158015614654573d5f803e3d5ffd5b505050506040513d601f19601f820116820180604052508101906146789190615208565b5050505b5050505050565b60035460405163ddac9a0b60e01b81525f9182916001600160a01b039091169063ddac9a0b906146bd908b908a908a908a90600401615346565b5f60405180830381865afa1580156146d7573d5f803e3d5ffd5b505050506040513d5f823e601f3d908101601f191682016040526146fe9190810190615380565b91509150816147225780604051636ca2857760e11b8152600401610c8a919061548c565b5f8461473061271088615233565b61473a919061525e565b90505f612710600f548861474e9190615233565b614758919061525e565b90505f6147658284615284565b9050600186600181111561477b5761477b615060565b036147905761478b8b8b83614ba2565b61479c565b61479c8b8b8585614ce7565b5050505050505050505050565b8754861515600160a01b026001600160a81b03199091166001600160a01b0389161717885560018089018690556002890185905560038901849055600489018390554260058a01555f60068a0155600789018054839260ff1990911690838181111561481757614817615060565b02179055505050505050505050565b6001600160a01b0382165f908152600a60205260408120905b815481101561488b57826001600160a01b031682828154811061486457614864615311565b5f918252602090912001546001600160a01b0316036148835750505050565b60010161483f565b5080546001810182555f91825260209091200180546001600160a01b0319166001600160a01b039290921691909117905550565b5f60026148cd612c32613e56565b5414919050565b805f036148e057505050565b6012545f9081906001600160a01b0316156149d75760125460405163c78418b960e01b81526001600160a01b039091169063c78418b990614925908790600401614fa4565b602060405180830381865afa92505050801561495e575060408051601f3d908101601f1916820190925261495b9181019061553d565b60015b156149665791505b601254604051630f87f98760e31b81526001600160a01b0390911690637c3fcc3890614996908890600401614fa4565b602060405180830381865afa9250505080156149cf575060408051601f3d908101601f191682019092526149cc9181019061553d565b60015b156149d75790505b5f6127106149e76107d086615233565b6149f1919061525e565b90505f612710614a036103e887615233565b614a0d919061525e565b90505f81614a1b8488615271565b614a259190615271565b90505f83118015614a3e57506001600160a01b03851615155b15614aa957600154604051630c64d1f960e11b81526001600160a01b03909116906318c9a3f290614a77908b9089908890600401615558565b5f604051808303815f87803b158015614a8e575f80fd5b505af1158015614aa0573d5f803e3d5ffd5b50505050614ab9565b614ab38382615284565b90505f92505b5f82118015614ad057506001600160a01b03841615155b15614b3b57600154604051630c64d1f960e11b81526001600160a01b03909116906318c9a3f290614b09908b9088908790600401615558565b5f604051808303815f87803b158015614b20575f80fd5b505af1158015614b32573d5f803e3d5ffd5b50505050614b4b565b614b458282615284565b90505f91505b5f81118015614b6457506011546001600160a01b031615155b1561417657600154601154604051630c64d1f960e11b81526001600160a01b03928316926318c9a3f292614148928d92909116908690600401615558565b60015460405163f8b2cb4f60e01b815282915f916001600160a01b039091169063f8b2cb4f90614bd6908890600401614fa4565b602060405180830381865afa158015614bf1573d5f803e3d5ffd5b505050506040513d601f19601f82011682018060405250810190614c159190615208565b905082811015614c38576040516341c092a960e01b815260040160405180910390fd5b5f600f54612710614c499190615284565b600f54614c569086615233565b614c60919061525e565b90508015614c8057614c73868683613e7a565b614c7d8185615271565b92505b60015460405163a5bce37960e01b81526001600160a01b039091169063a5bce37990614cb290899087906004016152e2565b5f604051808303815f87803b158015614cc9575f80fd5b505af1158015614cdb573d5f803e3d5ffd5b50505050505050505050565b614cf18183615284565b60015460405163f8b2cb4f60e01b81526001600160a01b039091169063f8b2cb4f90614d21908890600401614fa4565b602060405180830381865afa158015614d3c573d5f803e3d5ffd5b505050506040513d601f19601f82011682018060405250810190614d609190615208565b1015614d7f576040516341c092a960e01b815260040160405180910390fd5b8015614d9057614d90848483613e7a565b60015460405163a5bce37960e01b81526001600160a01b039091169063a5bce37990614dc290879086906004016152e2565b5f604051808303815f87803b158015614dd9575f80fd5b505af1158015614678573d5f803e3d5ffd5b6040518061012001604052805f6001600160a01b031681526020015f151581526020015f81526020015f81526020015f81526020015f81526020015f81526020015f81526020015f6001811115614e4457614e44615060565b905290565b6001600160a01b03811681146112f1575f80fd5b5f8060408385031215614e6e575f80fd5b8235614e7981614e49565b91506020830135614e8981614e49565b809150509250929050565b5f60208284031215614ea4575f80fd5b8135612c1681614e49565b5f8060408385031215614ec0575f80fd5b50508035926020909101359150565b5f805f60608486031215614ee1575f80fd5b8335614eec81614e49565b92506020840135614efc81614e49565b929592945050506040919091013590565b80151581146112f1575f80fd5b5f60208284031215614f2a575f80fd5b8135612c1681614f0d565b5f60208284031215614f45575f80fd5b5035919050565b803560028110614f5a575f80fd5b919050565b5f805f8060808587031215614f72575f80fd5b8435614f7d81614e49565b93506020850135925060408501359150614f9960608601614f4c565b905092959194509250565b6001600160a01b0391909116815260200190565b602080825282518282018190525f9190848201906040850190845b81811015614ff85783516001600160a01b031683529284019291840191600101614fd3565b50909695505050505050565b5f805f60608486031215615016575f80fd5b833561502181614e49565b95602085013595506040909401359392505050565b5f8060408385031215615047575f80fd5b823561505281614e49565b946020939093013593505050565b634e487b7160e01b5f52602160045260245ffd5b6002811061509057634e487b7160e01b5f52602160045260245ffd5b9052565b5f6101208201905060018060a01b03835116825260208301511515602083015260408301516040830152606083015160608301526080830151608083015260a083015160a083015260c083015160c083015260e083015160e08301526101008084015161510382850182615074565b505092915050565b60208101610aff8284615074565b5f60208284031215615129575f80fd5b612c1682614f4c565b5f805f8060808587031215615145575f80fd5b843561515081614e49565b9350602085013561516081614f0d565b93969395505050506040820135916060013590565b5f5b8381101561518f578181015183820152602001615177565b50505f910152565b5f81518084526151ae816020860160208601615175565b601f01601f19169290920160200192915050565b8215158152604060208201525f61142c6040830184615197565b5f80604083850312156151ed575f80fd5b82356151f881614e49565b91506020830135614e8981614f0d565b5f60208284031215615218575f80fd5b5051919050565b634e487b7160e01b5f52601160045260245ffd5b8082028115828204841417610aff57610aff61521f565b634e487b7160e01b5f52601260045260245ffd5b5f8261526c5761526c61524a565b500490565b81810381811115610aff57610aff61521f565b80820180821115610aff57610aff61521f565b8082018281125f8312801582168215821617156151035761510361521f565b602080825260129082015271496e76616c69642070657263656e7461676560701b604082015260600190565b6001600160a01b03929092168252602082015260400190565b9283526020830191909152604082015260600190565b634e487b7160e01b5f52603260045260245ffd5b6001600160a01b039390931683526020830191909152604082015260600190565b6001600160a01b0394909416845291151560208401526040830152606082015260800190565b634e487b7160e01b5f52604160045260245ffd5b5f8060408385031215615391575f80fd5b825161539c81614f0d565b60208401519092506001600160401b03808211156153b8575f80fd5b818501915085601f8301126153cb575f80fd5b8151818111156153dd576153dd61536c565b604051601f8201601f19908116603f011681019083821181831017156154055761540561536c565b8160405282815288602084870101111561541d575f80fd5b61542e836020830160208801615175565b80955050505050509250929050565b8181035f83128015838313168383128216171561545c5761545c61521f565b5092915050565b5f60208284031215615473575f80fd5b8151612c1681614f0d565b918252602082015260400190565b602081525f612c166020830184615197565b9515158652602086019490945260408501929092526060840152608083015260a082015260c00190565b8082025f8212600160ff1b841416156154e3576154e361521f565b8181058314821517610aff57610aff61521f565b5f826155055761550561524a565b600160ff1b82145f198414161561551e5761551e61521f565b500590565b5f600160ff1b82016155375761553761521f565b505f0390565b5f6020828403121561554d575f80fd5b8151612c1681614e49565b6001600160a01b039384168152919092166020820152604081019190915260600190565b634e487b7160e01b5f52603160045260245ffd5b5f600182016155a1576155a161521f565b506001019056fe9bf3b7e4a848b681770268d803fb6973513eab34fdf0de14fae4c0f31e470f367d6256eb7ab2f6d734469a8e34ba19d3d32dfa8ffe86540b04b59a3fa7fc7de35f1c6cdd328a9fb497988633edd96f3aabe7f5acba8669d6bd3c633c2185965202e35bc85323d4002dadbdab1c21a2732d77aeb414052e037e0aa4e6f3365bfb7dba1be544024070cd5eebfa8bdd80a8b198cea8058c7d3cc1f8dd36e41ab2f712c7466676da8453fdc8fb091f1a24d31919043a79a50ebe022867a5f5c1ed34a2646970667358221220eac00b7c3a36ef105532f0ffe89e0a8f41c019dbbfb00c68eebaa04723bddb8464736f6c63430008180033","linkReferences":{}},"methodIdentifiers":{"LEVERAGE_PRECISION()":"8da793b2","PERP_CREATOR_FEE_SHARE()":"d01d3ddc","PERP_PLATFORM_FEE_SHARE()":"2ceab867","PERP_REFERRER_FEE_SHARE()":"dad665b7","PRECISION()":"aaf5eb68","addCollateral(uint256)":"bcc46e83","addCollateralToken(address,uint256)":"f3e27c4f","authorizedContracts(address)":"d5b9221b","canLiquidate(address)":"b9f4ff55","canLiquidateToken(address,address)":"8c56444d","canOpenPosition(address,bool,uint256,uint256)":"cafb909e","closeFeeRate()":"2fb36b0b","closePosition()":"c393d0e3","closePositionPartial(uint256)":"9c5a6079","closePositionPartialToken(address,uint256)":"617b93ec","closePositionToken(address)":"f757a608","crossMarginBalances(address)":"10ffb342","defaultMarginMode(address)":"a8f1fca4","defaultToken()":"74c13fda","feeReceiver()":"b3f00674","forceClose(address)":"d6ae57c7","forceCloseToken(address,address)":"f635115b","forceReduce(address,uint256)":"b606e663","forceReduceToken(address,address,uint256)":"1590320d","fundingRate()":"41d3c84c","getCrossMarginBalance(address)":"870946dd","getCrossMarginEquity(address)":"57aea035","getLiquidationPrice(address)":"17d8de82","getMarginRatio(address)":"54f4ac87","getPosition(address)":"16c19739","getPositionByToken(address,address)":"91f454b9","getTokenLiquidationPrice(address,address)":"013c0b12","getTokenMarginRatio(address,address)":"10a6eff7","getTokenTotalLongSize(address)":"11dd2fa4","getTokenTotalShortSize(address)":"c29d6c9a","getTokenUnrealizedPnL(address,address)":"55522a67","getTotalLongSize()":"e7413127","getTotalShortSize()":"cb47a60b","getUnrealizedPnL(address)":"544305bf","getUserTokens(address)":"519dc8d2","liquidation()":"f2dfbf66","migrationMode()":"7a01e2bd","openFeeRate()":"a29eda91","openLong(uint256,uint256)":"c181d418","openLongToken(address,uint256,uint256,uint8)":"bf8bfb94","openShort(uint256,uint256)":"1266a619","openShortToken(address,uint256,uint256,uint8)":"3f8a01f2","owner()":"8da5cb5b","priceFeed()":"741bef1a","removeCollateral(uint256)":"3237c158","removeCollateralToken(address,uint256)":"cfa0a1f2","renounceOwnership()":"715018a6","rescueSettleProfit(address,uint256,uint256)":"5dd50bf9","rescueUnlockMargin(address,uint256)":"849b2f50","riskManager()":"47842663","setAuthorizedContract(address,bool)":"f2fa7392","setCrossMarginBalance(address,uint256)":"6dd87e87","setDefaultMarginMode(uint8)":"c81c928e","setDefaultToken(address)":"e1e32f99","setFeeRates(uint256,uint256)":"feaca583","setFeeReceiver(address)":"efdcd974","setFundingRate(address)":"b9668482","setLiquidation(address)":"ab919ee3","setMigrationMode(bool)":"17693e8c","setTokenFactory(address)":"2f73a9f8","tokenFactory()":"e77772fe","tokenTotalLongSize(address)":"24264827","tokenTotalShortSize(address)":"45cf7a52","totalLongSize()":"5bf804af","totalShortSize()":"bf6268f2","transferOwnership(address)":"f2fde38b","vault()":"fbfa77cf","withdrawCrossMargin(uint256)":"5d3cde15"},"id":93}