{"abi":[{"type":"constructor","inputs":[],"stateMutability":"nonpayable"},{"type":"function","name":"PRICE_PRECISION","inputs":[],"outputs":[{"name":"","type":"uint256","internalType":"uint256"}],"stateMutability":"view"},{"type":"function","name":"addSupportedToken","inputs":[{"name":"token","type":"address","internalType":"address"},{"name":"initialPrice","type":"uint256","internalType":"uint256"}],"outputs":[],"stateMutability":"nonpayable"},{"type":"function","name":"addSupportedTokenFromFactory","inputs":[{"name":"token","type":"address","internalType":"address"},{"name":"initialPrice","type":"uint256","internalType":"uint256"}],"outputs":[],"stateMutability":"nonpayable"},{"type":"function","name":"getLastUpdateTime","inputs":[],"outputs":[{"name":"","type":"uint256","internalType":"uint256"}],"stateMutability":"view"},{"type":"function","name":"getMarkPrice","inputs":[],"outputs":[{"name":"","type":"uint256","internalType":"uint256"}],"stateMutability":"view"},{"type":"function","name":"getSpotPrice","inputs":[],"outputs":[{"name":"","type":"uint256","internalType":"uint256"}],"stateMutability":"view"},{"type":"function","name":"getSupportedTokenCount","inputs":[],"outputs":[{"name":"","type":"uint256","internalType":"uint256"}],"stateMutability":"view"},{"type":"function","name":"getSupportedTokens","inputs":[],"outputs":[{"name":"","type":"address[]","internalType":"address[]"}],"stateMutability":"view"},{"type":"function","name":"getTokenLastUpdateTime","inputs":[{"name":"token","type":"address","internalType":"address"}],"outputs":[{"name":"","type":"uint256","internalType":"uint256"}],"stateMutability":"view"},{"type":"function","name":"getTokenMarkPrice","inputs":[{"name":"token","type":"address","internalType":"address"}],"outputs":[{"name":"","type":"uint256","internalType":"uint256"}],"stateMutability":"view"},{"type":"function","name":"getTokenSpotPrice","inputs":[{"name":"token","type":"address","internalType":"address"}],"outputs":[{"name":"","type":"uint256","internalType":"uint256"}],"stateMutability":"view"},{"type":"function","name":"isTokenSupported","inputs":[{"name":"token","type":"address","internalType":"address"}],"outputs":[{"name":"","type":"bool","internalType":"bool"}],"stateMutability":"view"},{"type":"function","name":"owner","inputs":[],"outputs":[{"name":"","type":"address","internalType":"address"}],"stateMutability":"view"},{"type":"function","name":"removeSupportedToken","inputs":[{"name":"token","type":"address","internalType":"address"}],"outputs":[],"stateMutability":"nonpayable"},{"type":"function","name":"renounceOwnership","inputs":[],"outputs":[],"stateMutability":"nonpayable"},{"type":"function","name":"setTokenFactory","inputs":[{"name":"_tokenFactory","type":"address","internalType":"address"}],"outputs":[],"stateMutability":"nonpayable"},{"type":"function","name":"supportedTokens","inputs":[{"name":"","type":"address","internalType":"address"}],"outputs":[{"name":"","type":"bool","internalType":"bool"}],"stateMutability":"view"},{"type":"function","name":"tokenFactory","inputs":[],"outputs":[{"name":"","type":"address","internalType":"address"}],"stateMutability":"view"},{"type":"function","name":"tokenLastPrice","inputs":[{"name":"","type":"address","internalType":"address"}],"outputs":[{"name":"","type":"uint256","internalType":"uint256"}],"stateMutability":"view"},{"type":"function","name":"tokenLastUpdateTime","inputs":[{"name":"","type":"address","internalType":"address"}],"outputs":[{"name":"","type":"uint256","internalType":"uint256"}],"stateMutability":"view"},{"type":"function","name":"tokenList","inputs":[{"name":"","type":"uint256","internalType":"uint256"}],"outputs":[{"name":"","type":"address","internalType":"address"}],"stateMutability":"view"},{"type":"function","name":"transferOwnership","inputs":[{"name":"newOwner","type":"address","internalType":"address"}],"outputs":[],"stateMutability":"nonpayable"},{"type":"function","name":"updatePrice","inputs":[{"name":"","type":"uint256","internalType":"uint256"}],"outputs":[],"stateMutability":"nonpayable"},{"type":"function","name":"updateTokenPrice","inputs":[{"name":"","type":"address","internalType":"address"},{"name":"","type":"uint256","internalType":"uint256"}],"outputs":[],"stateMutability":"nonpayable"},{"type":"function","name":"updateTokenPriceFromFactory","inputs":[{"name":"token","type":"address","internalType":"address"},{"name":"newPrice","type":"uint256","internalType":"uint256"}],"outputs":[],"stateMutability":"nonpayable"},{"type":"event","name":"OwnershipTransferred","inputs":[{"name":"previousOwner","type":"address","indexed":true,"internalType":"address"},{"name":"newOwner","type":"address","indexed":true,"internalType":"address"}],"anonymous":false},{"type":"event","name":"TokenAdded","inputs":[{"name":"token","type":"address","indexed":true,"internalType":"address"}],"anonymous":false},{"type":"event","name":"TokenFactorySet","inputs":[{"name":"tokenFactory","type":"address","indexed":true,"internalType":"address"}],"anonymous":false},{"type":"event","name":"TokenPriceUpdated","inputs":[{"name":"token","type":"address","indexed":true,"internalType":"address"},{"name":"price","type":"uint256","indexed":false,"internalType":"uint256"},{"name":"timestamp","type":"uint256","indexed":false,"internalType":"uint256"}],"anonymous":false},{"type":"event","name":"TokenRemoved","inputs":[{"name":"token","type":"address","indexed":true,"internalType":"address"}],"anonymous":false},{"type":"error","name":"InvalidPrice","inputs":[]},{"type":"error","name":"OwnableInvalidOwner","inputs":[{"name":"owner","type":"address","internalType":"address"}]},{"type":"error","name":"OwnableUnauthorizedAccount","inputs":[{"name":"account","type":"address","internalType":"address"}]},{"type":"error","name":"TokenAlreadySupported","inputs":[]},{"type":"error","name":"TokenNotSupported","inputs":[]},{"type":"error","name":"Unauthorized","inputs":[]},{"type":"error","name":"ZeroAddress","inputs":[]}],"bytecode":{"object":"0x608060405234801561000f575f80fd5b50338061003557604051631e4fbdf760e01b81525f600482015260240160405180910390fd5b61003e81610044565b50610093565b5f80546001600160a01b038381166001600160a01b0319831681178455604051919092169283917f8be0079c531659141344cd1fd0a4f28419497f9722a3daafe3b4186f6b6457e09190a35050565b610b89806100a05f395ff3fe608060405234801561000f575f80fd5b5060043610610131575f3560e01c80632f73a9f81461013557806334406e581461014a5780634d8e3d3b1461015d5780635c23eec814610170578063604096321461019657806368c4ac261461019e578063715018a6146101d057806375151b63146101d857806376319190146102035780637b061fcf146102165780638d6cc56d146102355780638da5cb5b1461024657806395082d251461025b5780639ead72221461026a578063a991b6271461027d578063b7f883201461029c578063b93fb641146102a4578063ce67be26146102b7578063d3c7c2c7146102bf578063d4ee651b146102d4578063dc76fabc14610196578063e1a381ec146102a4578063e77772fe146102e6578063f2fde38b146102f9578063f7c605c91461030c575b5f80fd5b610148610143366004610a27565b61031f565b005b610148610158366004610a47565b610397565b61014861016b366004610a47565b6104f9565b61018361017e366004610a27565b610561565b6040519081526020015b60405180910390f35b6101836105b4565b6101c06101ac366004610a27565b60026020525f908152604090205460ff1681565b604051901515815260200161018d565b610148610603565b6101c06101e6366004610a27565b6001600160a01b03165f9081526002602052604090205460ff1690565b610148610211366004610a27565b610616565b610183610224366004610a27565b60036020525f908152604090205481565b610148610243366004610a6f565b50565b61024e6107a1565b60405161018d9190610a86565b610183670de0b6b3a764000081565b61024e610278366004610a6f565b6107af565b61018361028b366004610a27565b60046020525f908152604090205481565b6101836107d7565b6101836102b2366004610a27565b6107fd565b600554610183565b6102c7610850565b60405161018d9190610a9a565b6101486102e2366004610a47565b5050565b60015461024e906001600160a01b031681565b610148610307366004610a27565b6108b0565b61014861031a366004610a47565b6108f3565b61032761098b565b6001600160a01b03811661034e5760405163d92e233d60e01b815260040160405180910390fd5b600180546001600160a01b0319166001600160a01b0383169081179091556040517fcf4be1c851767114c1f4b298dc84eab48d103473908393f6d408c82ba7cda0e8905f90a250565b6001546001600160a01b031633146103c1576040516282b42960e81b815260040160405180910390fd5b6001600160a01b0382166103e85760405163d92e233d60e01b815260040160405180910390fd5b6001600160a01b0382165f9081526002602052604090205460ff166102e2575b805f036104275760405162bfc92160e01b815260040160405180910390fd5b6001600160a01b0382165f818152600260209081526040808320805460ff191660019081179091556005805491820190557f036b6384b5eca791c62761152d0c79bb0604c104a5fb6f4eb0703f3154bb3db00180546001600160a01b03191685179055600382528083208590556004909152808220429055517f784c8f4dbf0ffedd6e72c76501c545a70f8b203b30a26ce542bf92ba87c248a49190a2604080518281524260208201526001600160a01b038416915f80516020610b3483398151915291015b60405180910390a25050565b61050161098b565b6001600160a01b0382166105285760405163d92e233d60e01b815260040160405180910390fd5b6001600160a01b0382165f9081526002602052604090205460ff16156104085760405163c78e82ad60e01b815260040160405180910390fd5b6001600160a01b0381165f9081526002602052604081205460ff1661059957604051633dd1b30560e01b815260040160405180910390fd5b506001600160a01b03165f9081526004602052604090205490565b6005545f9081036105c457505f90565b60035f60055f815481106105da576105da610ae6565b5f9182526020808320909101546001600160a01b03168352820192909252604001902054919050565b61060b61098b565b6106145f6109bd565b565b61061e61098b565b6001600160a01b0381165f9081526002602052604090205460ff1661065657604051633dd1b30560e01b815260040160405180910390fd5b6001600160a01b0381165f908152600260205260408120805460ff191690555b60055481101561076a57816001600160a01b03166005828154811061069d5761069d610ae6565b5f918252602090912001546001600160a01b03160361076257600580546106c690600190610afa565b815481106106d6576106d6610ae6565b5f91825260209091200154600580546001600160a01b03909216918390811061070157610701610ae6565b905f5260205f20015f6101000a8154816001600160a01b0302191690836001600160a01b03160217905550600580548061073d5761073d610b1f565b5f8281526020902081015f1990810180546001600160a01b031916905501905561076a565b600101610676565b506040516001600160a01b038216907f4c910b69fe65a61f7531b9c5042b2329ca7179c77290aa7e2eb3afa3c8511fd3905f90a250565b5f546001600160a01b031690565b600581815481106107be575f80fd5b5f918252602090912001546001600160a01b0316905081565b6005545f9081036107e757505f90565b60045f60055f815481106105da576105da610ae6565b6001600160a01b0381165f9081526002602052604081205460ff1661083557604051633dd1b30560e01b815260040160405180910390fd5b506001600160a01b03165f9081526003602052604090205490565b606060058054806020026020016040519081016040528092919081815260200182805480156108a657602002820191905f5260205f20905b81546001600160a01b03168152600190910190602001808311610888575b5050505050905090565b6108b861098b565b6001600160a01b0381166108ea575f604051631e4fbdf760e01b81526004016108e19190610a86565b60405180910390fd5b610243816109bd565b6001546001600160a01b0316331461091d576040516282b42960e81b815260040160405180910390fd5b6001600160a01b0382165f9081526002602052604090205460ff16156102e25780156102e2576001600160a01b0382165f818152600360209081526040808320859055600482529182902042908190558251858152918201525f80516020610b3483398151915291016104ed565b336109946107a1565b6001600160a01b031614610614573360405163118cdaa760e01b81526004016108e19190610a86565b5f80546001600160a01b038381166001600160a01b0319831681178455604051919092169283917f8be0079c531659141344cd1fd0a4f28419497f9722a3daafe3b4186f6b6457e09190a35050565b80356001600160a01b0381168114610a22575f80fd5b919050565b5f60208284031215610a37575f80fd5b610a4082610a0c565b9392505050565b5f8060408385031215610a58575f80fd5b610a6183610a0c565b946020939093013593505050565b5f60208284031215610a7f575f80fd5b5035919050565b6001600160a01b0391909116815260200190565b602080825282518282018190525f9190848201906040850190845b81811015610ada5783516001600160a01b031683529284019291840191600101610ab5565b50909695505050505050565b634e487b7160e01b5f52603260045260245ffd5b81810381811115610b1957634e487b7160e01b5f52601160045260245ffd5b92915050565b634e487b7160e01b5f52603160045260245ffdfe62e2c9c75b287778c0b58f1c1d83fa8f9978a33848e0b423735fd44f48ebe3c1a26469706673582212206fd14d87d468e2e8476247f0b2fcd8c8796c2e2dfa2dfeea25d05d41e54b790564736f6c63430008180033","linkReferences":{}},"methodIdentifiers":{"PRICE_PRECISION()":"95082d25","addSupportedToken(address,uint256)":"4d8e3d3b","addSupportedTokenFromFactory(address,uint256)":"34406e58","getLastUpdateTime()":"b7f88320","getMarkPrice()":"60409632","getSpotPrice()":"dc76fabc","getSupportedTokenCount()":"ce67be26","getSupportedTokens()":"d3c7c2c7","getTokenLastUpdateTime(address)":"5c23eec8","getTokenMarkPrice(address)":"b93fb641","getTokenSpotPrice(address)":"e1a381ec","isTokenSupported(address)":"75151b63","owner()":"8da5cb5b","removeSupportedToken(address)":"76319190","renounceOwnership()":"715018a6","setTokenFactory(address)":"2f73a9f8","supportedTokens(address)":"68c4ac26","tokenFactory()":"e77772fe","tokenLastPrice(address)":"7b061fcf","tokenLastUpdateTime(address)":"a991b627","tokenList(uint256)":"9ead7222","transferOwnership(address)":"f2fde38b","updatePrice(uint256)":"8d6cc56d","updateTokenPrice(address,uint256)":"d4ee651b","updateTokenPriceFromFactory(address,uint256)":"f7c605c9"},"id":73}