{"abi":[{"type":"constructor","inputs":[],"stateMutability":"nonpayable"},{"type":"function","name":"LEVERAGE_PRECISION","inputs":[],"outputs":[{"name":"","type":"uint256","internalType":"uint256"}],"stateMutability":"view"},{"type":"function","name":"PRECISION","inputs":[],"outputs":[{"name":"","type":"uint256","internalType":"uint256"}],"stateMutability":"view"},{"type":"function","name":"checkADLRequired","inputs":[],"outputs":[{"name":"needADL","type":"bool","internalType":"bool"},{"name":"targetSide","type":"bool","internalType":"bool"},{"name":"reduceAmount","type":"uint256","internalType":"uint256"}],"stateMutability":"view"},{"type":"function","name":"checkInsuranceCoverage","inputs":[],"outputs":[{"name":"isSufficient","type":"bool","internalType":"bool"},{"name":"fundBalance","type":"uint256","internalType":"uint256"},{"name":"requiredAmount","type":"uint256","internalType":"uint256"}],"stateMutability":"view"},{"type":"function","name":"getImbalanceRisk","inputs":[],"outputs":[{"name":"longExposure","type":"uint256","internalType":"uint256"},{"name":"shortExposure","type":"uint256","internalType":"uint256"},{"name":"maxPotentialLoss","type":"uint256","internalType":"uint256"}],"stateMutability":"view"},{"type":"function","name":"getInsuranceFundBalance","inputs":[],"outputs":[{"name":"","type":"uint256","internalType":"uint256"}],"stateMutability":"view"},{"type":"function","name":"getMaintenanceMarginRate","inputs":[{"name":"leverage","type":"uint256","internalType":"uint256"}],"outputs":[{"name":"","type":"uint256","internalType":"uint256"}],"stateMutability":"view"},{"type":"function","name":"getMarginRateTable","inputs":[],"outputs":[{"name":"leverages","type":"uint256[]","internalType":"uint256[]"},{"name":"rates","type":"uint256[]","internalType":"uint256[]"}],"stateMutability":"pure"},{"type":"function","name":"getMaxLeverage","inputs":[],"outputs":[{"name":"","type":"uint256","internalType":"uint256"}],"stateMutability":"view"},{"type":"function","name":"getMaxOpenInterest","inputs":[],"outputs":[{"name":"","type":"uint256","internalType":"uint256"}],"stateMutability":"view"},{"type":"function","name":"getMaxPositionSize","inputs":[],"outputs":[{"name":"","type":"uint256","internalType":"uint256"}],"stateMutability":"view"},{"type":"function","name":"getMaxPriceImpact","inputs":[],"outputs":[{"name":"","type":"uint256","internalType":"uint256"}],"stateMutability":"view"},{"type":"function","name":"getSuggestedLeverage","inputs":[{"name":"balance","type":"uint256","internalType":"uint256"},{"name":"size","type":"uint256","internalType":"uint256"}],"outputs":[{"name":"","type":"uint256","internalType":"uint256"}],"stateMutability":"view"},{"type":"function","name":"insuranceCoverageRatio","inputs":[],"outputs":[{"name":"","type":"uint256","internalType":"uint256"}],"stateMutability":"view"},{"type":"function","name":"insuranceFund","inputs":[],"outputs":[{"name":"","type":"address","internalType":"address"}],"stateMutability":"view"},{"type":"function","name":"maintenanceMarginRates","inputs":[{"name":"","type":"uint256","internalType":"uint256"}],"outputs":[{"name":"","type":"uint256","internalType":"uint256"}],"stateMutability":"view"},{"type":"function","name":"maxLeverage","inputs":[],"outputs":[{"name":"","type":"uint256","internalType":"uint256"}],"stateMutability":"view"},{"type":"function","name":"maxOpenInterest","inputs":[],"outputs":[{"name":"","type":"uint256","internalType":"uint256"}],"stateMutability":"view"},{"type":"function","name":"maxPositionSize","inputs":[],"outputs":[{"name":"","type":"uint256","internalType":"uint256"}],"stateMutability":"view"},{"type":"function","name":"maxPriceImpact","inputs":[],"outputs":[{"name":"","type":"uint256","internalType":"uint256"}],"stateMutability":"view"},{"type":"function","name":"maxPriceMove","inputs":[],"outputs":[{"name":"","type":"uint256","internalType":"uint256"}],"stateMutability":"view"},{"type":"function","name":"minLeverage","inputs":[],"outputs":[{"name":"","type":"uint256","internalType":"uint256"}],"stateMutability":"view"},{"type":"function","name":"minMargin","inputs":[],"outputs":[{"name":"","type":"uint256","internalType":"uint256"}],"stateMutability":"view"},{"type":"function","name":"owner","inputs":[],"outputs":[{"name":"","type":"address","internalType":"address"}],"stateMutability":"view"},{"type":"function","name":"pauseReason","inputs":[],"outputs":[{"name":"","type":"string","internalType":"string"}],"stateMutability":"view"},{"type":"function","name":"pauseTrading","inputs":[{"name":"reason","type":"string","internalType":"string"}],"outputs":[],"stateMutability":"nonpayable"},{"type":"function","name":"positionManager","inputs":[],"outputs":[{"name":"","type":"address","internalType":"contract IPositionManager"}],"stateMutability":"view"},{"type":"function","name":"renounceOwnership","inputs":[],"outputs":[],"stateMutability":"nonpayable"},{"type":"function","name":"resumeTrading","inputs":[],"outputs":[],"stateMutability":"nonpayable"},{"type":"function","name":"setInsuranceCoverageRatio","inputs":[{"name":"value","type":"uint256","internalType":"uint256"}],"outputs":[],"stateMutability":"nonpayable"},{"type":"function","name":"setInsuranceFund","inputs":[{"name":"_insuranceFund","type":"address","internalType":"address"}],"outputs":[],"stateMutability":"nonpayable"},{"type":"function","name":"setMaintenanceMarginRate","inputs":[{"name":"leverage","type":"uint256","internalType":"uint256"},{"name":"rate","type":"uint256","internalType":"uint256"}],"outputs":[],"stateMutability":"nonpayable"},{"type":"function","name":"setMaxLeverage","inputs":[{"name":"value","type":"uint256","internalType":"uint256"}],"outputs":[],"stateMutability":"nonpayable"},{"type":"function","name":"setMaxOpenInterest","inputs":[{"name":"value","type":"uint256","internalType":"uint256"}],"outputs":[],"stateMutability":"nonpayable"},{"type":"function","name":"setMaxPositionSize","inputs":[{"name":"value","type":"uint256","internalType":"uint256"}],"outputs":[],"stateMutability":"nonpayable"},{"type":"function","name":"setMaxPriceImpact","inputs":[{"name":"value","type":"uint256","internalType":"uint256"}],"outputs":[],"stateMutability":"nonpayable"},{"type":"function","name":"setMaxPriceMove","inputs":[{"name":"value","type":"uint256","internalType":"uint256"}],"outputs":[],"stateMutability":"nonpayable"},{"type":"function","name":"setPositionManager","inputs":[{"name":"_positionManager","type":"address","internalType":"address"}],"outputs":[],"stateMutability":"nonpayable"},{"type":"function","name":"setVault","inputs":[{"name":"_vault","type":"address","internalType":"address"}],"outputs":[],"stateMutability":"nonpayable"},{"type":"function","name":"tradingPaused","inputs":[],"outputs":[{"name":"","type":"bool","internalType":"bool"}],"stateMutability":"view"},{"type":"function","name":"transferOwnership","inputs":[{"name":"newOwner","type":"address","internalType":"address"}],"outputs":[],"stateMutability":"nonpayable"},{"type":"function","name":"validateOpenPosition","inputs":[{"name":"user","type":"address","internalType":"address"},{"name":"isLong","type":"bool","internalType":"bool"},{"name":"size","type":"uint256","internalType":"uint256"},{"name":"leverage","type":"uint256","internalType":"uint256"}],"outputs":[{"name":"isValid","type":"bool","internalType":"bool"},{"name":"reason","type":"string","internalType":"string"}],"stateMutability":"view"},{"type":"function","name":"vault","inputs":[],"outputs":[{"name":"","type":"address","internalType":"contract IVault"}],"stateMutability":"view"},{"type":"event","name":"InsuranceFundSet","inputs":[{"name":"fund","type":"address","indexed":true,"internalType":"address"}],"anonymous":false},{"type":"event","name":"MaintenanceMarginRateUpdated","inputs":[{"name":"leverage","type":"uint256","indexed":false,"internalType":"uint256"},{"name":"rate","type":"uint256","indexed":false,"internalType":"uint256"}],"anonymous":false},{"type":"event","name":"MaxLeverageUpdated","inputs":[{"name":"oldValue","type":"uint256","indexed":false,"internalType":"uint256"},{"name":"newValue","type":"uint256","indexed":false,"internalType":"uint256"}],"anonymous":false},{"type":"event","name":"MaxOpenInterestUpdated","inputs":[{"name":"oldValue","type":"uint256","indexed":false,"internalType":"uint256"},{"name":"newValue","type":"uint256","indexed":false,"internalType":"uint256"}],"anonymous":false},{"type":"event","name":"MaxPositionSizeUpdated","inputs":[{"name":"oldValue","type":"uint256","indexed":false,"internalType":"uint256"},{"name":"newValue","type":"uint256","indexed":false,"internalType":"uint256"}],"anonymous":false},{"type":"event","name":"MaxPriceImpactUpdated","inputs":[{"name":"oldValue","type":"uint256","indexed":false,"internalType":"uint256"},{"name":"newValue","type":"uint256","indexed":false,"internalType":"uint256"}],"anonymous":false},{"type":"event","name":"OwnershipTransferred","inputs":[{"name":"previousOwner","type":"address","indexed":true,"internalType":"address"},{"name":"newOwner","type":"address","indexed":true,"internalType":"address"}],"anonymous":false},{"type":"event","name":"TradingPaused","inputs":[{"name":"reason","type":"string","indexed":false,"internalType":"string"}],"anonymous":false},{"type":"event","name":"TradingResumed","inputs":[],"anonymous":false},{"type":"error","name":"InvalidParameter","inputs":[]},{"type":"error","name":"OwnableInvalidOwner","inputs":[{"name":"owner","type":"address","internalType":"address"}]},{"type":"error","name":"OwnableUnauthorizedAccount","inputs":[{"name":"account","type":"address","internalType":"address"}]},{"type":"error","name":"TradingIsPaused","inputs":[]},{"type":"error","name":"ZeroAddress","inputs":[]}],"bytecode":{"object":"0x6080604052620000136127106064620001b5565b600455620000256127106001620001b5565b600555683635c9adc5dea0000060075569021e19e0c9bab24000006008556064600955662386f26fc10000600a556706f05b59d3b20000600b556064600c5534801562000070575f80fd5b5033806200009757604051631e4fbdf760e01b81525f600482015260240160405180910390fd5b620000a281620000b3565b50620000ad62000102565b620001df565b5f80546001600160a01b038381166001600160a01b0319831681178455604051919092169283917f8be0079c531659141344cd1fd0a4f28419497f9722a3daafe3b4186f6b6457e09190a35050565b6611c37937e0800060065f6200011c612710600a620001b5565b81526020019081526020015f2081905550662386f26fc1000060065f6127106019620001499190620001b5565b81526020019081526020015f208190555066470de4df82000060065f6127106032620001769190620001b5565b81526020019081526020015f208190555066b1a2bc2ec5000060065f6127106064620001a39190620001b5565b815260208101919091526040015f2055565b8082028115828204841417620001d957634e487b7160e01b5f52601160045260245ffd5b92915050565b611c2980620001ed5f395ff3fe608060405234801561000f575f80fd5b50600436106101f7575f3560e01c806304caa6dd146101fb57806305ad00ff146102195780630694db1e1461023a5780630ea8b3bf1461024457806316c8357f1461024c5780631b5730191461025557806320f6f76f1461026857806326a9c12114610271578063295b8b4e1461028457806336b4ae39146102a357806339c294be146102b657806340650eef146102bf57806347977021146102d257806353e23e2e146102e55780635760f2e31461030257806360c7a17f14610315578063652dd22e146103285780636817031b146103305780636cd56d68146103435780636de47e4d14610368578063715018a61461037b578063739ace6314610383578063791b98bc146103995780637bdc9a20146103b95780638da5cb5b146103de5780638da793b2146103e65780639202fa6f146103ef578063941b473314610402578063a329dc571461040a578063aaf5eb6814610413578063ae26a6c114610422578063ae3302c21461042b578063b790230314610434578063c082173e14610447578063c3c0529314610450578063c85b353214610463578063d3127e6314610486578063d946154514610499578063da65aad6146104a1578063dc6638f4146104a9578063ddac9a0b146104b2578063f2fde38b146104d3578063fbfa77cf146104e6575b5f80fd5b6102036104f9565b60405161021091906116e4565b60405180910390f35b61022c6102273660046116f6565b610585565b604051908152602001610210565b610242610595565b005b60045461022c565b61022c60095481565b6102426102633660046116f6565b6105ed565b61022c60055481565b61024261027f3660046116f6565b610658565b61022c6102923660046116f6565b60066020525f908152604090205481565b6102426102b13660046116f6565b6106a0565b61022c600a5481565b6102426102cd3660046116f6565b6106d6565b6102426102e036600461170d565b61071e565b600d546102f29060ff1681565b6040519015158152602001610210565b610242610310366004611743565b61079d565b61024261032336600461175c565b6107ee565b60075461022c565b61024261033e366004611743565b610842565b61034b610893565b604080519315158452911515602084015290820152606001610210565b61022c61037636600461170d565b610a61565b610242610ac4565b61038b610ad7565b604051610210929190611801565b6001546103ac906001600160a01b031681565b604051610210919061182e565b6103c1610c48565b604080519315158452602084019290925290820152606001610210565b6103ac610c8a565b61022c61271081565b6102426103fd3660046116f6565b610c98565b60095461022c565b61022c60075481565b61022c670de0b6b3a764000081565b61022c600c5481565b61022c60045481565b6003546103ac906001600160a01b031681565b61022c600b5481565b61024261045e366004611743565b610ca5565b61046b610d1d565b60408051938452602084019290925290820152606001610210565b6102426104943660046116f6565b610e9d565b60085461022c565b61022c610f1e565b61022c60085481565b6104c56104c0366004611842565b610f46565b604051610210929190611887565b6102426104e1366004611743565b6113b7565b6002546103ac906001600160a01b031681565b600e8054610506906118a9565b80601f0160208091040260200160405190810160405280929190818152602001828054610532906118a9565b801561057d5780601f106105545761010080835404028352916020019161057d565b820191905f5260205f20905b81548152906001019060200180831161056057829003601f168201915b505050505081565b5f61058f826113fd565b92915050565b61059d611491565b600d805460ff1916905560408051602081019091525f8152600e906105c29082611955565b506040517f0c855aee6ba0b54704edf9fa3d2172dbae0a1d765e86020a8f9918fdac6b25d7905f90a1565b6105f5611491565b6103e881111561061857604051630309cb8760e51b815260040160405180910390fd5b7fba3a48c7aaf157c0f6bb2633c7cca8558407b7c44e7a728073fa480ba3562b056009548260405161064b929190611a0f565b60405180910390a1600955565b610660611491565b7f6983c3318e207cd74a5d9e2cd4d58558c0e486cce5e540cffc6da5d81589923c60075482604051610693929190611a0f565b60405180910390a1600755565b6106a8611491565b670de0b6b3a76400008111156106d157604051630309cb8760e51b815260040160405180910390fd5b600b55565b6106de611491565b7f672c0a156ee23d5a79ee89b233d6d30458115eabf152fb294cb8a894eadeeb1160085482604051610711929190611a0f565b60405180910390a1600855565b610726611491565b670de0b6b3a764000081111561074f57604051630309cb8760e51b815260040160405180910390fd5b5f8281526006602052604090819020829055517fef380d8522c6bef060542e384f0cb7b829e487ac3e6103469d3b2f46b6bfd52e906107919084908490611a0f565b60405180910390a15050565b6107a5611491565b6001600160a01b0381166107cc5760405163d92e233d60e01b815260040160405180910390fd5b600180546001600160a01b0319166001600160a01b0392909216919091179055565b6107f6611491565b600d805460ff19166001179055600e610810828483611a1d565b507f80ebf2c742af9c41b661983eb3f5313a6e8627060ffb17586d3e8621306538248282604051610791929190611ad1565b61084a611491565b6001600160a01b0381166108715760405163d92e233d60e01b815260040160405180910390fd5b600280546001600160a01b0319166001600160a01b0392909216919091179055565b5f805f805f806108a1610c48565b92509250925082156108bc57505f9586955085945092505050565b600195505f60015f9054906101000a90046001600160a01b03166001600160a01b031663e74131276040518163ffffffff1660e01b8152600401602060405180830381865afa158015610911573d5f803e3d5ffd5b505050506040513d601f19601f820116820180604052508101906109359190611aff565b90505f60015f9054906101000a90046001600160a01b03166001600160a01b031663cb47a60b6040518163ffffffff1660e01b8152600401602060405180830381865afa158015610988573d5f803e3d5ffd5b505050506040513d601f19601f820116820180604052508101906109ac9190611aff565b905080821115610a0957600196505f6109c58284611b2a565b90505f6109d28686611b2a565b600b549091506109ea670de0b6b3a764000083611b3d565b6109f49190611b54565b975081881115610a02578197505b5050610a57565b5f965086610a178383611b2a565b90505f610a248686611b2a565b600b54909150610a3c670de0b6b3a764000083611b3d565b610a469190611b54565b975081881115610a54578197505b50505b5050505050909192565b5f821580610a6d575081155b15610a7b575060055461058f565b5f83610a8961271085611b3d565b610a939190611b54565b9050600454811115610aa957505060045461058f565b600554811015610abd57505060055461058f565b9392505050565b610acc611491565b610ad55f6114c3565b565b60408051600480825260a0820190925260609182919060208201608080368337505060408051600480825260a08201909252929450905060208201608080368337019050509050620186a0825f81518110610b3457610b34611b73565b6020026020010181815250506611c37937e08000815f81518110610b5a57610b5a611b73565b6020026020010181815250506203d09082600181518110610b7d57610b7d611b73565b602002602001018181525050662386f26fc1000081600181518110610ba457610ba4611b73565b6020026020010181815250506207a12082600281518110610bc757610bc7611b73565b60200260200101818152505066470de4df82000081600281518110610bee57610bee611b73565b602002602001018181525050620f424082600381518110610c1157610c11611b73565b60200260200101818152505066b1a2bc2ec5000081600381518110610c3857610c38611b73565b6020026020010181815250509091565b5f805f80610c54610d1d565b92505050610c60610f1e565b92506064600c5482610c729190611b3d565b610c7c9190611b54565b915081831015935050909192565b5f546001600160a01b031690565b610ca0611491565b600c55565b610cad611491565b6001600160a01b038116610cd45760405163d92e233d60e01b815260040160405180910390fd5b600380546001600160a01b0319166001600160a01b0383169081179091556040517f5f5e1360fb9bbf3f1dd392d5153831cc6fa952aad577bbbb06e51fea4174cd08905f90a250565b6001545f90819081906001600160a01b0316610d3e57505f92839250829150565b6001546040805163e741312760e01b815290515f926001600160a01b03169163e74131279160048083019260209291908290030181865afa158015610d85573d5f803e3d5ffd5b505050506040513d601f19601f82011682018060405250810190610da99190611aff565b90505f60015f9054906101000a90046001600160a01b03166001600160a01b031663cb47a60b6040518163ffffffff1660e01b8152600401602060405180830381865afa158015610dfc573d5f803e3d5ffd5b505050506040513d601f19601f82011682018060405250810190610e209190611aff565b905080821115610e5e57610e348183611b2a565b9450670de0b6b3a7640000600b5486610e4d9190611b3d565b610e579190611b54565b9250610e96565b81811115610e9657610e708282611b2a565b9350670de0b6b3a7640000600b5485610e899190611b3d565b610e939190611b54565b92505b5050909192565b610ea5611491565b600554811080610ec05750610ebd61271060c8611b3d565b81115b15610ede57604051630309cb8760e51b815260040160405180910390fd5b7fc40265c19866109dc8f33bf7b08b628b97728ad445b658e40153023e3800255c60045482604051610f11929190611a0f565b60405180910390a1600455565b6003545f906001600160a01b0316610f3557505f90565b506003546001600160a01b03163190565b600d545f9060609060ff1615610fec575f600e808054610f65906118a9565b80601f0160208091040260200160405190810160405280929190818152602001828054610f91906118a9565b8015610fdc5780601f10610fb357610100808354040283529160200191610fdc565b820191905f5260205f20905b815481529060010190602001808311610fbf57829003601f168201915b50505050509050915091506113ae565b60055483101561102657505060408051808201909152601081526f4c6576657261676520746f6f206c6f7760801b60208201525f906113ae565b600454831115611061575050604080518082019091526011815270098caeccae4c2ceca40e8dede40d0d2ced607b1b60208201525f906113ae565b835f0361109b57505060408051808201909152601381527253697a652063616e6e6f74206265207a65726f60681b60208201525f906113ae565b6007548411156110e057505060408051808201909152601b81527a141bdcda5d1a5bdb881cda5e9948195e18d959591cc81b1a5b5a5d602a1b60208201525f906113ae565b5f836110ee61271087611b3d565b6110f89190611b54565b9050600a5481101561113557505060408051808201909152601081526f13585c99da5b881d1bdbc81cdb585b1b60821b60208201525f91506113ae565b6002546001600160a01b0316156112145760025460405163f8b2cb4f60e01b81525f916001600160a01b03169063f8b2cb4f90611176908b9060040161182e565b602060405180830381865afa158015611191573d5f803e3d5ffd5b505050506040513d601f19601f820116820180604052508101906111b59190611aff565b90505f6111c46103e888611b54565b90506111d08184611b87565b821015611211575f60405180604001604052806014815260200173496e73756666696369656e742062616c616e636560601b815250945094505050506113ae565b50505b6001546001600160a01b031615611399576001546040805163e741312760e01b815290515f926001600160a01b03169163e74131279160048083019260209291908290030181865afa15801561126c573d5f803e3d5ffd5b505050506040513d601f19601f820116820180604052508101906112909190611aff565b90505f60015f9054906101000a90046001600160a01b03166001600160a01b031663cb47a60b6040518163ffffffff1660e01b8152600401602060405180830381865afa1580156112e3573d5f803e3d5ffd5b505050506040513d601f19601f820116820180604052508101906113079190611aff565b90505f876113158385611b87565b61131f9190611b87565b905060085481111561136c575f6040518060400160405280601a81526020017913585e081bdc195b881a5b9d195c995cdd08195e18d95959195960321b81525095509550505050506113ae565b5f8061137a8b8b8787611512565b9150915081611393575f975095506113ae945050505050565b50505050505b505060408051602081019091525f8152600191505b94509492505050565b6113bf611491565b6001600160a01b0381166113f1575f604051631e4fbdf760e01b81526004016113e8919061182e565b60405180910390fd5b6113fa816114c3565b50565b5f61140b612710600a611b3d565b82116114365760065f611421612710600a611b3d565b81526020019081526020015f20549050919050565b6114436127106019611b3d565b82116114595760065f6114216127106019611b3d565b6114666127106032611b3d565b821161147c5760065f6114216127106032611b3d565b60065f6114216127106064611b3d565b919050565b3361149a610c8a565b6001600160a01b031614610ad5573360405163118cdaa760e01b81526004016113e8919061182e565b5f80546001600160a01b038381166001600160a01b0319831681178455604051919092169283917f8be0079c531659141344cd1fd0a4f28419497f9722a3daafe3b4186f6b6457e09190a35050565b5f60605f86611521578461152b565b61152b8686611b87565b90505f876115425761153d8786611b87565b611544565b845b90505f81831115611585575f61155a8385611b2a565b9050670de0b6b3a7640000600b54826115739190611b3d565b61157d9190611b54565b9150506115bf565b828211156115bf575f6115988484611b2a565b9050670de0b6b3a7640000600b54826115b19190611b3d565b6115bb9190611b54565b9150505b5f6115c8610f1e565b90505f6064600c54846115db9190611b3d565b6115e59190611b54565b905080821061160d57600160405180602001604052805f8152509650965050505050506113ae565b8a801561161957508385115b15611646575f6040518060600160405280602c8152602001611b9b602c91399650965050505050506113ae565b8a15801561165357508484115b15611680575f6040518060600160405280602d8152602001611bc7602d91399650965050505050506113ae565b505060408051602081019091525f815260019a909950975050505050505050565b5f81518084525f5b818110156116c5576020818501810151868301820152016116a9565b505f602082860101526020601f19601f83011685010191505092915050565b602081525f610abd60208301846116a1565b5f60208284031215611706575f80fd5b5035919050565b5f806040838503121561171e575f80fd5b50508035926020909101359150565b80356001600160a01b038116811461148c575f80fd5b5f60208284031215611753575f80fd5b610abd8261172d565b5f806020838503121561176d575f80fd5b82356001600160401b0380821115611783575f80fd5b818501915085601f830112611796575f80fd5b8135818111156117a4575f80fd5b8660208285010111156117b5575f80fd5b60209290920196919550909350505050565b5f815180845260208085019450602084015f5b838110156117f6578151875295820195908201906001016117da565b509495945050505050565b604081525f61181360408301856117c7565b828103602084015261182581856117c7565b95945050505050565b6001600160a01b0391909116815260200190565b5f805f8060808587031215611855575f80fd5b61185e8561172d565b935060208501358015158114611872575f80fd5b93969395505050506040820135916060013590565b8215158152604060208201525f6118a160408301846116a1565b949350505050565b600181811c908216806118bd57607f821691505b6020821081036118db57634e487b7160e01b5f52602260045260245ffd5b50919050565b634e487b7160e01b5f52604160045260245ffd5b601f82111561193c57805f5260205f20601f840160051c8101602085101561191a5750805b601f840160051c820191505b81811015611939575f8155600101611926565b50505b505050565b5f19600383901b1c191660019190911b1790565b81516001600160401b0381111561196e5761196e6118e1565b6119828161197c84546118a9565b846118f5565b602080601f8311600181146119b0575f841561199e5750858301515b6119a88582611941565b865550611a07565b5f85815260208120601f198616915b828110156119de578886015182559484019460019091019084016119bf565b50858210156119fb57878501515f19600388901b60f8161c191681555b505060018460011b0185555b505050505050565b918252602082015260400190565b6001600160401b03831115611a3457611a346118e1565b611a4883611a4283546118a9565b836118f5565b5f601f841160018114611a74575f8515611a625750838201355b611a6c8682611941565b845550611939565b5f83815260208120601f198716915b82811015611aa35786850135825560209485019460019092019101611a83565b5086821015611abf575f1960f88860031b161c19848701351681555b505060018560011b0183555050505050565b60208152816020820152818360408301375f818301604090810191909152601f909201601f19160101919050565b5f60208284031215611b0f575f80fd5b5051919050565b634e487b7160e01b5f52601160045260245ffd5b8181038181111561058f5761058f611b16565b808202811582820484141761058f5761058f611b16565b5f82611b6e57634e487b7160e01b5f52601260045260245ffd5b500490565b634e487b7160e01b5f52603260045260245ffd5b8082018082111561058f5761058f611b1656fe4c6f6e67207369646520696d62616c616e6365642c20696e737572616e636520696e73756666696369656e7453686f7274207369646520696d62616c616e6365642c20696e737572616e636520696e73756666696369656e74a2646970667358221220ef42d1cb46ef4803a3fb968417577e1ca0140d6dd35ed982c1d458ef0f83767264736f6c63430008180033","linkReferences":{}},"methodIdentifiers":{"LEVERAGE_PRECISION()":"8da793b2","PRECISION()":"aaf5eb68","checkADLRequired()":"6cd56d68","checkInsuranceCoverage()":"7bdc9a20","getImbalanceRisk()":"c85b3532","getInsuranceFundBalance()":"da65aad6","getMaintenanceMarginRate(uint256)":"05ad00ff","getMarginRateTable()":"739ace63","getMaxLeverage()":"0ea8b3bf","getMaxOpenInterest()":"d9461545","getMaxPositionSize()":"652dd22e","getMaxPriceImpact()":"941b4733","getSuggestedLeverage(uint256,uint256)":"6de47e4d","insuranceCoverageRatio()":"ae26a6c1","insuranceFund()":"b7902303","maintenanceMarginRates(uint256)":"295b8b4e","maxLeverage()":"ae3302c2","maxOpenInterest()":"dc6638f4","maxPositionSize()":"a329dc57","maxPriceImpact()":"16c8357f","maxPriceMove()":"c082173e","minLeverage()":"20f6f76f","minMargin()":"39c294be","owner()":"8da5cb5b","pauseReason()":"04caa6dd","pauseTrading(string)":"60c7a17f","positionManager()":"791b98bc","renounceOwnership()":"715018a6","resumeTrading()":"0694db1e","setInsuranceCoverageRatio(uint256)":"9202fa6f","setInsuranceFund(address)":"c3c05293","setMaintenanceMarginRate(uint256,uint256)":"47977021","setMaxLeverage(uint256)":"d3127e63","setMaxOpenInterest(uint256)":"40650eef","setMaxPositionSize(uint256)":"26a9c121","setMaxPriceImpact(uint256)":"1b573019","setMaxPriceMove(uint256)":"36b4ae39","setPositionManager(address)":"5760f2e3","setVault(address)":"6817031b","tradingPaused()":"53e23e2e","transferOwnership(address)":"f2fde38b","validateOpenPosition(address,bool,uint256,uint256)":"ddac9a0b","vault()":"fbfa77cf"},"id":94}