{"abi":[{"type":"constructor","inputs":[{"name":"_memeToken","type":"address","internalType":"address"}],"stateMutability":"nonpayable"},{"type":"receive","stateMutability":"payable"},{"type":"function","name":"addCollateral","inputs":[],"outputs":[],"stateMutability":"payable"},{"type":"function","name":"amm","inputs":[],"outputs":[{"name":"","type":"address","internalType":"contract IAMM"}],"stateMutability":"view"},{"type":"function","name":"claimLPRewards","inputs":[],"outputs":[{"name":"interest","type":"uint256","internalType":"uint256"}],"stateMutability":"nonpayable"},{"type":"function","name":"claimReferralRewards","inputs":[],"outputs":[{"name":"reward","type":"uint256","internalType":"uint256"}],"stateMutability":"nonpayable"},{"type":"function","name":"closeAndWithdraw","inputs":[],"outputs":[],"stateMutability":"nonpayable"},{"type":"function","name":"closePosition","inputs":[],"outputs":[],"stateMutability":"nonpayable"},{"type":"function","name":"closePositionPartial","inputs":[{"name":"percentage","type":"uint256","internalType":"uint256"}],"outputs":[],"stateMutability":"nonpayable"},{"type":"function","name":"depositAndOpenLong","inputs":[{"name":"size","type":"uint256","internalType":"uint256"},{"name":"leverage","type":"uint256","internalType":"uint256"}],"outputs":[],"stateMutability":"payable"},{"type":"function","name":"depositAndOpenShort","inputs":[{"name":"size","type":"uint256","internalType":"uint256"},{"name":"leverage","type":"uint256","internalType":"uint256"}],"outputs":[],"stateMutability":"payable"},{"type":"function","name":"depositLP","inputs":[{"name":"memeAmount","type":"uint256","internalType":"uint256"}],"outputs":[{"name":"lpTokens","type":"uint256","internalType":"uint256"}],"stateMutability":"nonpayable"},{"type":"function","name":"depositMargin","inputs":[],"outputs":[],"stateMutability":"payable"},{"type":"function","name":"getAmountOut","inputs":[{"name":"isBuy","type":"bool","internalType":"bool"},{"name":"amountIn","type":"uint256","internalType":"uint256"}],"outputs":[{"name":"","type":"uint256","internalType":"uint256"}],"stateMutability":"view"},{"type":"function","name":"getMarginBalance","inputs":[{"name":"user","type":"address","internalType":"address"}],"outputs":[{"name":"","type":"uint256","internalType":"uint256"}],"stateMutability":"view"},{"type":"function","name":"getSpotPrice","inputs":[],"outputs":[{"name":"","type":"uint256","internalType":"uint256"}],"stateMutability":"view"},{"type":"function","name":"lendingPool","inputs":[],"outputs":[{"name":"","type":"address","internalType":"contract ILendingPool"}],"stateMutability":"view"},{"type":"function","name":"memeToken","inputs":[],"outputs":[{"name":"","type":"address","internalType":"contract IERC20"}],"stateMutability":"view"},{"type":"function","name":"openLong","inputs":[{"name":"size","type":"uint256","internalType":"uint256"},{"name":"leverage","type":"uint256","internalType":"uint256"}],"outputs":[],"stateMutability":"nonpayable"},{"type":"function","name":"openShort","inputs":[{"name":"size","type":"uint256","internalType":"uint256"},{"name":"leverage","type":"uint256","internalType":"uint256"}],"outputs":[],"stateMutability":"nonpayable"},{"type":"function","name":"owner","inputs":[],"outputs":[{"name":"","type":"address","internalType":"address"}],"stateMutability":"view"},{"type":"function","name":"positionManager","inputs":[],"outputs":[{"name":"","type":"address","internalType":"contract IPositionManager"}],"stateMutability":"view"},{"type":"function","name":"referral","inputs":[],"outputs":[{"name":"","type":"address","internalType":"contract IReferral"}],"stateMutability":"view"},{"type":"function","name":"removeCollateral","inputs":[{"name":"amount","type":"uint256","internalType":"uint256"}],"outputs":[],"stateMutability":"nonpayable"},{"type":"function","name":"renounceOwnership","inputs":[],"outputs":[],"stateMutability":"nonpayable"},{"type":"function","name":"setAMM","inputs":[{"name":"_amm","type":"address","internalType":"address"}],"outputs":[],"stateMutability":"nonpayable"},{"type":"function","name":"setLendingPool","inputs":[{"name":"_lendingPool","type":"address","internalType":"address"}],"outputs":[],"stateMutability":"nonpayable"},{"type":"function","name":"setPositionManager","inputs":[{"name":"_positionManager","type":"address","internalType":"address"}],"outputs":[],"stateMutability":"nonpayable"},{"type":"function","name":"setReferral","inputs":[{"name":"_referral","type":"address","internalType":"address"}],"outputs":[],"stateMutability":"nonpayable"},{"type":"function","name":"setReferrer","inputs":[{"name":"_referrer","type":"address","internalType":"address"}],"outputs":[],"stateMutability":"nonpayable"},{"type":"function","name":"setVault","inputs":[{"name":"_vault","type":"address","internalType":"address"}],"outputs":[],"stateMutability":"nonpayable"},{"type":"function","name":"swapBNBForMeme","inputs":[{"name":"minOut","type":"uint256","internalType":"uint256"}],"outputs":[{"name":"memeOut","type":"uint256","internalType":"uint256"}],"stateMutability":"payable"},{"type":"function","name":"swapMemeForBNB","inputs":[{"name":"memeAmount","type":"uint256","internalType":"uint256"},{"name":"minOut","type":"uint256","internalType":"uint256"}],"outputs":[{"name":"bnbOut","type":"uint256","internalType":"uint256"}],"stateMutability":"nonpayable"},{"type":"function","name":"transferOwnership","inputs":[{"name":"newOwner","type":"address","internalType":"address"}],"outputs":[],"stateMutability":"nonpayable"},{"type":"function","name":"vault","inputs":[],"outputs":[{"name":"","type":"address","internalType":"contract IVault"}],"stateMutability":"view"},{"type":"function","name":"withdrawLP","inputs":[{"name":"lpTokens","type":"uint256","internalType":"uint256"}],"outputs":[{"name":"memeOut","type":"uint256","internalType":"uint256"}],"stateMutability":"nonpayable"},{"type":"function","name":"withdrawMargin","inputs":[{"name":"amount","type":"uint256","internalType":"uint256"}],"outputs":[],"stateMutability":"nonpayable"},{"type":"event","name":"ContractUpdated","inputs":[{"name":"name","type":"string","indexed":false,"internalType":"string"},{"name":"newAddress","type":"address","indexed":false,"internalType":"address"}],"anonymous":false},{"type":"event","name":"OwnershipTransferred","inputs":[{"name":"previousOwner","type":"address","indexed":true,"internalType":"address"},{"name":"newOwner","type":"address","indexed":true,"internalType":"address"}],"anonymous":false},{"type":"error","name":"OwnableInvalidOwner","inputs":[{"name":"owner","type":"address","internalType":"address"}]},{"type":"error","name":"OwnableUnauthorizedAccount","inputs":[{"name":"account","type":"address","internalType":"address"}]},{"type":"error","name":"ReentrancyGuardReentrantCall","inputs":[]},{"type":"error","name":"SafeERC20FailedOperation","inputs":[{"name":"token","type":"address","internalType":"address"}]},{"type":"error","name":"TransferFailed","inputs":[]},{"type":"error","name":"ZeroAddress","inputs":[]}],"bytecode":{"object":"0x608060405234801562000010575f80fd5b50604051620019da380380620019da833981016040819052620000339162000126565b33806200005957604051631e4fbdf760e01b81525f600482015260240160405180910390fd5b6200006481620000d7565b5060017f9b779b17422d0df92223018b32b4d1fa46e071723d6817e2486d003becc55f00556001600160a01b038116620000b15760405163d92e233d60e01b815260040160405180910390fd5b600180546001600160a01b0319166001600160a01b039290921691909117905562000155565b5f80546001600160a01b038381166001600160a01b0319831681178455604051919092169283917f8be0079c531659141344cd1fd0a4f28419497f9722a3daafe3b4186f6b6457e09190a35050565b5f6020828403121562000137575f80fd5b81516001600160a01b03811681146200014e575f80fd5b9392505050565b61187780620001635f395ff3fe608060405260043610610196575f3560e01c806305eaab4b146101a15780630cea7534146101c8578063113aa8b1146101e95780631266a619146102085780631441a5a9146102275780632a943945146102535780633237c158146102725780633cad2a0a1461029157806343cafe7f146102a55780635760f2e3146102ad5780636817031b146102cc578063715018a6146102eb578063791b98bc146102ff5780638290d9b81461031e5780638da5cb5b1461033d578063972598e7146103515780639c5a6079146103705780639e5914da1461038f5780639e816999146103ae578063a18a7bfc146103b6578063a236a1b4146103d5578063a59a9973146103e8578063aa8ea3a014610407578063b472356014610426578063c181d41814610445578063c393d0e314610464578063d5cb45c714610478578063dc76fabc1461048b578063e4456ecb1461049f578063eaa0fd59146104be578063eb37acfc146104d1578063ef9f5785146104f0578063f2fde38b1461050f578063fa7de25e1461052e578063fbfa77cf14610542575f80fd5b3661019d57005b5f80fd5b3480156101ac575f80fd5b506101b5610561565b6040519081526020015b60405180910390f35b3480156101d3575f80fd5b506101e76101e2366004611719565b6105ec565b005b3480156101f4575f80fd5b506101e7610203366004611730565b6106bf565b348015610213575f80fd5b506101e761022236600461175d565b61072f565b348015610232575f80fd5b50600654610246906001600160a01b031681565b6040516101bf919061177d565b34801561025e575f80fd5b50600354610246906001600160a01b031681565b34801561027d575f80fd5b506101e761028c366004611719565b6107a2565b34801561029c575f80fd5b506101b561080c565b6101e76108a6565b3480156102b8575f80fd5b506101e76102c7366004611730565b61091c565b3480156102d7575f80fd5b506101e76102e6366004611730565b610989565b3480156102f6575f80fd5b506101e76109ec565b34801561030a575f80fd5b50600554610246906001600160a01b031681565b348015610329575f80fd5b506101b561033836600461179e565b6109fd565b348015610348575f80fd5b50610246610a79565b34801561035c575f80fd5b50600154610246906001600160a01b031681565b34801561037b575f80fd5b506101e761038a366004611719565b610a87565b34801561039a575f80fd5b506101e76103a9366004611730565b610ac0565b6101e7610b26565b3480156103c1575f80fd5b506101e76103d0366004611730565b610bf3565b6101e76103e336600461175d565b610c53565b3480156103f3575f80fd5b50600454610246906001600160a01b031681565b348015610412575f80fd5b506101e7610421366004611730565b610cf1565b348015610431575f80fd5b506101b561044036600461175d565b610d4c565b348015610450575f80fd5b506101e761045f36600461175d565b610ec8565b34801561046f575f80fd5b506101e7610f02565b6101b5610486366004611719565b610f56565b348015610496575f80fd5b506101b5610ff5565b3480156104aa575f80fd5b506101b56104b9366004611719565b611065565b6101e76104cc36600461175d565b6110d8565b3480156104dc575f80fd5b506101b56104eb366004611719565b611176565b3480156104fb575f80fd5b506101b561050a366004611730565b611282565b34801561051a575f80fd5b506101e7610529366004611730565b6112f1565b348015610539575f80fd5b506101e7611334565b34801561054d575f80fd5b50600254610246906001600160a01b031681565b5f61056a6114e1565b60065f9054906101000a90046001600160a01b03166001600160a01b031663fad99f986040518163ffffffff1660e01b81526004016020604051808303815f875af11580156105bb573d5f803e3d5ffd5b505050506040513d601f19601f820116820180604052508101906105df91906117c8565b90506105e96114f9565b90565b6105f46114e1565b600254604051632e1a7d4d60e01b8152600481018390526001600160a01b0390911690632e1a7d4d906024015f604051808303815f87803b158015610637575f80fd5b505af1158015610649573d5f803e3d5ffd5b50506040515f925033915083908381818185875af1925050503d805f811461068c576040519150601f19603f3d011682016040523d82523d5f602084013e610691565b606091505b50509050806106b3576040516312171d8360e31b815260040160405180910390fd5b506106bc6114f9565b50565b6106c7611506565b600480546001600160a01b0319166001600160a01b03831690811790915560408051818152600b918101919091526a1b195b991a5b99d41bdbdb60aa1b606082015260208101919091525f80516020611822833981519152906080015b60405180910390a150565b6107376114e1565b600554604051631266a61960e01b81526001600160a01b0390911690631266a6199061076990859085906004016117df565b5f604051808303815f87803b158015610780575f80fd5b505af1158015610792573d5f803e3d5ffd5b5050505061079e6114f9565b5050565b6107aa6114e1565b600554604051630646f82b60e31b8152600481018390526001600160a01b0390911690633237c158906024015b5f604051808303815f87803b1580156107ee575f80fd5b505af1158015610800573d5f803e3d5ffd5b505050506106bc6114f9565b5f6108156114e1565b60048054604080516306b303fb60e31b815290516001600160a01b03909216926335981fd892828201926020929082900301815f875af115801561085b573d5f803e3d5ffd5b505050506040513d601f19601f8201168201806040525081019061087f91906117c8565b9050801561089e5760015461089e906001600160a01b03163383611538565b6105e96114f9565b6108ae6114e1565b60025f9054906101000a90046001600160a01b03166001600160a01b031663d0e30db0346040518263ffffffff1660e01b81526004015f604051808303818588803b1580156108fb575f80fd5b505af115801561090d573d5f803e3d5ffd5b505050505061091a6114f9565b565b610924611506565b600580546001600160a01b0319166001600160a01b03831690811790915560408051818152600f918101919091526e3837b9b4ba34b7b726b0b730b3b2b960891b606082015260208101919091525f8051602061182283398151915290608001610724565b610991611506565b600280546001600160a01b0319166001600160a01b03831690811790915560408051818152600591810191909152641d985d5b1d60da1b606082015260208101919091525f8051602061182283398151915290608001610724565b6109f4611506565b61091a5f611569565b6003546040516310521b3760e31b81528315156004820152602481018390525f916001600160a01b031690638290d9b890604401602060405180830381865afa158015610a4c573d5f803e3d5ffd5b505050506040513d601f19601f82011682018060405250810190610a7091906117c8565b90505b92915050565b5f546001600160a01b031690565b610a8f6114e1565b600554604051639c5a607960e01b8152600481018390526001600160a01b0390911690639c5a6079906024016107d7565b610ac8611506565b600680546001600160a01b0319166001600160a01b03831690811790915560408051818152600891810191909152671c9959995c9c985b60c21b606082015260208101919091525f8051602061182283398151915290608001610724565b610b2e6114e1565b60025f9054906101000a90046001600160a01b03166001600160a01b031663d0e30db0346040518263ffffffff1660e01b81526004015f604051808303818588803b158015610b7b575f80fd5b505af1158015610b8d573d5f803e3d5ffd5b505060055460405163bcc46e8360e01b81523460048201526001600160a01b03909116935063bcc46e83925060240190505f604051808303815f87803b158015610bd5575f80fd5b505af1158015610be7573d5f803e3d5ffd5b5050505061091a6114f9565b6006546040516328629eff60e21b81526001600160a01b039091169063a18a7bfc90610c2390849060040161177d565b5f604051808303815f87803b158015610c3a575f80fd5b505af1158015610c4c573d5f803e3d5ffd5b5050505050565b610c5b6114e1565b60025f9054906101000a90046001600160a01b03166001600160a01b031663d0e30db0346040518263ffffffff1660e01b81526004015f604051808303818588803b158015610ca8575f80fd5b505af1158015610cba573d5f803e3d5ffd5b50506005546040516318303a8360e31b81526001600160a01b03909116935063c181d41892506107699150859085906004016117df565b610cf9611506565b600380546001600160a01b0319166001600160a01b0383169081178255604080518181529081019290925262616d6d60e81b606083015260208201525f8051602061182283398151915290608001610724565b5f610d556114e1565b600154610d6d906001600160a01b03163330866115b8565b60015460035460405163095ea7b360e01b81526001600160a01b039283169263095ea7b392610da39291169087906004016117ed565b6020604051808303815f875af1158015610dbf573d5f803e3d5ffd5b505050506040513d601f19601f82011682018060405250810190610de39190611806565b506003546040516305a391ab60e51b81526001600160a01b039091169063b472356090610e1690869086906004016117df565b6020604051808303815f875af1158015610e32573d5f803e3d5ffd5b505050506040513d601f19601f82011682018060405250810190610e5691906117c8565b6040519091505f90339083908381818185875af1925050503d805f8114610e98576040519150601f19603f3d011682016040523d82523d5f602084013e610e9d565b606091505b5050905080610ebf576040516312171d8360e31b815260040160405180910390fd5b50610a736114f9565b610ed06114e1565b6005546040516318303a8360e31b81526001600160a01b039091169063c181d4189061076990859085906004016117df565b610f0a6114e1565b60055f9054906101000a90046001600160a01b03166001600160a01b031663c393d0e36040518163ffffffff1660e01b81526004015f604051808303815f87803b158015610bd5575f80fd5b5f610f5f6114e1565b60035460405163d5cb45c760e01b8152600481018490526001600160a01b039091169063d5cb45c790349060240160206040518083038185885af1158015610fa9573d5f803e3d5ffd5b50505050506040513d601f19601f82011682018060405250810190610fce91906117c8565b600154909150610fe8906001600160a01b03163383611538565b610ff06114f9565b919050565b6003546040805163371dbeaf60e21b815290515f926001600160a01b03169163dc76fabc9160048083019260209291908290030181865afa15801561103c573d5f803e3d5ffd5b505050506040513d601f19601f8201168201806040525081019061106091906117c8565b905090565b5f61106e6114e1565b60048054604051632e1a7d4d60e01b81529182018490526001600160a01b031690632e1a7d4d906024016020604051808303815f875af11580156110b4573d5f803e3d5ffd5b505050506040513d601f19601f82011682018060405250810190610fce91906117c8565b6110e06114e1565b60025f9054906101000a90046001600160a01b03166001600160a01b031663d0e30db0346040518263ffffffff1660e01b81526004015f604051808303818588803b15801561112d575f80fd5b505af115801561113f573d5f803e3d5ffd5b5050600554604051631266a61960e01b81526001600160a01b039091169350631266a61992506107699150859085906004016117df565b5f61117f6114e1565b600154611197906001600160a01b03163330856115b8565b6001546004805460405163095ea7b360e01b81526001600160a01b039384169363095ea7b3936111cd93909116918791016117ed565b6020604051808303815f875af11580156111e9573d5f803e3d5ffd5b505050506040513d601f19601f8201168201806040525081019061120d9190611806565b506004805460405163b6b55f2560e01b81529182018490526001600160a01b03169063b6b55f25906024016020604051808303815f875af1158015611254573d5f803e3d5ffd5b505050506040513d601f19601f8201168201806040525081019061127891906117c8565b9050610ff06114f9565b60025460405163f8b2cb4f60e01b81525f916001600160a01b03169063f8b2cb4f906112b290859060040161177d565b602060405180830381865afa1580156112cd573d5f803e3d5ffd5b505050506040513d601f19601f82011682018060405250810190610a7391906117c8565b6112f9611506565b6001600160a01b03811661132b575f604051631e4fbdf760e01b8152600401611322919061177d565b60405180910390fd5b6106bc81611569565b61133c6114e1565b60055f9054906101000a90046001600160a01b03166001600160a01b031663c393d0e36040518163ffffffff1660e01b81526004015f604051808303815f87803b158015611388575f80fd5b505af115801561139a573d5f803e3d5ffd5b505060025460405163f8b2cb4f60e01b81525f93506001600160a01b03909116915063f8b2cb4f906113d090339060040161177d565b602060405180830381865afa1580156113eb573d5f803e3d5ffd5b505050506040513d601f19601f8201168201806040525081019061140f91906117c8565b905080156114d857600254604051632e1a7d4d60e01b8152600481018390526001600160a01b0390911690632e1a7d4d906024015f604051808303815f87803b15801561145a575f80fd5b505af115801561146c573d5f803e3d5ffd5b50506040515f925033915083908381818185875af1925050503d805f81146114af576040519150601f19603f3d011682016040523d82523d5f602084013e6114b4565b606091505b50509050806114d6576040516312171d8360e31b815260040160405180910390fd5b505b5061091a6114f9565b6114e96115eb565b60026114f66105e9611611565b55565b60016114f66105e9611611565b3361150f610a79565b6001600160a01b03161461091a573360405163118cdaa760e01b8152600401611322919061177d565b6115458383836001611635565b6115645782604051635274afe760e01b8152600401611322919061177d565b505050565b5f80546001600160a01b038381166001600160a01b0319831681178455604051919092169283917f8be0079c531659141344cd1fd0a4f28419497f9722a3daafe3b4186f6b6457e09190a35050565b6115c6848484846001611697565b6115e55783604051635274afe760e01b8152600401611322919061177d565b50505050565b6115f3611704565b1561091a57604051633ee5aeb560e01b815260040160405180910390fd5b7f9b779b17422d0df92223018b32b4d1fa46e071723d6817e2486d003becc55f0090565b60405163a9059cbb60e01b5f8181526001600160a01b038616600452602485905291602083604481808b5af1925060015f5114831661168b57838315161561167f573d5f823e3d81fd5b5f873b113d1516831692505b60405250949350505050565b6040516323b872dd60e01b5f8181526001600160a01b038781166004528616602452604485905291602083606481808c5af1925060015f511483166116f35783831516156116e7573d5f823e3d81fd5b5f883b113d1516831692505b604052505f60605295945050505050565b5f60026117126105e9611611565b5414919050565b5f60208284031215611729575f80fd5b5035919050565b5f60208284031215611740575f80fd5b81356001600160a01b0381168114611756575f80fd5b9392505050565b5f806040838503121561176e575f80fd5b50508035926020909101359150565b6001600160a01b0391909116815260200190565b80151581146106bc575f80fd5b5f80604083850312156117af575f80fd5b82356117ba81611791565b946020939093013593505050565b5f602082840312156117d8575f80fd5b5051919050565b918252602082015260400190565b6001600160a01b03929092168252602082015260400190565b5f60208284031215611816575f80fd5b81516117568161179156fef611fec7babefd259c57ea5b6006acff8140ab17bb816c65ba0aa7e36c09caa8a2646970667358221220f46b290cfb70bb87fe72780dcf9a70d3060accc76874d43f6de29825dc721eb864736f6c63430008180033","linkReferences":{}},"methodIdentifiers":{"addCollateral()":"9e816999","amm()":"2a943945","claimLPRewards()":"3cad2a0a","claimReferralRewards()":"05eaab4b","closeAndWithdraw()":"fa7de25e","closePosition()":"c393d0e3","closePositionPartial(uint256)":"9c5a6079","depositAndOpenLong(uint256,uint256)":"a236a1b4","depositAndOpenShort(uint256,uint256)":"eaa0fd59","depositLP(uint256)":"eb37acfc","depositMargin()":"43cafe7f","getAmountOut(bool,uint256)":"8290d9b8","getMarginBalance(address)":"ef9f5785","getSpotPrice()":"dc76fabc","lendingPool()":"a59a9973","memeToken()":"972598e7","openLong(uint256,uint256)":"c181d418","openShort(uint256,uint256)":"1266a619","owner()":"8da5cb5b","positionManager()":"791b98bc","referral()":"1441a5a9","removeCollateral(uint256)":"3237c158","renounceOwnership()":"715018a6","setAMM(address)":"aa8ea3a0","setLendingPool(address)":"113aa8b1","setPositionManager(address)":"5760f2e3","setReferral(address)":"9e5914da","setReferrer(address)":"a18a7bfc","setVault(address)":"6817031b","swapBNBForMeme(uint256)":"d5cb45c7","swapMemeForBNB(uint256,uint256)":"b4723560","transferOwnership(address)":"f2fde38b","vault()":"fbfa77cf","withdrawLP(uint256)":"e4456ecb","withdrawMargin(uint256)":"0cea7534"},"id":101}