{"abi":[{"type":"constructor","inputs":[{"name":"initialOwner","type":"address","internalType":"address"},{"name":"feeReceiver_","type":"address","internalType":"address"},{"name":"uniswapV2Router_","type":"address","internalType":"address"}],"stateMutability":"nonpayable"},{"type":"receive","stateMutability":"payable"},{"type":"function","name":"CREATOR_FEE_SHARE","inputs":[],"outputs":[{"name":"","type":"uint256","internalType":"uint256"}],"stateMutability":"view"},{"type":"function","name":"FEE_BPS","inputs":[],"outputs":[{"name":"","type":"uint256","internalType":"uint256"}],"stateMutability":"view"},{"type":"function","name":"GRADUATION_THRESHOLD","inputs":[],"outputs":[{"name":"","type":"uint256","internalType":"uint256"}],"stateMutability":"view"},{"type":"function","name":"PERP_ENABLE_THRESHOLD","inputs":[],"outputs":[{"name":"","type":"uint256","internalType":"uint256"}],"stateMutability":"view"},{"type":"function","name":"PLATFORM_FEE_SHARE","inputs":[],"outputs":[{"name":"","type":"uint256","internalType":"uint256"}],"stateMutability":"view"},{"type":"function","name":"REAL_TOKEN_SUPPLY","inputs":[],"outputs":[{"name":"","type":"uint256","internalType":"uint256"}],"stateMutability":"view"},{"type":"function","name":"REFERRER_FEE_SHARE","inputs":[],"outputs":[{"name":"","type":"uint256","internalType":"uint256"}],"stateMutability":"view"},{"type":"function","name":"VIRTUAL_ETH_RESERVE","inputs":[],"outputs":[{"name":"","type":"uint256","internalType":"uint256"}],"stateMutability":"view"},{"type":"function","name":"VIRTUAL_TOKEN_RESERVE","inputs":[],"outputs":[{"name":"","type":"uint256","internalType":"uint256"}],"stateMutability":"view"},{"type":"function","name":"WETH","inputs":[],"outputs":[{"name":"","type":"address","internalType":"address"}],"stateMutability":"view"},{"type":"function","name":"allTokens","inputs":[{"name":"","type":"uint256","internalType":"uint256"}],"outputs":[{"name":"","type":"address","internalType":"address"}],"stateMutability":"view"},{"type":"function","name":"buy","inputs":[{"name":"tokenAddress","type":"address","internalType":"address"},{"name":"minTokensOut","type":"uint256","internalType":"uint256"}],"outputs":[],"stateMutability":"payable"},{"type":"function","name":"claimCreatorEarnings","inputs":[{"name":"token","type":"address","internalType":"address"}],"outputs":[],"stateMutability":"nonpayable"},{"type":"function","name":"claimPlatformEarnings","inputs":[],"outputs":[],"stateMutability":"nonpayable"},{"type":"function","name":"claimReferrerEarnings","inputs":[],"outputs":[],"stateMutability":"nonpayable"},{"type":"function","name":"createToken","inputs":[{"name":"name","type":"string","internalType":"string"},{"name":"symbol","type":"string","internalType":"string"},{"name":"metadataURI","type":"string","internalType":"string"},{"name":"minTokensOut","type":"uint256","internalType":"uint256"}],"outputs":[{"name":"tokenAddress","type":"address","internalType":"address"}],"stateMutability":"payable"},{"type":"function","name":"creatorEarnings","inputs":[{"name":"","type":"address","internalType":"address"}],"outputs":[{"name":"","type":"uint256","internalType":"uint256"}],"stateMutability":"view"},{"type":"function","name":"emergencyWithdraw","inputs":[{"name":"tokenAddress","type":"address","internalType":"address"},{"name":"recipient","type":"address","internalType":"address"}],"outputs":[],"stateMutability":"nonpayable"},{"type":"function","name":"feeReceiver","inputs":[],"outputs":[{"name":"","type":"address","internalType":"address"}],"stateMutability":"view"},{"type":"function","name":"getAllTokens","inputs":[],"outputs":[{"name":"","type":"address[]","internalType":"address[]"}],"stateMutability":"view"},{"type":"function","name":"getCurrentPrice","inputs":[{"name":"tokenAddress","type":"address","internalType":"address"}],"outputs":[{"name":"","type":"uint256","internalType":"uint256"}],"stateMutability":"view"},{"type":"function","name":"getPoolState","inputs":[{"name":"tokenAddress","type":"address","internalType":"address"}],"outputs":[{"name":"","type":"tuple","internalType":"struct TokenFactory.PoolState","components":[{"name":"realETHReserve","type":"uint256","internalType":"uint256"},{"name":"realTokenReserve","type":"uint256","internalType":"uint256"},{"name":"soldTokens","type":"uint256","internalType":"uint256"},{"name":"isGraduated","type":"bool","internalType":"bool"},{"name":"isActive","type":"bool","internalType":"bool"},{"name":"creator","type":"address","internalType":"address"},{"name":"createdAt","type":"uint64","internalType":"uint64"},{"name":"metadataURI","type":"string","internalType":"string"},{"name":"graduationFailed","type":"bool","internalType":"bool"},{"name":"graduationAttempts","type":"uint8","internalType":"uint8"},{"name":"perpEnabled","type":"bool","internalType":"bool"}]}],"stateMutability":"view"},{"type":"function","name":"getTokenCount","inputs":[],"outputs":[{"name":"","type":"uint256","internalType":"uint256"}],"stateMutability":"view"},{"type":"function","name":"getTokenCreator","inputs":[{"name":"tokenAddress","type":"address","internalType":"address"}],"outputs":[{"name":"","type":"address","internalType":"address"}],"stateMutability":"view"},{"type":"function","name":"owner","inputs":[],"outputs":[{"name":"","type":"address","internalType":"address"}],"stateMutability":"view"},{"type":"function","name":"pause","inputs":[],"outputs":[],"stateMutability":"nonpayable"},{"type":"function","name":"paused","inputs":[],"outputs":[{"name":"","type":"bool","internalType":"bool"}],"stateMutability":"view"},{"type":"function","name":"platformEarnings","inputs":[],"outputs":[{"name":"","type":"uint256","internalType":"uint256"}],"stateMutability":"view"},{"type":"function","name":"previewBuy","inputs":[{"name":"tokenAddress","type":"address","internalType":"address"},{"name":"ethIn","type":"uint256","internalType":"uint256"}],"outputs":[{"name":"","type":"uint256","internalType":"uint256"}],"stateMutability":"view"},{"type":"function","name":"previewSell","inputs":[{"name":"tokenAddress","type":"address","internalType":"address"},{"name":"tokensIn","type":"uint256","internalType":"uint256"}],"outputs":[{"name":"","type":"uint256","internalType":"uint256"}],"stateMutability":"view"},{"type":"function","name":"priceFeed","inputs":[],"outputs":[{"name":"","type":"address","internalType":"address"}],"stateMutability":"view"},{"type":"function","name":"referrerEarnings","inputs":[{"name":"","type":"address","internalType":"address"}],"outputs":[{"name":"","type":"uint256","internalType":"uint256"}],"stateMutability":"view"},{"type":"function","name":"renounceOwnership","inputs":[],"outputs":[],"stateMutability":"nonpayable"},{"type":"function","name":"retryGraduation","inputs":[{"name":"tokenAddress","type":"address","internalType":"address"}],"outputs":[],"stateMutability":"nonpayable"},{"type":"function","name":"rollbackGraduation","inputs":[{"name":"tokenAddress","type":"address","internalType":"address"}],"outputs":[],"stateMutability":"nonpayable"},{"type":"function","name":"sell","inputs":[{"name":"tokenAddress","type":"address","internalType":"address"},{"name":"tokenAmount","type":"uint256","internalType":"uint256"},{"name":"minETHOut","type":"uint256","internalType":"uint256"}],"outputs":[],"stateMutability":"nonpayable"},{"type":"function","name":"serviceFee","inputs":[],"outputs":[{"name":"","type":"uint256","internalType":"uint256"}],"stateMutability":"view"},{"type":"function","name":"setFeeReceiver","inputs":[{"name":"newFeeReceiver","type":"address","internalType":"address"}],"outputs":[],"stateMutability":"nonpayable"},{"type":"function","name":"setPriceFeed","inputs":[{"name":"newPriceFeed","type":"address","internalType":"address"}],"outputs":[],"stateMutability":"nonpayable"},{"type":"function","name":"setReferrer","inputs":[{"name":"referrer","type":"address","internalType":"address"}],"outputs":[],"stateMutability":"nonpayable"},{"type":"function","name":"setServiceFee","inputs":[{"name":"newFee","type":"uint256","internalType":"uint256"}],"outputs":[],"stateMutability":"nonpayable"},{"type":"function","name":"setUniswapV2Router","inputs":[{"name":"newRouter","type":"address","internalType":"address"}],"outputs":[],"stateMutability":"nonpayable"},{"type":"function","name":"transferOwnership","inputs":[{"name":"newOwner","type":"address","internalType":"address"}],"outputs":[],"stateMutability":"nonpayable"},{"type":"function","name":"uniswapV2Router","inputs":[],"outputs":[{"name":"","type":"address","internalType":"address"}],"stateMutability":"view"},{"type":"function","name":"unpause","inputs":[],"outputs":[],"stateMutability":"nonpayable"},{"type":"function","name":"userReferrer","inputs":[{"name":"","type":"address","internalType":"address"}],"outputs":[{"name":"","type":"address","internalType":"address"}],"stateMutability":"view"},{"type":"event","name":"CreatorEarningsClaimed","inputs":[{"name":"token","type":"address","indexed":true,"internalType":"address"},{"name":"creator","type":"address","indexed":true,"internalType":"address"},{"name":"amount","type":"uint256","indexed":false,"internalType":"uint256"}],"anonymous":false},{"type":"event","name":"FeeDistributed","inputs":[{"name":"token","type":"address","indexed":true,"internalType":"address"},{"name":"creatorFee","type":"uint256","indexed":false,"internalType":"uint256"},{"name":"referrerFee","type":"uint256","indexed":false,"internalType":"uint256"},{"name":"platformFee","type":"uint256","indexed":false,"internalType":"uint256"}],"anonymous":false},{"type":"event","name":"FeeReceiverUpdated","inputs":[{"name":"oldReceiver","type":"address","indexed":true,"internalType":"address"},{"name":"newReceiver","type":"address","indexed":true,"internalType":"address"}],"anonymous":false},{"type":"event","name":"GraduationFailed","inputs":[{"name":"token","type":"address","indexed":true,"internalType":"address"},{"name":"attempt","type":"uint8","indexed":false,"internalType":"uint8"},{"name":"reason","type":"string","indexed":false,"internalType":"string"}],"anonymous":false},{"type":"event","name":"GraduationRetried","inputs":[{"name":"token","type":"address","indexed":true,"internalType":"address"},{"name":"attempt","type":"uint8","indexed":false,"internalType":"uint8"}],"anonymous":false},{"type":"event","name":"GraduationRolledBack","inputs":[{"name":"token","type":"address","indexed":true,"internalType":"address"},{"name":"ethReturned","type":"uint256","indexed":false,"internalType":"uint256"}],"anonymous":false},{"type":"event","name":"LiquidityMigrated","inputs":[{"name":"tokenAddress","type":"address","indexed":true,"internalType":"address"},{"name":"pairAddress","type":"address","indexed":true,"internalType":"address"},{"name":"ethLiquidity","type":"uint256","indexed":false,"internalType":"uint256"},{"name":"tokenLiquidity","type":"uint256","indexed":false,"internalType":"uint256"},{"name":"timestamp","type":"uint256","indexed":false,"internalType":"uint256"}],"anonymous":false},{"type":"event","name":"OwnershipTransferred","inputs":[{"name":"previousOwner","type":"address","indexed":true,"internalType":"address"},{"name":"newOwner","type":"address","indexed":true,"internalType":"address"}],"anonymous":false},{"type":"event","name":"Paused","inputs":[{"name":"account","type":"address","indexed":false,"internalType":"address"}],"anonymous":false},{"type":"event","name":"PerpEnabled","inputs":[{"name":"token","type":"address","indexed":true,"internalType":"address"},{"name":"ethReserve","type":"uint256","indexed":false,"internalType":"uint256"},{"name":"price","type":"uint256","indexed":false,"internalType":"uint256"}],"anonymous":false},{"type":"event","name":"PlatformEarningsClaimed","inputs":[{"name":"receiver","type":"address","indexed":true,"internalType":"address"},{"name":"amount","type":"uint256","indexed":false,"internalType":"uint256"}],"anonymous":false},{"type":"event","name":"PriceFeedUpdated","inputs":[{"name":"oldPriceFeed","type":"address","indexed":true,"internalType":"address"},{"name":"newPriceFeed","type":"address","indexed":true,"internalType":"address"}],"anonymous":false},{"type":"event","name":"ReferrerEarningsClaimed","inputs":[{"name":"referrer","type":"address","indexed":true,"internalType":"address"},{"name":"amount","type":"uint256","indexed":false,"internalType":"uint256"}],"anonymous":false},{"type":"event","name":"ReferrerSet","inputs":[{"name":"user","type":"address","indexed":true,"internalType":"address"},{"name":"referrer","type":"address","indexed":true,"internalType":"address"}],"anonymous":false},{"type":"event","name":"RouterUpdated","inputs":[{"name":"oldRouter","type":"address","indexed":true,"internalType":"address"},{"name":"newRouter","type":"address","indexed":true,"internalType":"address"}],"anonymous":false},{"type":"event","name":"ServiceFeeUpdated","inputs":[{"name":"oldFee","type":"uint256","indexed":false,"internalType":"uint256"},{"name":"newFee","type":"uint256","indexed":false,"internalType":"uint256"}],"anonymous":false},{"type":"event","name":"TokenCreated","inputs":[{"name":"tokenAddress","type":"address","indexed":true,"internalType":"address"},{"name":"creator","type":"address","indexed":true,"internalType":"address"},{"name":"name","type":"string","indexed":false,"internalType":"string"},{"name":"symbol","type":"string","indexed":false,"internalType":"string"},{"name":"uri","type":"string","indexed":false,"internalType":"string"},{"name":"totalSupply","type":"uint256","indexed":false,"internalType":"uint256"}],"anonymous":false},{"type":"event","name":"Trade","inputs":[{"name":"tokenAddress","type":"address","indexed":true,"internalType":"address"},{"name":"trader","type":"address","indexed":true,"internalType":"address"},{"name":"isBuy","type":"bool","indexed":false,"internalType":"bool"},{"name":"ethAmount","type":"uint256","indexed":false,"internalType":"uint256"},{"name":"tokenAmount","type":"uint256","indexed":false,"internalType":"uint256"},{"name":"virtualEthReserves","type":"uint256","indexed":false,"internalType":"uint256"},{"name":"virtualTokenReserves","type":"uint256","indexed":false,"internalType":"uint256"},{"name":"timestamp","type":"uint256","indexed":false,"internalType":"uint256"}],"anonymous":false},{"type":"event","name":"Unpaused","inputs":[{"name":"account","type":"address","indexed":false,"internalType":"address"}],"anonymous":false},{"type":"error","name":"CannotReferSelf","inputs":[]},{"type":"error","name":"EnforcedPause","inputs":[]},{"type":"error","name":"ExpectedPause","inputs":[]},{"type":"error","name":"FailedCall","inputs":[]},{"type":"error","name":"GraduationNotFailed","inputs":[]},{"type":"error","name":"InsufficientBalance","inputs":[{"name":"balance","type":"uint256","internalType":"uint256"},{"name":"needed","type":"uint256","internalType":"uint256"}]},{"type":"error","name":"InsufficientBalance","inputs":[{"name":"requested","type":"uint256","internalType":"uint256"},{"name":"available","type":"uint256","internalType":"uint256"}]},{"type":"error","name":"InsufficientFee","inputs":[{"name":"sent","type":"uint256","internalType":"uint256"},{"name":"required","type":"uint256","internalType":"uint256"}]},{"type":"error","name":"InsufficientLiquidity","inputs":[{"name":"requested","type":"uint256","internalType":"uint256"},{"name":"available","type":"uint256","internalType":"uint256"}]},{"type":"error","name":"InvalidAddress","inputs":[]},{"type":"error","name":"InvalidAmount","inputs":[]},{"type":"error","name":"MaxGraduationAttempts","inputs":[]},{"type":"error","name":"NoEarningsToClaim","inputs":[]},{"type":"error","name":"OwnableInvalidOwner","inputs":[{"name":"owner","type":"address","internalType":"address"}]},{"type":"error","name":"OwnableUnauthorizedAccount","inputs":[{"name":"account","type":"address","internalType":"address"}]},{"type":"error","name":"PoolAlreadyGraduated","inputs":[]},{"type":"error","name":"PoolNotActive","inputs":[]},{"type":"error","name":"PoolNotInitialized","inputs":[]},{"type":"error","name":"ReentrancyGuardReentrantCall","inputs":[]},{"type":"error","name":"ReferrerAlreadySet","inputs":[]},{"type":"error","name":"SafeERC20FailedOperation","inputs":[{"name":"token","type":"address","internalType":"address"}]}],"bytecode":{"object":"0x608060405266038d7ea4c680006001553480156200001b575f80fd5b5060405162005c6238038062005c628339810160408190526200003e916200018b565b826001600160a01b0381166200006d57604051631e4fbdf760e01b81525f600482015260240160405180910390fd5b620000788162000120565b5060017f9b779b17422d0df92223018b32b4d1fa46e071723d6817e2486d003becc55f00556001600160a01b038216620000c55760405163e6c4247b60e01b815260040160405180910390fd5b6001600160a01b038116620000ed5760405163e6c4247b60e01b815260040160405180910390fd5b600480546001600160a01b039384166001600160a01b0319918216179091556005805492909316911617905550620001d2565b5f80546001600160a01b038381166001600160a01b0319831681178455604051919092169283917f8be0079c531659141344cd1fd0a4f28419497f9722a3daafe3b4186f6b6457e09190a35050565b80516001600160a01b038116811462000186575f80fd5b919050565b5f805f606084860312156200019e575f80fd5b620001a9846200016f565b9250620001b9602085016200016f565b9150620001c9604085016200016f565b90509250925092565b615a8280620001e05f395ff3fe6080604052600436106200023e575f3560e01c80630297fdb1146200024a57806306f70a3614620002635780631419841d146200028d5780631694505e14620002b1578063256d3b1c14620002e15780632a5c792a14620002fe5780633328b83c14620003245780633f4ba83a14620003485780635c975abb146200035f5780635cdf76f81462000387578063634282af14620003ab5780636382d9ad14620003cf5780636a27246214620003f3578063715018a61462000417578063724e78da146200042e578063741bef1a146200045257806378a8956714620004735780637c3fcc3814620004895780637e309b9214620004c15780637e8eed8714620004e25780638456cb59146200050657806384cc315b146200051d5780638abdf5aa14620005415780638da5cb5b1462000558578063a18a7bfc146200056f578063a487fa031462000593578063ad5c464814620005aa578063b3f0067414620005c6578063b5ac48a014620005e7578063be820aa2146200060b578063bf333f2c1462000622578063c78418b91462000638578063cb24a72f146200067c578063cce7ec131462000699578063d6badc9514620006b0578063dc6e8eac14620006c7578063e5f0f5cc14620006eb578063eb3ba72f146200070f578063ec04205b146200073e578063efbe8fd11462000771578063efdcd9741462000788578063f2fde38b14620007ac578063fa3c30a814620007d0578063fcfc0c0914620007ff578063ff3f571e146200081f578063ffe5e529146200083f575f80fd5b366200024657005b5f80fd5b34801562000256575f80fd5b506200026162000856565b005b3480156200026f575f80fd5b506200027a6103e881565b6040519081526020015b60405180910390f35b34801562000299575f80fd5b5062000261620002ab366004620034b5565b620008ef565b348015620002bd575f80fd5b50600554620002d2906001600160a01b031681565b604051620002849190620034d3565b348015620002ed575f80fd5b506200027a670de0b6b3a764000081565b3480156200030a575f80fd5b506200031562000972565b604051620002849190620034e7565b34801562000330575f80fd5b506200026162000342366004620034b5565b620009d4565b34801562000354575f80fd5b506200026162000ad2565b3480156200036b575f80fd5b506200037662000ae6565b604051901515815260200162000284565b34801562000393575f80fd5b5062000261620003a536600462003535565b62000af5565b348015620003b7575f80fd5b50620002d2620003c936600462003535565b62000b46565b348015620003db575f80fd5b5062000261620003ed3660046200354d565b62000b6f565b348015620003ff575f80fd5b50620002616200041136600462003589565b62000cef565b34801562000423575f80fd5b506200026162000d42565b3480156200043a575f80fd5b50620002616200044c366004620034b5565b62000d57565b3480156200045e575f80fd5b50600654620002d2906001600160a01b031681565b3480156200047f575f80fd5b506003546200027a565b34801562000495575f80fd5b50620002d2620004a7366004620034b5565b600a6020525f90815260409020546001600160a01b031681565b348015620004cd575f80fd5b506200027a6b037790968dc8efffd100000081565b348015620004ee575f80fd5b506200026162000500366004620034b5565b62000dda565b34801562000512575f80fd5b506200026162000ef4565b34801562000529575f80fd5b506200027a6200053b366004620034b5565b62000f08565b3480156200054d575f80fd5b506200027a60015481565b34801562000564575f80fd5b50620002d2620010c0565b3480156200057b575f80fd5b50620002616200058d366004620034b5565b620010ce565b3480156200059f575f80fd5b506200027a61196481565b348015620005b6575f80fd5b50620002d26006602160991b0181565b348015620005d2575f80fd5b50600454620002d2906001600160a01b031681565b348015620005f3575f80fd5b506200027a62000605366004620035be565b620011ad565b34801562000617575f80fd5b506200027a60095481565b3480156200062e575f80fd5b506200027a606481565b34801562000644575f80fd5b50620002d262000656366004620034b5565b6001600160a01b039081165f908152600260205260409020600301546201000090041690565b34801562000688575f80fd5b506200027a671941f05b7336000081565b62000261620006aa366004620035be565b62001394565b348015620006bc575f80fd5b506200027a6109c481565b348015620006d3575f80fd5b5062000261620006e5366004620034b5565b620013e2565b348015620006f7575f80fd5b506200027a62000709366004620035be565b62001530565b3480156200071b575f80fd5b506200027a6200072d366004620034b5565b60086020525f908152604090205481565b3480156200074a575f80fd5b50620007626200075c366004620034b5565b6200171a565b60405162000284919062003630565b620002d262000782366004620037b7565b620018c7565b34801562000794575f80fd5b5062000261620007a6366004620034b5565b62001bf2565b348015620007b8575f80fd5b5062000261620007ca366004620034b5565b62001c75565b348015620007dc575f80fd5b506200027a620007ee366004620034b5565b60076020525f908152604090205481565b3480156200080b575f80fd5b506200027a6aab39f47c37b4252f00000081565b3480156200082b575f80fd5b506200027a676765c793fa10079d601b1b81565b3480156200084b575f80fd5b506200026162001cb6565b6200086062001d4b565b335f90815260086020526040812054908190036200089157604051636773e7e960e01b815260040160405180910390fd5b335f81815260086020526040812055620008ac908262001d6b565b60405181815233907fa6183a81b1ce4e0d90156f6ec9b6f2d13c204d11884302b40b47bb456fb59156906020015b60405180910390a250620008ed62001de2565b565b620008f962001df2565b6001600160a01b038116620009215760405163e6c4247b60e01b815260040160405180910390fd5b600580546001600160a01b038381166001600160a01b0319831681179093556040519116919082907f02dc5c233404867c793b749c6d644beb2277536d18a7e7974d3f238e4c6f1684905f90a35050565b60606003805480602002602001604051908101604052809291908181526020018280548015620009ca57602002820191905f5260205f20905b81546001600160a01b03168152600190910190602001808311620009ab575b5050505050905090565b620009de62001d4b565b6001600160a01b038082165f908152600260205260409020600381015490916201000090910416331462000a255760405163e6c4247b60e01b815260040160405180910390fd5b6001600160a01b0382165f908152600760205260408120549081900362000a5f57604051636773e7e960e01b815260040160405180910390fd5b6001600160a01b0383165f9081526007602052604081205562000a83338262001d6b565b60405181815233906001600160a01b038516907fd7272a37f933495e4949fd01a155b75a4f55b685b1a09928c242419c1873e3359060200160405180910390a3505062000acf62001de2565b50565b62000adc62001df2565b620008ed62001e29565b5f54600160a01b900460ff1690565b62000aff62001df2565b60018054908290556040517e3b413cf14a67407425bd0b5c065b2de08876554d8489ad7dd4aa95604d280c9062000b3a90839085906200384a565b60405180910390a15050565b6003818154811062000b56575f80fd5b5f918252602090912001546001600160a01b0316905081565b62000b7962001df2565b62000b8362001d4b565b6001600160a01b03811662000bab5760405163e6c4247b60e01b815260040160405180910390fd5b6001600160a01b0382165f908152600260205260409020600581015460ff1662000be857604051639ed8ce8f60e01b815260040160405180910390fd5b6005810154600361010090910460ff16101562000c5a5760405162461bcd60e51b815260206004820152602560248201527f4d75737420617474656d70742067726164756174696f6e20332074696d657320604482015264199a5c9cdd60da1b60648201526084015b60405180910390fd5b80545f80835560038301805461ff00191690556040516001600160a01b0385169083908381818185875af1925050503d805f811462000cb5576040519150601f19603f3d011682016040523d82523d5f602084013e62000cba565b606091505b505090508062000cde5760405162461bcd60e51b815260040162000c519062003858565b50505062000ceb62001de2565b5050565b62000cf962001d4b565b62000d0362001e7b565b815f0362000d245760405163162908e360e11b815260040160405180910390fd5b62000d328333848462001ea4565b5062000d3d62001de2565b505050565b62000d4c62001df2565b620008ed5f62002280565b62000d6162001df2565b6001600160a01b03811662000d895760405163e6c4247b60e01b815260040160405180910390fd5b600680546001600160a01b038381166001600160a01b0319831681179093556040519116919082907fa8abe0398416476db5b05737cd4da3b3cbde5012d978a6a6c3fd49d321753536905f90a35050565b62000de462001df2565b62000dee62001d4b565b6001600160a01b0381165f908152600260205260409020600581015460ff1662000e2b57604051639ed8ce8f60e01b815260040160405180910390fd5b600381015460ff161562000e5257604051630792f78160e41b815260040160405180910390fd5b6005810154600361010090910460ff161062000e815760405163461ff0f360e01b815260040160405180910390fd5b60058101546001600160a01b038316907ffcbbd9e841a43db5aae84dde29cdfe217bf352fb44a2e635d132415d2f8961d59062000ec890610100900460ff16600162003899565b60405160ff909116815260200160405180910390a262000ee98282620022cf565b5062000acf62001de2565b62000efe62001df2565b620008ed620029a2565b6001600160a01b038181165f908152600260208181526040808420815161016081018352815481526001820154938101939093529283015490820152600382015460ff808216151560608401526101008204161515608083015262010000810490941660a0820152600160b01b9093046001600160401b031660c08401526004810180549293849390929160e084019162000fa390620038b5565b80601f016020809104026020016040519081016040528092919081815260200182805462000fd190620038b5565b8015620010205780601f1062000ff65761010080835404028352916020019162001020565b820191905f5260205f20905b8154815290600101906020018083116200100257829003601f168201915b50505091835250506005919091015460ff808216151560208401526101008204811660408401526201000090910416151560609091015280519091505f906200107290671941f05b73360000620038ef565b90505f62001098676765c793fa10079d601b1b6b037790968dc8efffd100000062003905565b8360200151620010a99190620038ef565b9050620010b78282620029e7565b95945050505050565b5f546001600160a01b031690565b6001600160a01b038116620010f65760405163e6c4247b60e01b815260040160405180910390fd5b336001600160a01b03821603620011205760405163dc33424560e01b815260040160405180910390fd5b335f908152600a60205260409020546001600160a01b03161562001157576040516312cf907360e31b815260040160405180910390fd5b335f818152600a602052604080822080546001600160a01b0319166001600160a01b03861690811790915590519092917f5f7165288eef601591cf549e15ff19ef9060b7f71b9c115be946fa1fe7ebf68a91a350565b6001600160a01b038281165f908152600260208181526040808420815161016081018352815481526001820154938101939093529283015490820152600382015460ff808216151560608401526101008204161515608083015262010000810490941660a0820152600160b01b9093046001600160401b031660c08401526004810180549293849390929160e08401916200124890620038b5565b80601f01602080910402602001604051908101604052809291908181526020018280546200127690620038b5565b8015620012c55780601f106200129b57610100808354040283529160200191620012c5565b820191905f5260205f20905b815481529060010190602001808311620012a757829003601f168201915b50505091835250506005919091015460ff808216151560208401526101008204811660408401526201000090910416151560609091015280519091505f906200131790671941f05b73360000620038ef565b90505f6200133d676765c793fa10079d601b1b6b037790968dc8efffd100000062003905565b83602001516200134e9190620038ef565b90505f612710620013616064886200391b565b6200136d919062003935565b905062001387838362001381848a62003905565b62002a20565b9450505050505b92915050565b6200139e62001d4b565b620013a862001e7b565b345f03620013c95760405163162908e360e11b815260040160405180910390fd5b620013d78233348462002a55565b5062000ceb62001de2565b620013ec62001df2565b620013f662001d4b565b6001600160a01b0381165f908152600260205260409020600581015460ff166200143357604051639ed8ce8f60e01b815260040160405180910390fd5b600381015460ff16156200145a57604051630792f78160e41b815260040160405180910390fd5b60058101805460ff191690556200147e600a6aab39f47c37b4252f00000062003935565b816001015f828254620014929190620038ef565b92505081905550816001600160a01b0316639587fa996040518163ffffffff1660e01b81526004015f604051808303815f87803b158015620014d2575f80fd5b505af1925050508015620014e4575060015b5080546040519081526001600160a01b038316907f1a02eb5542d10ffc114095b6e66344098b36009afd8309c0eaed5f9aab6813d69060200160405180910390a25062000acf62001de2565b6001600160a01b038281165f908152600260208181526040808420815161016081018352815481526001820154938101939093529283015490820152600382015460ff808216151560608401526101008204161515608083015262010000810490941660a0820152600160b01b9093046001600160401b031660c08401526004810180549293849390929160e0840191620015cb90620038b5565b80601f0160208091040260200160405190810160405280929190818152602001828054620015f990620038b5565b8015620016485780601f106200161e5761010080835404028352916020019162001648565b820191905f5260205f20905b8154815290600101906020018083116200162a57829003601f168201915b50505091835250506005919091015460ff808216151560208401526101008204811660408401526201000090910416151560609091015280519091505f906200169a90671941f05b73360000620038ef565b90505f620016c0676765c793fa10079d601b1b6b037790968dc8efffd100000062003905565b8360200151620016d19190620038ef565b90505f620016e183838862002f1f565b90505f612710620016f46064846200391b565b62001700919062003935565b90506200170e818362003905565b98975050505050505050565b60408051610160810182525f8082526020820181905291810182905260608082018390526080820183905260a0820183905260c0820183905260e0820152610100810182905261012081018290526101408101919091526001600160a01b038281165f90815260026020818152604092839020835161016081018552815481526001820154928101929092529182015492810192909252600381015460ff808216151560608501526101008204161515608084015262010000810490931660a0830152600160b01b9092046001600160401b031660c082015260048201805491929160e0840191906200180d90620038b5565b80601f01602080910402602001604051908101604052809291908181526020018280546200183b90620038b5565b80156200188a5780601f1062001860576101008083540402835291602001916200188a565b820191905f5260205f20905b8154815290600101906020018083116200186c57829003601f168201915b50505091835250506005919091015460ff808216151560208401526101008204811660408401526201000090910416151560609091015292915050565b5f620018d262001d4b565b620018dc62001e7b565b600154341015620019075760015460405163a458261b60e01b815262000c519134916004016200384a565b5f6001543462001918919062003905565b90505f86863030886040516200192e9062003492565b6200193e95949392919062003955565b604051809103905ff08015801562001958573d5f803e3d5ffd5b5090508092506040518061016001604052805f8152602001676765c793fa10079d601b1b81526020015f81526020015f15158152602001600115158152602001336001600160a01b03168152602001426001600160401b031681526020018681526020015f151581526020015f60ff1681526020015f151581525060025f856001600160a01b03166001600160a01b031681526020019081526020015f205f820151815f015560208201518160010155604082015181600201556060820151816003015f6101000a81548160ff02191690831515021790555060808201518160030160016101000a81548160ff02191690831515021790555060a08201518160030160026101000a8154816001600160a01b0302191690836001600160a01b0316021790555060c08201518160030160166101000a8154816001600160401b0302191690836001600160401b0316021790555060e082015181600401908162001ac29190620039f2565b506101008281015160059290920180546101208501516101409095015161ffff1990911693151561ff0019169390931760ff9094169091029290921762ff00001916620100009115159190910217905560038054600181810183555f929092527fc2575a0e9e593c00f959f8c92f12db2869c3395a3b0502d05e2516446f71f85b0180546001600160a01b0319166001600160a01b0386161790555462001b699062002f3c565b336001600160a01b0316836001600160a01b03167f91891eee2488475580e3ecb4c5bf5c89e7d3a3e4933f9ec22456f0cc7ffa16f9898989676765c793fa10079d601b1b60405162001bbf949392919062003aba565b60405180910390a3811562001bde5762001bdc8333848762002a55565b505b505062001bea62001de2565b949350505050565b62001bfc62001df2565b6001600160a01b03811662001c245760405163e6c4247b60e01b815260040160405180910390fd5b600480546001600160a01b038381166001600160a01b0319831681179093556040519116919082907fa92ff4390fe6943f0b30e8fe715dde86f85ab79b2b2c640a10fc094cc4036cc8905f90a35050565b62001c7f62001df2565b6001600160a01b03811662001cab575f604051631e4fbdf760e01b815260040162000c519190620034d3565b62000acf8162002280565b62001cc062001df2565b62001cca62001d4b565b6009545f81900362001cef57604051636773e7e960e01b815260040160405180910390fd5b5f60095560045462001d0b906001600160a01b03168262001d6b565b6004546040518281526001600160a01b03909116907f8357b6ceaa6a51a87792dd248058a5f83fbcc4798c11aec4d10f03c9ed04c83f90602001620008da565b62001d5562002f5f565b600262001d6862001d6562002f88565b90565b55565b8047101562001d9357478160405163cf47918160e01b815260040162000c519291906200384a565b62001dae828260405180602001604052805f81525062002fac565b1562001db8575050565b3d1562001dc95762000ceb62002fc1565b60405163d6bda27560e01b815260040160405180910390fd5b600162001d6862001d6562002f88565b3362001dfd620010c0565b6001600160a01b031614620008ed573360405163118cdaa760e01b815260040162000c519190620034d3565b62001e3362002fcc565b5f805460ff60a01b191690557f5db9ee0a495bf2e6ff9c91a7834c1ba4fdd244a5e8aa4e537bd38aeae4b073aa335b60405162001e719190620034d3565b60405180910390a1565b62001e8562000ae6565b15620008ed5760405163d93c066560e01b815260040160405180910390fd5b6001600160a01b0384165f9081526002602052604081206003810154610100900460ff1662001ee6576040516338c0a90160e11b815260040160405180910390fd5b600381015460ff161562001f0d57604051630792f78160e41b815260040160405180910390fd5b6040516370a0823160e01b81525f906001600160a01b038816906370a082319062001f3d908990600401620034d3565b602060405180830381865afa15801562001f59573d5f803e3d5ffd5b505050506040513d601f19601f8201168201806040525081019062001f7f919062003b0a565b90508481101562001fa957848160405163cf47918160e01b815260040162000c519291906200384a565b81545f9062001fc190671941f05b73360000620038ef565b90505f62001fe7676765c793fa10079d601b1b6b037790968dc8efffd100000062003905565b846001015462001ff89190620038ef565b90505f6200200883838a62002f1f565b90505f6127106200201b6064846200391b565b62002027919062003935565b905062002035818362003905565b9650878710156200205f57868860405163a17e11d560e01b815260040162000c519291906200384a565b85548211156200208857855460405163a17e11d560e01b815262000c519184916004016200384a565b6200209f6001600160a01b038c168b308c62002ff4565b620020ac8b8b836200302c565b5f8a6001600160a01b0316886040515f6040518083038185875af1925050503d805f8114620020f7576040519150601f19603f3d011682016040523d82523d5f602084013e620020fc565b606091505b5050905080620021205760405162461bcd60e51b815260040162000c519062003858565b82875f015f82825462002134919062003905565b9250508190555089876001015f828254620021509190620038ef565b9250508190555089876002015f8282546200216c919062003905565b9091555050604051630852cd8d60e31b8152600481018b90526001600160a01b038d16906342966c68906024015f604051808303815f87803b158015620021b1575f80fd5b505af1158015620021c4573d5f803e3d5ffd5b505050508a6001600160a01b03168c6001600160a01b03165f8051602062005a0d8339815191525f8b8e8a8a42604051620022059695949392919062003b22565b60405180910390a3600654875462002271916001600160a01b0316908e906200223790671941f05b73360000620038ef565b6200225a676765c793fa10079d601b1b6b037790968dc8efffd100000062003905565b8b600101546200226b9190620038ef565b620031dd565b50505050505050949350505050565b5f80546001600160a01b038381166001600160a01b0319831681178455604051919092169283917f8be0079c531659141344cd1fd0a4f28419497f9722a3daafe3b4186f6b6457e09190a35050565b600381015460ff1615620022f657604051630792f78160e41b815260040160405180910390fd5b8054600180830154600584018054919261010090920460ff16916200231b8362003b4c565b91906101000a81548160ff021916908360ff16021790555050836001600160a01b03166340c10f1930836040518363ffffffff1660e01b81526004016200236492919062003b6d565b5f604051808303815f87803b1580156200237c575f80fd5b505af11580156200238f573d5f803e3d5ffd5b505060055460405163095ea7b360e01b81526001600160a01b03808916945063095ea7b39350620023c7921690859060040162003b6d565b6020604051808303815f875af1158015620023e4573d5f803e3d5ffd5b505050506040513d601f19601f820116820180604052508101906200240a919062003b86565b5061dead5f60646200241e8460636200391b565b6200242a919062003935565b6005549091506001600160a01b031663f305d719858886855f88620024524261012c620038ef565b60405160e089901b6001600160e01b03191681526001600160a01b039687166004820152602481019590955260448501939093526064840191909152909216608482015260a481019190915260c40160606040518083038185885af193505050508015620024df575060408051601f3d908101601f19168201909252620024dc9181019062003ba7565b60015b6200277a57620024ee62003bd3565b806308c379a0036200263857506200250562003bec565b806200251257506200263a565b60055460405163095ea7b360e01b81526001600160a01b038981169263095ea7b3926200254892909116905f9060040162003b6d565b6020604051808303815f875af115801562002565573d5f803e3d5ffd5b505050506040513d601f19601f820116820180604052508101906200258b919062003b86565b50604051630852cd8d60e31b8152600481018590526001600160a01b038816906342966c68906024015f604051808303815f87803b158015620025cc575f80fd5b505af1158015620025df573d5f803e3d5ffd5b50505060058701805460ff1916600117908190556040516001600160a01b038a1692505f8051602062005a2d83398151915291620026299161010090910460ff1690859062003c7a565b60405180910390a2506200299a565b505b60055460405163095ea7b360e01b81526001600160a01b038881169263095ea7b3926200267092909116905f9060040162003b6d565b6020604051808303815f875af11580156200268d573d5f803e3d5ffd5b505050506040513d601f19601f82011682018060405250810190620026b3919062003b86565b50604051630852cd8d60e31b8152600481018490526001600160a01b038716906342966c68906024015f604051808303815f87803b158015620026f4575f80fd5b505af115801562002707573d5f803e3d5ffd5b5050505060058501805460ff1916600117908190556040805161010090920460ff16825260208201819052600d908201526c2ab735b737bbb71032b93937b960991b60608201526001600160a01b038716905f8051602062005a2d8339815191529060800160405180910390a26200299a565b60038801805460ff19908116600117909155600589018054909116905560408051630d7982ad60e01b815290516001600160a01b038b1691630d7982ad916004808301925f92919082900301818387803b158015620027d7575f80fd5b505af1158015620027ea573d5f803e3d5ffd5b505050505f60055f9054906101000a90046001600160a01b03166001600160a01b031663c45a01556040518163ffffffff1660e01b8152600401602060405180830381865afa15801562002840573d5f803e3d5ffd5b505050506040513d601f19601f8201168201806040525081019062002866919062003c97565b60405163e6a4390560e01b81526001600160a01b038c811660048301526006602160991b0160248301529192505f9183169063e6a4390590604401602060405180830381865afa158015620028bd573d5f803e3d5ffd5b505050506040513d601f19601f82011682018060405250810190620028e3919062003c97565b604051633092afd560e01b81529091506001600160a01b038c1690633092afd59062002914903090600401620034d3565b5f604051808303815f87803b1580156200292c575f80fd5b505af11580156200293f573d5f803e3d5ffd5b50505050806001600160a01b03168b6001600160a01b03167f7ff6805a97f77c82876e4ef835ec1e9dbf9bd236120520f581f1cc1e213b547a8b8b426040516200298c9392919062003cb5565b60405180910390a350505050505b505050505050565b620029ac62001e7b565b5f805460ff60a01b1916600160a01b1790557f62e78cea01bee320cd4e420270b5ea74000d11b0c9f74754ebdbfc544b05a25862001e623390565b5f815f03620029f857505f6200138e565b8162002a0d670de0b6b3a7640000856200391b565b62002a19919062003935565b9392505050565b5f8062002a2e83856200391b565b90505f62002a3d8487620038ef565b905062002a4b818362003935565b9695505050505050565b6001600160a01b0384165f9081526002602052604081206003810154610100900460ff1662002a97576040516338c0a90160e11b815260040160405180910390fd5b600381015460ff161562002abe57604051630792f78160e41b815260040160405180910390fd5b80545f9062002ad690671941f05b73360000620038ef565b90505f62002afc676765c793fa10079d601b1b6b037790968dc8efffd100000062003905565b836001015462002b0d9190620038ef565b90505f6aab39f47c37b4252f00000084600101541162002b2e575f62002b4b565b6aab39f47c37b4252f000000846001015462002b4b919062003905565b90505f61271062002b5e60648a6200391b565b62002b6a919062003935565b90505f62002b79828a62003905565b905062002b8885858362002a20565b96505f8084891015801562002b9c57505f85115b1562002c2757600190508498505f62002bb788888c6200325c565b90508084111562002c20575f62002bcf828662003905565b90508194505f606461271062002be6919062003905565b62002bf36064886200391b565b62002bff919062003935565b905062002c0d818862003905565b62002c199083620038ef565b9096509350505b5062002c56565b876001015489111562002c5657600188015460405163a17e11d560e01b815262000c51918b916004016200384a565b8989101562002c7e57888a60405163a17e11d560e01b815260040162000c519291906200384a565b831562002c925762002c928d8d866200302c565b811562002d2e575f8c6001600160a01b0316836040515f6040518083038185875af1925050503d805f811462002ce4576040519150601f19603f3d011682016040523d82523d5f602084013e62002ce9565b606091505b505090508062002d2c5760405162461bcd60e51b815260206004820152600d60248201526c1499599d5b990819985a5b1959609a1b604482015260640162000c51565b505b82885f015f82825462002d429190620038ef565b9250508190555088886001015f82825462002d5e919062003905565b9250508190555088886002015f82825462002d7a9190620038ef565b90915550506040516340c10f1960e01b81526001600160a01b038e16906340c10f199062002daf908f908d9060040162003b6d565b5f604051808303815f87803b15801562002dc7575f80fd5b505af115801562002dda573d5f803e3d5ffd5b505050508b6001600160a01b03168d6001600160a01b03165f8051602062005a0d8339815191526001868d8c8c4260405162002e1c9695949392919062003b22565b60405180910390a3600588015462010000900460ff1615801562002e4957508754670de0b6b3a764000011155b801562002e6057506006546001600160a01b031615155b1562002e725762002e728d89620032e6565b600654885462002ed0916001600160a01b0316908f9062002e9c90671941f05b73360000620038ef565b62002ebf676765c793fa10079d601b1b6b037790968dc8efffd100000062003905565b8c600101546200226b9190620038ef565b808062002efd57506aab39f47c37b4252f00000088600101541115801562002efd5750600388015460ff16155b1562002f0f5762002f0f8d89620022cf565b5050505050505050949350505050565b5f8062002f2d83866200391b565b90505f62002a3d8486620038ef565b805f0362002f475750565b60045462000acf906001600160a01b03168262001d6b565b62002f696200340b565b15620008ed57604051633ee5aeb560e01b815260040160405180910390fd5b7f9b779b17422d0df92223018b32b4d1fa46e071723d6817e2486d003becc55f0090565b5f805f83516020850186885af1949350505050565b6040513d5f823e3d81fd5b62002fd662000ae6565b620008ed57604051638dfc202b60e01b815260040160405180910390fd5b6200300484848484600162003423565b620030265783604051635274afe760e01b815260040162000c519190620034d3565b50505050565b805f036200303957505050565b6001600160a01b038083165f908152600a602052604081205490911690612710620030676109c4856200391b565b62003073919062003935565b90505f6001600160a01b0383166200308c575f620030a9565b6127106200309d6103e8866200391b565b620030a9919062003935565b90505f81620030b9848762003905565b620030c5919062003905565b90506001600160a01b0384166200310257612710620030e76103e8876200391b565b620030f3919062003935565b620030ff9082620038ef565b90505b821562003138576001600160a01b0387165f908152600760205260408120805485929062003132908490620038ef565b90915550505b81156200316e576001600160a01b0384165f908152600860205260408120805484929062003168908490620038ef565b90915550505b80156200318d576004546200318d906001600160a01b03168262001d6b565b866001600160a01b03167fe9c43263c9c0582afb798a6d3aed85c88c73506aac8a42e70258d64e3ae1d33a848484604051620031cc9392919062003cb5565b60405180910390a250505050505050565b6001600160a01b0384161562003026575f620031fa8383620029e7565b60405163f7c605c960e01b81529091506001600160a01b0386169063f7c605c9906200322d908790859060040162003b6d565b5f604051808303815f87803b15801562003245575f80fd5b505af19250505080156200299a57505b5050505050565b5f828210620032ad5760405162461bcd60e51b815260206004820152601c60248201527b43616e6e6f7420627579206d6f7265207468616e207265736572766560201b604482015260640162000c51565b5f620032ba85846200391b565b90505f620032c9848662003905565b9050620032d7818362003935565b925062002a4b600184620038ef565b80545f90620032fe90671941f05b73360000620038ef565b90505f62003324676765c793fa10079d601b1b6b037790968dc8efffd100000062003905565b8360010154620033359190620038ef565b90505f620033448383620029e7565b6006546040516306880dcb60e31b81529192506001600160a01b0316906334406e589062003379908890859060040162003b6d565b5f604051808303815f87803b15801562003391575f80fd5b505af1925050508015620033a3575060015b15620032555760058401805462ff000019166201000017905583546040516001600160a01b038716917faab4a1a17500926367dd56dddf2390a42a29327d4bdd478e9bc4a8cb8398773391620033fc919085906200384a565b60405180910390a25050505050565b5f60026200341c62001d6562002f88565b5414919050565b6040516323b872dd60e01b5f8181526001600160a01b038781166004528616602452604485905291602083606481808c5af1925060015f511483166200348157838315161562003475573d5f823e3d81fd5b5f883b113d1516831692505b604052505f60605295945050505050565b611d418062003ccc83390190565b6001600160a01b038116811462000acf575f80fd5b5f60208284031215620034c6575f80fd5b813562002a1981620034a0565b6001600160a01b0391909116815260200190565b602080825282518282018190525f9190848201906040850190845b81811015620035295783516001600160a01b03168352928401929184019160010162003502565b50909695505050505050565b5f6020828403121562003546575f80fd5b5035919050565b5f80604083850312156200355f575f80fd5b82356200356c81620034a0565b915060208301356200357e81620034a0565b809150509250929050565b5f805f606084860312156200359c575f80fd5b8335620035a981620034a0565b95602085013595506040909401359392505050565b5f8060408385031215620035d0575f80fd5b8235620035dd81620034a0565b946020939093013593505050565b5f81518084525f5b818110156200361157602081850181015186830182015201620035f3565b505f602082860101526020601f19601f83011685010191505092915050565b602081528151602082015260208201516040820152604082015160608201525f606083015162003664608084018215159052565b50608083015180151560a08401525060a08301516001600160a01b03811660c08401525060c08301516001600160401b03811660e08401525060e08301516101606101008181860152620036bd610180860184620035eb565b90860151909250610120620036d58682018315159052565b8601519050610140620036ec8682018360ff169052565b90950151151593019290925250919050565b634e487b7160e01b5f52604160045260245ffd5b601f8201601f191681016001600160401b03811182821017156200373a576200373a620036fe565b6040525050565b5f82601f83011262003751575f80fd5b81356001600160401b038111156200376d576200376d620036fe565b60405162003786601f8301601f19166020018262003712565b8181528460208386010111156200379b575f80fd5b816020850160208301375f918101602001919091529392505050565b5f805f8060808587031215620037cb575f80fd5b84356001600160401b0380821115620037e2575f80fd5b620037f08883890162003741565b9550602087013591508082111562003806575f80fd5b620038148883890162003741565b945060408701359150808211156200382a575f80fd5b50620038398782880162003741565b949793965093946060013593505050565b918252602082015260400190565b602080825260139082015272115512081d1c985b9cd9995c8819985a5b1959606a1b604082015260600190565b634e487b7160e01b5f52601160045260245ffd5b60ff81811683821601908111156200138e576200138e62003885565b600181811c90821680620038ca57607f821691505b602082108103620038e957634e487b7160e01b5f52602260045260245ffd5b50919050565b808201808211156200138e576200138e62003885565b818103818111156200138e576200138e62003885565b80820281158282048414176200138e576200138e62003885565b5f826200395057634e487b7160e01b5f52601260045260245ffd5b500490565b60a081525f6200396960a0830188620035eb565b82810360208401526200397d8188620035eb565b6001600160a01b03878116604086015286166060850152838103608085015290506200170e8185620035eb565b601f82111562000d3d57805f5260205f20601f840160051c81016020851015620039d15750805b601f840160051c820191505b8181101562003255575f8155600101620039dd565b81516001600160401b0381111562003a0e5762003a0e620036fe565b62003a268162003a1f8454620038b5565b84620039aa565b602080601f83116001811462003a5c575f841562003a445750858301515b5f19600386901b1c1916600185901b1785556200299a565b5f85815260208120601f198616915b8281101562003a8c5788860151825594840194600190910190840162003a6b565b508582101562003aaa57878501515f19600388901b60f8161c191681555b5050505050600190811b01905550565b608081525f62003ace6080830187620035eb565b828103602084015262003ae28187620035eb565b9050828103604084015262003af88186620035eb565b91505082606083015295945050505050565b5f6020828403121562003b1b575f80fd5b5051919050565b9515158652602086019490945260408501929092526060840152608083015260a082015260c00190565b5f60ff821660ff810362003b645762003b6462003885565b60010192915050565b6001600160a01b03929092168252602082015260400190565b5f6020828403121562003b97575f80fd5b8151801515811462002a19575f80fd5b5f805f6060848603121562003bba575f80fd5b8351925060208401519150604084015190509250925092565b5f60033d111562001d655760045f803e505f5160e01c90565b5f60443d101562003bfa5790565b6040516003193d81016004833e81513d6001600160401b03808311602484018310171562003c2a57505050505090565b828501915081518181111562003c435750505050505090565b843d870101602082850101111562003c5e5750505050505090565b62003c6f6020828601018762003712565b509095945050505050565b60ff83168152604060208201525f62001bea6040830184620035eb565b5f6020828403121562003ca8575f80fd5b815162002a1981620034a0565b928352602083019190915260408201526060019056fe61018060405234801562000011575f80fd5b5060405162001d4138038062001d41833981016040819052620000349162000437565b6b033b2e3c9fd0803ce80000008580604051806040016040528060018152602001603160f81b8152508888816003908162000070919062000571565b5060046200007f828262000571565b5062000091915083905060056200022c565b61012052620000a28160066200022c565b61014052815160208084019190912060e052815190820120610100524660a0526200012f60e05161010051604080517f8b73c3c69bb8fe3d512ecc4cf759cc79239f7b179b0ffacaa9a75d522b39400f60208201529081019290925260608201524660808201523060a08201525f9060c00160405160208183030381529060405280519060200120905090565b60805250503060c052505f819003620001625760405163392e1e2760e01b81525f60048201526024015b60405180910390fd5b6101605260017f9b779b17422d0df92223018b32b4d1fa46e071723d6817e2486d003becc55f0055620001965f8462000264565b50620001c37fa49807205ce4d355092ef5a8a18f56e8913cf4a201fbe287825b095693c217758462000264565b50620001f07f9f2df0fed2c77648de5860a4cc508cd0818c85b8b8a1ab4ceeef8d981c8956a68362000264565b506009620001ff828262000571565b5050600a8054610100600160481b031916610100426001600160401b031602179055506200069592505050565b5f6020835110156200024b57620002438362000313565b90506200025e565b8162000258848262000571565b5060ff90505b92915050565b5f8281526008602090815260408083206001600160a01b038516845290915281205460ff166200030b575f8381526008602090815260408083206001600160a01b03861684529091529020805460ff19166001179055620002c23390565b6001600160a01b0316826001600160a01b0316847f2f8788117e7eff1d82e926ec794901d17c78024a50270940304540a733656f0d60405160405180910390a45060016200025e565b505f6200025e565b5f80829050601f8151111562000340578260405163305a27a960e01b81526004016200015991906200063d565b80516200034d8262000671565b179392505050565b634e487b7160e01b5f52604160045260245ffd5b5f5b83811015620003855781810151838201526020016200036b565b50505f910152565b5f82601f8301126200039d575f80fd5b81516001600160401b0380821115620003ba57620003ba62000355565b604051601f8301601f19908116603f01168101908282118183101715620003e557620003e562000355565b81604052838152866020858801011115620003fe575f80fd5b6200041184602083016020890162000369565b9695505050505050565b80516001600160a01b038116811462000432575f80fd5b919050565b5f805f805f60a086880312156200044c575f80fd5b85516001600160401b038082111562000463575f80fd5b6200047189838a016200038d565b9650602088015191508082111562000487575f80fd5b6200049589838a016200038d565b9550620004a5604089016200041b565b9450620004b5606089016200041b565b93506080880151915080821115620004cb575f80fd5b50620004da888289016200038d565b9150509295509295909350565b600181811c90821680620004fc57607f821691505b6020821081036200051b57634e487b7160e01b5f52602260045260245ffd5b50919050565b601f8211156200056c57805f5260205f20601f840160051c81016020851015620005485750805b601f840160051c820191505b8181101562000569575f815560010162000554565b50505b505050565b81516001600160401b038111156200058d576200058d62000355565b620005a5816200059e8454620004e7565b8462000521565b602080601f831160018114620005db575f8415620005c35750858301515b5f19600386901b1c1916600185901b17855562000635565b5f85815260208120601f198616915b828110156200060b57888601518255948401946001909101908401620005ea565b50858210156200062957878501515f19600388901b60f8161c191681555b505060018460011b0185555b505050505050565b602081525f82518060208401526200065d81604085016020870162000369565b601f01601f19169190910160400192915050565b805160208083015191908110156200051b575f1960209190910360031b1b16919050565b60805160a05160c05160e05161010051610120516101405161016051611650620006f15f395f6105be01525f610cc801525f610c9b01525f610bb401525f610b8c01525f610ae701525f610b1101525f610b3b01526116505ff3fe608060405234801561000f575f80fd5b5060043610610189575f3560e01c806301ffc9a71461018d57806303ee438c146101b557806306fdde03146101ca578063095ea7b3146101d25780630d7982ad146101e557806318160ddd146101ef57806323b872dd14610201578063248a9ca3146102145780632f2ff15d146102275780633092afd51461023a578063313ce5671461024d5780633434223c1461025c578063355274ea1461026e5780633644e5151461027657806336568abe1461027e57806340c10f191461029157806342966c68146102a45780635c8671ac146102b757806370a08231146102c257806375b238fc146102ea57806379cc6790146102fe5780637ecebe001461031157806384b0196e1461032457806391d148541461033f5780639587fa991461035257806395d89b411461035a578063a217fddf14610362578063a9059cbb14610369578063cf09e0d01461037c578063d505accf146103ac578063d5391393146103bf578063d547741f146103d3578063dd62ed3e146103e6575b5f80fd5b6101a061019b3660046112b5565b6103f9565b60405190151581526020015b60405180910390f35b6101bd61042f565b6040516101ac9190611326565b6101bd6104bf565b6101a06101e0366004611353565b6104ce565b6101ed6104e5565b005b6002545b6040519081526020016101ac565b6101a061020f36600461137b565b610530565b6101f36102223660046113b4565b610553565b6101ed6102353660046113cb565b610567565b6101ed6102483660046113f5565b610589565b604051601281526020016101ac565b6101f3676765c793fa10079d601b1b81565b6101f36105bc565b6101f36105e0565b6101ed61028c3660046113cb565b6105ee565b6101ed61029f366004611353565b610621565b6101ed6102b23660046113b4565b610676565b600a5460ff166101a0565b6101f36102d03660046113f5565b6001600160a01b03165f9081526020819052604090205490565b6101f35f805160206115fb83398151915281565b6101ed61030c366004611353565b61069b565b6101f361031f3660046113f5565b6106b0565b61032c6106cd565b6040516101ac979695949392919061140e565b6101a061034d3660046113cb565b61070f565b6101ed610739565b6101bd610780565b6101f35f81565b6101a0610377366004611353565b61078f565b600a546103949061010090046001600160401b031681565b6040516001600160401b0390911681526020016101ac565b6101ed6103ba3660046114a5565b61079c565b6101f35f805160206115db83398151915281565b6101ed6103e13660046113cb565b6108d7565b6101f36103f4366004611512565b6108f3565b5f6001600160e01b03198216637965db0b60e01b148061042957506301ffc9a760e01b6001600160e01b03198316145b92915050565b60606009805461043e9061153a565b80601f016020809104026020016040519081016040528092919081815260200182805461046a9061153a565b80156104b55780601f1061048c576101008083540402835291602001916104b5565b820191905f5260205f20905b81548152906001019060200180831161049857829003601f168201915b5050505050905090565b60606003805461043e9061153a565b5f336104db81858561091d565b5060019392505050565b5f805160206115db8339815191526104fc8161092a565b600a5460ff1615610520576040516317c3335f60e21b815260040160405180910390fd5b50600a805460ff19166001179055565b5f3361053d858285610937565b610548858585610982565b506001949350505050565b5f9081526008602052604090206001015490565b61057082610553565b6105798161092a565b61058383836109df565b50505050565b5f805160206115fb8339815191526105a08161092a565b6105b75f805160206115db83398151915283610a70565b505050565b7f000000000000000000000000000000000000000000000000000000000000000090565b5f6105e9610adb565b905090565b6001600160a01b03811633146106175760405163334bd91960e11b815260040160405180910390fd5b6105b78282610a70565b5f805160206115db8339815191526106388161092a565b610640610c04565b600a5460ff16156106645760405163b45b708760e01b815260040160405180910390fd5b61066e8383610c1f565b6105b7610c53565b5f805160206115db83398151915261068d8161092a565b6106973383610c60565b5050565b6106a6823383610937565b6106978282610c60565b6001600160a01b0381165f90815260076020526040812054610429565b5f6060805f805f60606106de610c94565b6106e6610cc1565b604080515f80825260208201909252600f60f81b9b939a50919850469750309650945092509050565b5f9182526008602090815260408084206001600160a01b0393909316845291905290205460ff1690565b5f805160206115fb8339815191526107508161092a565b600a5460ff1661077357604051637e4e109b60e01b815260040160405180910390fd5b50600a805460ff19169055565b60606004805461043e9061153a565b5f336104db818585610982565b834211156107c55760405163313c898160e11b8152600481018590526024015b60405180910390fd5b5f7f6e71edae12b1b97f4d1f60370fef10105fa2faae0126114a169c64845d6126c98888886108108c6001600160a01b03165f90815260076020526040902080546001810190915590565b6040805160208101969096526001600160a01b0394851690860152929091166060840152608083015260a082015260c0810186905260e0016040516020818303038152906040528051906020012090505f61086a82610cee565b90505f61087982878787610d1a565b9050896001600160a01b0316816001600160a01b0316146108c0576040516325c0072360e11b81526001600160a01b0380831660048301528b1660248201526044016107bc565b6108cb8a8a8a61091d565b50505050505050505050565b6108e082610553565b6108e98161092a565b6105838383610a70565b6001600160a01b039182165f90815260016020908152604080832093909416825291909152205490565b6105b78383836001610d46565b6109348133610e18565b50565b5f61094284846108f3565b90505f19811015610583578181101561097457828183604051637dc7a0d960e11b81526004016107bc93929190611572565b61058384848484035f610d46565b6001600160a01b0383166109ab575f604051634b637e8f60e11b81526004016107bc9190611593565b6001600160a01b0382166109d4575f60405163ec442f0560e01b81526004016107bc9190611593565b6105b7838383610e51565b5f6109ea838361070f565b610a69575f8381526008602090815260408083206001600160a01b03861684529091529020805460ff19166001179055610a213390565b6001600160a01b0316826001600160a01b0316847f2f8788117e7eff1d82e926ec794901d17c78024a50270940304540a733656f0d60405160405180910390a4506001610429565b505f610429565b5f610a7b838361070f565b15610a69575f8381526008602090815260408083206001600160a01b0386168085529252808320805460ff1916905551339286917ff6391f5c32d9c69d2a47ea670b442974b53935d1edc7fd64eb21e047a839171b9190a4506001610429565b5f306001600160a01b037f000000000000000000000000000000000000000000000000000000000000000016148015610b3357507f000000000000000000000000000000000000000000000000000000000000000046145b15610b5d57507f000000000000000000000000000000000000000000000000000000000000000090565b6105e9604080517f8b73c3c69bb8fe3d512ecc4cf759cc79239f7b179b0ffacaa9a75d522b39400f60208201527f0000000000000000000000000000000000000000000000000000000000000000918101919091527f000000000000000000000000000000000000000000000000000000000000000060608201524660808201523060a08201525f9060c00160405160208183030381529060405280519060200120905090565b610c0c610e5c565b6002610c1c610c19610e84565b90565b55565b6001600160a01b038216610c48575f60405163ec442f0560e01b81526004016107bc9190611593565b6106975f8383610e51565b6001610c1c610c19610e84565b6001600160a01b038216610c89575f604051634b637e8f60e11b81526004016107bc9190611593565b610697825f83610e51565b60606105e97f00000000000000000000000000000000000000000000000000000000000000006005610ea8565b60606105e97f00000000000000000000000000000000000000000000000000000000000000006006610ea8565b5f610429610cfa610adb565b8360405161190160f01b8152600281019290925260228201526042902090565b5f805f80610d2a88888888610f51565b925092509250610d3a828261100f565b50909695505050505050565b6001600160a01b038416610d6f575f60405163e602df0560e01b81526004016107bc9190611593565b6001600160a01b038316610d98575f604051634a1406b160e11b81526004016107bc9190611593565b6001600160a01b038085165f908152600160209081526040808320938716835292905220829055801561058357826001600160a01b0316846001600160a01b03167f8c5be1e5ebec7d5bd14f71427d1e84f3dd0314c0f7b2291e5b200ac8c7c3b92584604051610e0a91815260200190565b60405180910390a350505050565b610e22828261070f565b6106975760405163e2517d3f60e01b81526001600160a01b0382166004820152602481018390526044016107bc565b6105b78383836110c7565b610e64611129565b15610e8257604051633ee5aeb560e01b815260040160405180910390fd5b565b7f9b779b17422d0df92223018b32b4d1fa46e071723d6817e2486d003becc55f0090565b606060ff8314610ec257610ebb8361113e565b9050610429565b818054610ece9061153a565b80601f0160208091040260200160405190810160405280929190818152602001828054610efa9061153a565b8015610f455780601f10610f1c57610100808354040283529160200191610f45565b820191905f5260205f20905b815481529060010190602001808311610f2857829003601f168201915b50505050509050610429565b5f80806fa2a8918ca85bafe22016d0b997e4df60600160ff1b03841115610f8057505f91506003905082611005565b604080515f808252602082018084528a905260ff891692820192909252606081018790526080810186905260019060a0016020604051602081039080840390855afa158015610fd1573d5f803e3d5ffd5b5050604051601f1901519150506001600160a01b038116610ffc57505f925060019150829050611005565b92505f91508190505b9450945094915050565b5f826003811115611022576110226115a7565b0361102b575050565b600182600381111561103f5761103f6115a7565b0361105d5760405163f645eedf60e01b815260040160405180910390fd5b6002826003811115611071576110716115a7565b036110925760405163fce698f760e01b8152600481018290526024016107bc565b60038260038111156110a6576110a66115a7565b03610697576040516335e2f38360e21b8152600481018290526024016107bc565b6110d283838361117b565b6001600160a01b0383166105b7575f6110e96105bc565b90505f6110f560025490565b9050818111156111225760405163279e7e1560e21b815260048101829052602481018390526044016107bc565b5050505050565b5f6002611137610c19610e84565b5414919050565b60605f61114a8361128e565b6040805160208082528183019092529192505f91906020820181803683375050509182525060208101929092525090565b6001600160a01b0383166111a5578060025f82825461119a91906115bb565b909155506112029050565b6001600160a01b0383165f90815260208190526040902054818110156111e45783818360405163391434e360e21b81526004016107bc93929190611572565b6001600160a01b0384165f9081526020819052604090209082900390555b6001600160a01b03821661121e5760028054829003905561123c565b6001600160a01b0382165f9081526020819052604090208054820190555b816001600160a01b0316836001600160a01b03167fddf252ad1be2c89b69c2b068fc378daa952ba7f163c4a11628f55a4df523b3ef8360405161128191815260200190565b60405180910390a3505050565b5f60ff8216601f81111561042957604051632cd44ac360e21b815260040160405180910390fd5b5f602082840312156112c5575f80fd5b81356001600160e01b0319811681146112dc575f80fd5b9392505050565b5f81518084525f5b81811015611307576020818501810151868301820152016112eb565b505f602082860101526020601f19601f83011685010191505092915050565b602081525f6112dc60208301846112e3565b80356001600160a01b038116811461134e575f80fd5b919050565b5f8060408385031215611364575f80fd5b61136d83611338565b946020939093013593505050565b5f805f6060848603121561138d575f80fd5b61139684611338565b92506113a460208501611338565b9150604084013590509250925092565b5f602082840312156113c4575f80fd5b5035919050565b5f80604083850312156113dc575f80fd5b823591506113ec60208401611338565b90509250929050565b5f60208284031215611405575f80fd5b6112dc82611338565b60ff60f81b881681525f602060e0602084015261142e60e084018a6112e3565b8381036040850152611440818a6112e3565b606085018990526001600160a01b038816608086015260a0850187905284810360c0860152855180825260208088019350909101905f5b8181101561149357835183529284019291840191600101611477565b50909c9b505050505050505050505050565b5f805f805f805f60e0888a0312156114bb575f80fd5b6114c488611338565b96506114d260208901611338565b95506040880135945060608801359350608088013560ff811681146114f5575f80fd5b9699959850939692959460a0840135945060c09093013592915050565b5f8060408385031215611523575f80fd5b61152c83611338565b91506113ec60208401611338565b600181811c9082168061154e57607f821691505b60208210810361156c57634e487b7160e01b5f52602260045260245ffd5b50919050565b6001600160a01b039390931683526020830191909152604082015260600190565b6001600160a01b0391909116815260200190565b634e487b7160e01b5f52602160045260245ffd5b8082018082111561042957634e487b7160e01b5f52601160045260245ffdfe9f2df0fed2c77648de5860a4cc508cd0818c85b8b8a1ab4ceeef8d981c8956a6a49807205ce4d355092ef5a8a18f56e8913cf4a201fbe287825b095693c21775a2646970667358221220b9a9e92c6738f6b25c9e59e8f139616ce65f87ab679f3e2e5329dcfbeba3a9e464736f6c634300081800332c76e7a47fd53e2854856ac3f0a5f3ee40d15cfaa82266357ea9779c486ab9c38537cc5a2f1b419ada876e8be0205f4eb54ed21654d65eab177bdee7ea31413aa264697066735822122078e56a7e3bd72ee275ec14279d262bb80f745cd2b0dd13b79cb00a465d2ff55764736f6c63430008180033","linkReferences":{}},"methodIdentifiers":{"CREATOR_FEE_SHARE()":"d6badc95","FEE_BPS()":"bf333f2c","GRADUATION_THRESHOLD()":"fcfc0c09","PERP_ENABLE_THRESHOLD()":"256d3b1c","PLATFORM_FEE_SHARE()":"a487fa03","REAL_TOKEN_SUPPLY()":"ff3f571e","REFERRER_FEE_SHARE()":"06f70a36","VIRTUAL_ETH_RESERVE()":"cb24a72f","VIRTUAL_TOKEN_RESERVE()":"7e309b92","WETH()":"ad5c4648","allTokens(uint256)":"634282af","buy(address,uint256)":"cce7ec13","claimCreatorEarnings(address)":"3328b83c","claimPlatformEarnings()":"ffe5e529","claimReferrerEarnings()":"0297fdb1","createToken(string,string,string,uint256)":"efbe8fd1","creatorEarnings(address)":"fa3c30a8","emergencyWithdraw(address,address)":"6382d9ad","feeReceiver()":"b3f00674","getAllTokens()":"2a5c792a","getCurrentPrice(address)":"84cc315b","getPoolState(address)":"ec04205b","getTokenCount()":"78a89567","getTokenCreator(address)":"c78418b9","owner()":"8da5cb5b","pause()":"8456cb59","paused()":"5c975abb","platformEarnings()":"be820aa2","previewBuy(address,uint256)":"b5ac48a0","previewSell(address,uint256)":"e5f0f5cc","priceFeed()":"741bef1a","referrerEarnings(address)":"eb3ba72f","renounceOwnership()":"715018a6","retryGraduation(address)":"7e8eed87","rollbackGraduation(address)":"dc6e8eac","sell(address,uint256,uint256)":"6a272462","serviceFee()":"8abdf5aa","setFeeReceiver(address)":"efdcd974","setPriceFeed(address)":"724e78da","setReferrer(address)":"a18a7bfc","setServiceFee(uint256)":"5cdf76f8","setUniswapV2Router(address)":"1419841d","transferOwnership(address)":"f2fde38b","uniswapV2Router()":"1694505e","unpause()":"3f4ba83a","userReferrer(address)":"7c3fcc38"},"id":83}