{"abi":[{"type":"constructor","inputs":[],"stateMutability":"nonpayable"},{"type":"receive","stateMutability":"payable"},{"type":"function","name":"authorizedContracts","inputs":[{"name":"","type":"address","internalType":"address"}],"outputs":[{"name":"","type":"bool","internalType":"bool"}],"stateMutability":"view"},{"type":"function","name":"balances","inputs":[{"name":"","type":"address","internalType":"address"}],"outputs":[{"name":"","type":"uint256","internalType":"uint256"}],"stateMutability":"view"},{"type":"function","name":"claimPartialPendingProfit","inputs":[{"name":"amount","type":"uint256","internalType":"uint256"}],"outputs":[],"stateMutability":"nonpayable"},{"type":"function","name":"claimPendingProfit","inputs":[],"outputs":[],"stateMutability":"nonpayable"},{"type":"function","name":"collectFee","inputs":[{"name":"user","type":"address","internalType":"address"},{"name":"feeReceiver","type":"address","internalType":"address"},{"name":"amount","type":"uint256","internalType":"uint256"}],"outputs":[],"stateMutability":"nonpayable"},{"type":"function","name":"collectFeeFromLocked","inputs":[{"name":"user","type":"address","internalType":"address"},{"name":"feeReceiver","type":"address","internalType":"address"},{"name":"amount","type":"uint256","internalType":"uint256"}],"outputs":[],"stateMutability":"nonpayable"},{"type":"function","name":"deposit","inputs":[],"outputs":[],"stateMutability":"payable"},{"type":"function","name":"distributeLiquidation","inputs":[{"name":"liquidatedUser","type":"address","internalType":"address"},{"name":"liquidator","type":"address","internalType":"address"},{"name":"liquidatorReward","type":"uint256","internalType":"uint256"},{"name":"remainingToPool","type":"uint256","internalType":"uint256"}],"outputs":[],"stateMutability":"nonpayable"},{"type":"function","name":"emergencyRescue","inputs":[{"name":"user","type":"address","internalType":"address"},{"name":"amount","type":"uint256","internalType":"uint256"}],"outputs":[],"stateMutability":"nonpayable"},{"type":"function","name":"getBalance","inputs":[{"name":"user","type":"address","internalType":"address"}],"outputs":[{"name":"","type":"uint256","internalType":"uint256"}],"stateMutability":"view"},{"type":"function","name":"getLockedBalance","inputs":[{"name":"user","type":"address","internalType":"address"}],"outputs":[{"name":"","type":"uint256","internalType":"uint256"}],"stateMutability":"view"},{"type":"function","name":"getPendingProfit","inputs":[{"name":"user","type":"address","internalType":"address"}],"outputs":[{"name":"","type":"uint256","internalType":"uint256"}],"stateMutability":"view"},{"type":"function","name":"getTotalBalance","inputs":[{"name":"user","type":"address","internalType":"address"}],"outputs":[{"name":"","type":"uint256","internalType":"uint256"}],"stateMutability":"view"},{"type":"function","name":"insuranceFund","inputs":[],"outputs":[{"name":"","type":"address","internalType":"address"}],"stateMutability":"view"},{"type":"function","name":"lendingPool","inputs":[],"outputs":[{"name":"","type":"address","internalType":"address"}],"stateMutability":"view"},{"type":"function","name":"lockMargin","inputs":[{"name":"user","type":"address","internalType":"address"},{"name":"amount","type":"uint256","internalType":"uint256"}],"outputs":[],"stateMutability":"nonpayable"},{"type":"function","name":"lockedBalances","inputs":[{"name":"","type":"address","internalType":"address"}],"outputs":[{"name":"","type":"uint256","internalType":"uint256"}],"stateMutability":"view"},{"type":"function","name":"owner","inputs":[],"outputs":[{"name":"","type":"address","internalType":"address"}],"stateMutability":"view"},{"type":"function","name":"pause","inputs":[],"outputs":[],"stateMutability":"nonpayable"},{"type":"function","name":"paused","inputs":[],"outputs":[{"name":"","type":"bool","internalType":"bool"}],"stateMutability":"view"},{"type":"function","name":"pendingProfits","inputs":[{"name":"","type":"address","internalType":"address"}],"outputs":[{"name":"","type":"uint256","internalType":"uint256"}],"stateMutability":"view"},{"type":"function","name":"renounceOwnership","inputs":[],"outputs":[],"stateMutability":"nonpayable"},{"type":"function","name":"setAuthorizedContract","inputs":[{"name":"contractAddr","type":"address","internalType":"address"},{"name":"authorized","type":"bool","internalType":"bool"}],"outputs":[],"stateMutability":"nonpayable"},{"type":"function","name":"setInsuranceFund","inputs":[{"name":"_insuranceFund","type":"address","internalType":"address"}],"outputs":[],"stateMutability":"nonpayable"},{"type":"function","name":"setLendingPool","inputs":[{"name":"_lendingPool","type":"address","internalType":"address"}],"outputs":[],"stateMutability":"nonpayable"},{"type":"function","name":"settleBankruptcy","inputs":[{"name":"user","type":"address","internalType":"address"},{"name":"collateral","type":"uint256","internalType":"uint256"},{"name":"deficit","type":"uint256","internalType":"uint256"}],"outputs":[{"name":"coveredDeficit","type":"uint256","internalType":"uint256"}],"stateMutability":"nonpayable"},{"type":"function","name":"settleLoss","inputs":[{"name":"user","type":"address","internalType":"address"},{"name":"collateral","type":"uint256","internalType":"uint256"},{"name":"loss","type":"uint256","internalType":"uint256"}],"outputs":[{"name":"actualLoss","type":"uint256","internalType":"uint256"}],"stateMutability":"nonpayable"},{"type":"function","name":"settlePnL","inputs":[{"name":"winner","type":"address","internalType":"address"},{"name":"loser","type":"address","internalType":"address"},{"name":"amount","type":"uint256","internalType":"uint256"}],"outputs":[],"stateMutability":"nonpayable"},{"type":"function","name":"settleProfit","inputs":[{"name":"user","type":"address","internalType":"address"},{"name":"collateral","type":"uint256","internalType":"uint256"},{"name":"profit","type":"uint256","internalType":"uint256"}],"outputs":[],"stateMutability":"nonpayable"},{"type":"function","name":"transferFromLocked","inputs":[{"name":"from","type":"address","internalType":"address"},{"name":"to","type":"address","internalType":"address"},{"name":"amount","type":"uint256","internalType":"uint256"}],"outputs":[],"stateMutability":"nonpayable"},{"type":"function","name":"transferOwnership","inputs":[{"name":"newOwner","type":"address","internalType":"address"}],"outputs":[],"stateMutability":"nonpayable"},{"type":"function","name":"unlockMargin","inputs":[{"name":"user","type":"address","internalType":"address"},{"name":"amount","type":"uint256","internalType":"uint256"}],"outputs":[],"stateMutability":"nonpayable"},{"type":"function","name":"unpause","inputs":[],"outputs":[],"stateMutability":"nonpayable"},{"type":"function","name":"withdraw","inputs":[{"name":"amount","type":"uint256","internalType":"uint256"}],"outputs":[],"stateMutability":"nonpayable"},{"type":"event","name":"BankruptcyHandled","inputs":[{"name":"user","type":"address","indexed":true,"internalType":"address"},{"name":"collateral","type":"uint256","indexed":false,"internalType":"uint256"},{"name":"deficit","type":"uint256","indexed":false,"internalType":"uint256"},{"name":"covered","type":"uint256","indexed":false,"internalType":"uint256"}],"anonymous":false},{"type":"event","name":"ContractAuthorized","inputs":[{"name":"contractAddr","type":"address","indexed":true,"internalType":"address"},{"name":"authorized","type":"bool","indexed":false,"internalType":"bool"}],"anonymous":false},{"type":"event","name":"Deposit","inputs":[{"name":"user","type":"address","indexed":true,"internalType":"address"},{"name":"amount","type":"uint256","indexed":false,"internalType":"uint256"},{"name":"timestamp","type":"uint256","indexed":false,"internalType":"uint256"}],"anonymous":false},{"type":"event","name":"FeeCollected","inputs":[{"name":"user","type":"address","indexed":true,"internalType":"address"},{"name":"feeReceiver","type":"address","indexed":true,"internalType":"address"},{"name":"amount","type":"uint256","indexed":false,"internalType":"uint256"}],"anonymous":false},{"type":"event","name":"InsuranceFundSet","inputs":[{"name":"fund","type":"address","indexed":true,"internalType":"address"}],"anonymous":false},{"type":"event","name":"LendingPoolSet","inputs":[{"name":"pool","type":"address","indexed":true,"internalType":"address"}],"anonymous":false},{"type":"event","name":"Liquidated","inputs":[{"name":"user","type":"address","indexed":true,"internalType":"address"},{"name":"liquidator","type":"address","indexed":true,"internalType":"address"},{"name":"liquidatorReward","type":"uint256","indexed":false,"internalType":"uint256"},{"name":"remainingToPool","type":"uint256","indexed":false,"internalType":"uint256"}],"anonymous":false},{"type":"event","name":"LockedBalanceTransferred","inputs":[{"name":"from","type":"address","indexed":true,"internalType":"address"},{"name":"to","type":"address","indexed":true,"internalType":"address"},{"name":"amount","type":"uint256","indexed":false,"internalType":"uint256"}],"anonymous":false},{"type":"event","name":"LossCollected","inputs":[{"name":"user","type":"address","indexed":true,"internalType":"address"},{"name":"collateral","type":"uint256","indexed":false,"internalType":"uint256"},{"name":"loss","type":"uint256","indexed":false,"internalType":"uint256"}],"anonymous":false},{"type":"event","name":"MarginLocked","inputs":[{"name":"user","type":"address","indexed":true,"internalType":"address"},{"name":"amount","type":"uint256","indexed":false,"internalType":"uint256"}],"anonymous":false},{"type":"event","name":"MarginUnlocked","inputs":[{"name":"user","type":"address","indexed":true,"internalType":"address"},{"name":"amount","type":"uint256","indexed":false,"internalType":"uint256"}],"anonymous":false},{"type":"event","name":"OwnershipTransferred","inputs":[{"name":"previousOwner","type":"address","indexed":true,"internalType":"address"},{"name":"newOwner","type":"address","indexed":true,"internalType":"address"}],"anonymous":false},{"type":"event","name":"Paused","inputs":[{"name":"account","type":"address","indexed":false,"internalType":"address"}],"anonymous":false},{"type":"event","name":"PnLSettled","inputs":[{"name":"from","type":"address","indexed":true,"internalType":"address"},{"name":"to","type":"address","indexed":true,"internalType":"address"},{"name":"amount","type":"uint256","indexed":false,"internalType":"uint256"}],"anonymous":false},{"type":"event","name":"ProfitClaimed","inputs":[{"name":"user","type":"address","indexed":true,"internalType":"address"},{"name":"amount","type":"uint256","indexed":false,"internalType":"uint256"}],"anonymous":false},{"type":"event","name":"ProfitPaid","inputs":[{"name":"user","type":"address","indexed":true,"internalType":"address"},{"name":"collateral","type":"uint256","indexed":false,"internalType":"uint256"},{"name":"profit","type":"uint256","indexed":false,"internalType":"uint256"}],"anonymous":false},{"type":"event","name":"ProfitPending","inputs":[{"name":"user","type":"address","indexed":true,"internalType":"address"},{"name":"amount","type":"uint256","indexed":false,"internalType":"uint256"}],"anonymous":false},{"type":"event","name":"Unpaused","inputs":[{"name":"account","type":"address","indexed":false,"internalType":"address"}],"anonymous":false},{"type":"event","name":"Withdraw","inputs":[{"name":"user","type":"address","indexed":true,"internalType":"address"},{"name":"amount","type":"uint256","indexed":false,"internalType":"uint256"},{"name":"timestamp","type":"uint256","indexed":false,"internalType":"uint256"}],"anonymous":false},{"type":"error","name":"EnforcedPause","inputs":[]},{"type":"error","name":"ExpectedPause","inputs":[]},{"type":"error","name":"InsufficientBalance","inputs":[]},{"type":"error","name":"InsufficientLockedBalance","inputs":[]},{"type":"error","name":"InsuranceFundInsufficient","inputs":[]},{"type":"error","name":"InvalidAmount","inputs":[]},{"type":"error","name":"NoPendingProfit","inputs":[]},{"type":"error","name":"OwnableInvalidOwner","inputs":[{"name":"owner","type":"address","internalType":"address"}]},{"type":"error","name":"OwnableUnauthorizedAccount","inputs":[{"name":"account","type":"address","internalType":"address"}]},{"type":"error","name":"ReentrancyGuardReentrantCall","inputs":[]},{"type":"error","name":"TransferFailed","inputs":[]},{"type":"error","name":"Unauthorized","inputs":[]},{"type":"error","name":"ZeroAddress","inputs":[]}],"bytecode":{"object":"0x608060405234801561000f575f80fd5b50338061003557604051631e4fbdf760e01b81525f600482015260240160405180910390fd5b61003e81610068565b5060017f9b779b17422d0df92223018b32b4d1fa46e071723d6817e2486d003becc55f00556100b7565b5f80546001600160a01b038381166001600160a01b0319831681178455604051919092169283917f8be0079c531659141344cd1fd0a4f28419497f9722a3daafe3b4186f6b6457e09190a35050565b6122bc806100c45f395ff3fe60806040526004361061018b575f3560e01c80630483a7f6146101e2578063113aa8b11461022057806318c9a3f21461024157806327e235e3146102605780632e1a7d4d1461028b5780632f45580c146102aa57806339cc1378146102c95780633f4ba83a146102f45780633ff042521461030857806341a4b99f14610327578063525c91ec1461033b5780635a7ae2281461036f5780635c975abb1461038e578063651b8cb6146103b25780636d7ab40d146103d1578063715018a6146103f057806372f81e88146104045780638456cb59146104235780638bc34718146104375780638da5cb5b14610456578063a59a997314610477578063a5bce37914610496578063a7406307146104b5578063b72952ee146104d4578063b7902303146104f3578063c3c0529314610512578063c408689314610531578063d0e30db014610565578063d3d381931461056d578063d5b9221b1461058c578063f174ea0a146105ba578063f2fa7392146105d9578063f2fde38b146105f8578063f8b2cb4f14610617575f80fd5b366101de57335f90815260016020526040812080543492906101ae90849061200e565b909155505060405133905f80516020612207833981519152906101d49034904290612021565b60405180910390a2005b5f80fd5b3480156101ed575f80fd5b5061020d6101fc36600461204a565b60026020525f908152604090205481565b6040519081526020015b60405180910390f35b34801561022b575f80fd5b5061023f61023a36600461204a565b61064b565b005b34801561024c575f80fd5b5061023f61025b366004612063565b6106c3565b34801561026b575f80fd5b5061020d61027a36600461204a565b60016020525f908152604090205481565b348015610296575f80fd5b5061023f6102a536600461209c565b610803565b3480156102b5575f80fd5b5061023f6102c43660046120b3565b610927565b3480156102d4575f80fd5b5061020d6102e336600461204a565b60066020525f908152604090205481565b3480156102ff575f80fd5b5061023f610a28565b348015610313575f80fd5b5061020d6103223660046120db565b610a3a565b348015610332575f80fd5b5061023f610c6a565b348015610346575f80fd5b5061020d61035536600461204a565b6001600160a01b03165f9081526006602052604090205490565b34801561037a575f80fd5b5061023f61038936600461210b565b610dd2565b348015610399575f80fd5b506103a261109f565b6040519015158152602001610217565b3480156103bd575f80fd5b5061023f6103cc366004612063565b6110ae565b3480156103dc575f80fd5b5061023f6103eb366004612063565b611168565b3480156103fb575f80fd5b5061023f61126d565b34801561040f575f80fd5b5061023f61041e366004612063565b61127e565b34801561042e575f80fd5b5061023f611383565b348015610442575f80fd5b5061020d6104513660046120db565b611393565b348015610461575f80fd5b5061046a611599565b604051610217919061214a565b348015610482575f80fd5b5060045461046a906001600160a01b031681565b3480156104a1575f80fd5b5061023f6104b03660046120b3565b6115a7565b3480156104c0575f80fd5b5061023f6104cf36600461209c565b6116a0565b3480156104df575f80fd5b5061023f6104ee3660046120b3565b611821565b3480156104fe575f80fd5b5060055461046a906001600160a01b031681565b34801561051d575f80fd5b5061023f61052c36600461204a565b611944565b34801561053c575f80fd5b5061020d61054b36600461204a565b6001600160a01b03165f9081526002602052604090205490565b61023f6119bc565b348015610578575f80fd5b5061020d61058736600461204a565b611a40565b348015610597575f80fd5b506103a26105a636600461204a565b60036020525f908152604090205460ff1681565b3480156105c5575f80fd5b5061023f6105d43660046120db565b611a73565b3480156105e4575f80fd5b5061023f6105f336600461215e565b611d57565b348015610603575f80fd5b5061023f61061236600461204a565b611ddd565b348015610622575f80fd5b5061020d61063136600461204a565b6001600160a01b03165f9081526001602052604090205490565b610653611e17565b6001600160a01b03811661067a5760405163d92e233d60e01b815260040160405180910390fd5b600480546001600160a01b0319166001600160a01b0383169081179091556040517f1222804283c650162c0f858b42dcc4564e940f0cc2b3f001bcd6af8aa00a2f30905f90a250565b335f9081526003602052604090205460ff166106f1576040516282b42960e81b815260040160405180910390fd5b80156107fe576001600160a01b0383165f9081526002602052604090205481111561072f5760405163b646ec7b60e01b815260040160405180910390fd5b6001600160a01b0382166107565760405163d92e233d60e01b815260040160405180910390fd5b6001600160a01b0383165f908152600260205260408120805483929061077d908490612197565b90915550506001600160a01b0382165f90815260016020526040812080548392906107a990849061200e565b92505081905550816001600160a01b0316836001600160a01b03167ff228de527fc1b9843baac03b9a04565473a263375950e63435d4138464386f46836040516107f591815260200190565b60405180910390a35b505050565b61080b611e49565b610813611e64565b805f036108335760405163162908e360e11b815260040160405180910390fd5b335f9081526001602052604090205481111561086257604051631e9acf1760e31b815260040160405180910390fd5b335f9081526001602052604081208054839290610880908490612197565b90915550506040515f90339083908381818185875af1925050503d805f81146108c4576040519150601f19603f3d011682016040523d82523d5f602084013e6108c9565b606091505b50509050806108eb576040516312171d8360e31b815260040160405180910390fd5b336001600160a01b03165f805160206122678339815191528342604051610913929190612021565b60405180910390a250610924611e8a565b50565b335f9081526003602052604090205460ff16610955576040516282b42960e81b815260040160405180910390fd5b6001600160a01b0382165f9081526002602052604090205481111561098d5760405163b646ec7b60e01b815260040160405180910390fd5b6001600160a01b0382165f90815260026020526040812080548392906109b4908490612197565b90915550506001600160a01b0382165f90815260016020526040812080548392906109e090849061200e565b90915550506040518181526001600160a01b038316907fbac7ca671fcec1037ee5514b109872c8559b297a11380c7379b5f8f04a196d19906020015b60405180910390a25050565b610a30611e17565b610a38611e97565b565b335f9081526003602052604081205460ff16610a68576040516282b42960e81b815260040160405180910390fd5b610a70611e49565b6001600160a01b0384165f9081526002602052604081205490818511610a965784610a98565b815b6001600160a01b0387165f9081526002602052604081205590508015801590610acb57506005546001600160a01b031615155b15610b2b57804710610b2b576005546040515f916001600160a01b03169083908381818185875af1925050503d805f8114610b21576040519150601f19603f3d011682016040523d82523d5f602084013e610b26565b606091505b505050505b5f84118015610b4457506005546001600160a01b031615155b15610c0d576005546001600160a01b031631808511610b635784610b65565b805b93508315610c0b57600554604051602481018690525f916001600160a01b03169060440160408051601f198184030181529181526020820180516001600160e01b03166338d0de8f60e21b17905251610bbe91906121aa565b5f604051808303815f865af19150503d805f8114610bf7576040519150601f19603f3d011682016040523d82523d5f602084013e610bfc565b606091505b5050905080610c09575f94505b505b505b60408051868152602081018690529081018490526001600160a01b038716907fd2142382c9c076d5443dee739ba001ffe6d3c462c38198bd425464898e0683b79060600160405180910390a25050610c63611e8a565b9392505050565b610c72611e49565b610c7a611e64565b335f9081526006602052604081205490819003610caa576040516305e572fd60e21b815260040160405180910390fd5b6005546001600160a01b0316610cd35760405163d92e233d60e01b815260040160405180910390fd5b6005546040515f916001600160a01b031690610cf590339085906024016121d6565b60408051601f198184030181529181526020820180516001600160e01b0316634b12d9e960e11b17905251610d2a91906121aa565b5f604051808303815f865af19150503d805f8114610d63576040519150601f19603f3d011682016040523d82523d5f602084013e610d68565b606091505b505090508015610daf57335f8181526006602052604080822091909155515f8051602061222783398151915290610da29085815260200190565b60405180910390a2610dc8565b604051635203e84360e01b815260040160405180910390fd5b5050610a38611e8a565b335f9081526003602052604090205460ff16610e00576040516282b42960e81b815260040160405180910390fd5b610e08611e49565b5f610e13828461200e565b6001600160a01b0386165f9081526002602052604081205491925082821015610e3c5781610e3e565b825b90505f828411610e4e575f610e58565b610e588385612197565b90508115610e8d576001600160a01b0388165f9081526002602052604081208054849290610e87908490612197565b90915550505b5f8082118015610ea757506005546001600160a01b031615155b15610f1a576005546040516338d0de8f60e21b8152600481018490526001600160a01b039091169063e3437a3c906024016020604051808303815f875af1925050508015610f12575060408051601f3d908101601f19168201909252610f0f918101906121ef565b60015b15610f1a5790505b868215610f4b575f610f2c838661200e565b905086811015610f495788811015610f445780610f46565b885b91505b505b8015610f7e576001600160a01b0389165f9081526001602052604081208054839290610f7890849061200e565b90915550505b5f81610f8a848761200e565b11610f95575f610faa565b81610fa0848761200e565b610faa9190612197565b90505f81118015610fc557506004546001600160a01b031615155b1561103d576004546040515f916001600160a01b03169083908381818185875af1925050503d805f8114611014576040519150601f19603f3d011682016040523d82523d5f602084013e611019565b606091505b505090508061103b576040516312171d8360e31b815260040160405180910390fd5b505b896001600160a01b03168b6001600160a01b03167f1f0c6615429d1cdae0dfa233abf91d3b31cdbdd82c8081389832a61e1072f1ea8484604051611082929190612021565b60405180910390a350505050505050611099611e8a565b50505050565b5f54600160a01b900460ff1690565b335f9081526003602052604090205460ff166110dc576040516282b42960e81b815260040160405180910390fd5b80156107fe576001600160a01b0383165f9081526001602052604090205481111561111a57604051631e9acf1760e31b815260040160405180910390fd5b6001600160a01b0382166111415760405163d92e233d60e01b815260040160405180910390fd5b6001600160a01b0383165f908152600160205260408120805483929061077d908490612197565b335f9081526003602052604090205460ff16611196576040516282b42960e81b815260040160405180910390fd5b6001600160a01b0382165f908152600260205260409020548111156111ce5760405163b646ec7b60e01b815260040160405180910390fd5b6001600160a01b0382165f90815260026020526040812080548392906111f5908490612197565b90915550506001600160a01b0383165f908152600160205260408120805483929061122190849061200e565b92505081905550826001600160a01b0316826001600160a01b03167f2a0bb1fafc5c6f2e5f42976251663336f3bbc1e1fefde3ca22b9ee2a1aaa6fe3836040516107f591815260200190565b611275611e17565b610a385f611ee5565b335f9081526003602052604090205460ff166112ac576040516282b42960e81b815260040160405180910390fd5b6001600160a01b0383165f908152600260205260409020548111156112e45760405163b646ec7b60e01b815260040160405180910390fd5b6001600160a01b0383165f908152600260205260408120805483929061130b908490612197565b90915550506001600160a01b0382165f908152600260205260408120805483929061133790849061200e565b92505081905550816001600160a01b0316836001600160a01b03167f9e9bde071856fa532f6cd67c35b2d4461f6df0a783a65d71cd8066cba45ea10a836040516107f591815260200190565b61138b611e17565b610a38611f34565b335f9081526003602052604081205460ff166113c1576040516282b42960e81b815260040160405180910390fd5b6113c9611e49565b6001600160a01b0384165f90815260026020526040812054908185116113ef57846113f1565b815b90508084116114005783611402565b805b92505f61140f8483612197565b90505f8411801561142a57506005546001600160a01b031615155b156114c6578347106114ad576005546040515f916001600160a01b03169086908381818185875af1925050503d805f8114611480576040519150601f19603f3d011682016040523d82523d5f602084013e611485565b606091505b50509050806114a7576040516312171d8360e31b815260040160405180910390fd5b506114c6565b604051631e9acf1760e31b815260040160405180910390fd5b8183106114ff576001600160a01b0387165f90815260026020526040812080548492906114f4908490612197565b909155506115189050565b6001600160a01b0387165f908152600260205260408120555b801561154b576001600160a01b0387165f908152600160205260408120805483929061154590849061200e565b90915550505b866001600160a01b03167f3f3260d4771cad6bc59695820b8d7059b3abf05e9f48f83400b7a7351264c3ee8386604051611586929190612021565b60405180910390a2505050610c63611e8a565b5f546001600160a01b031690565b335f9081526003602052604090205460ff166115d5576040516282b42960e81b815260040160405180910390fd5b6001600160a01b0382165f9081526001602052604090205481111561160d57604051631e9acf1760e31b815260040160405180910390fd5b6001600160a01b0382165f9081526001602052604081208054839290611634908490612197565b90915550506001600160a01b0382165f908152600260205260408120805483929061166090849061200e565b90915550506040518181526001600160a01b038316907f7059f5d1cfe117fedd3ecf0cca85231af95572360556469dc0b576c1b6cbd66090602001610a1c565b6116a8611e49565b6116b0611e64565b335f90815260066020526040812054908190036116e0576040516305e572fd60e21b815260040160405180910390fd5b8115806116ec57508082115b1561170a5760405163162908e360e11b815260040160405180910390fd5b6005546001600160a01b03166117335760405163d92e233d60e01b815260040160405180910390fd5b6005546040515f916001600160a01b03169061175590339086906024016121d6565b60408051601f198184030181529181526020820180516001600160e01b0316634b12d9e960e11b1790525161178a91906121aa565b5f604051808303815f865af19150503d805f81146117c3576040519150601f19603f3d011682016040523d82523d5f602084013e6117c8565b606091505b505090508015610daf57335f90815260066020526040812080548592906117f0908490612197565b909155505060405183815233905f805160206122278339815191529060200160405180910390a25050610924611e8a565b611829611e17565b8047101561187e5760405162461bcd60e51b815260206004820152601d60248201527f496e73756666696369656e7420636f6e74726163742062616c616e636500000060448201526064015b60405180910390fd5b5f826001600160a01b0316826040515f6040518083038185875af1925050503d805f81146118c7576040519150601f19603f3d011682016040523d82523d5f602084013e6118cc565b606091505b505090508061190f5760405162461bcd60e51b815260206004820152600f60248201526e151c985b9cd9995c8819985a5b1959608a1b6044820152606401611875565b826001600160a01b03165f805160206122678339815191528342604051611937929190612021565b60405180910390a2505050565b61194c611e17565b6001600160a01b0381166119735760405163d92e233d60e01b815260040160405180910390fd5b600580546001600160a01b0319166001600160a01b0383169081179091556040517f5f5e1360fb9bbf3f1dd392d5153831cc6fa952aad577bbbb06e51fea4174cd08905f90a250565b6119c4611e49565b6119cc611e64565b345f036119ec5760405163162908e360e11b815260040160405180910390fd5b335f9081526001602052604081208054349290611a0a90849061200e565b909155505060405133905f8051602061220783398151915290611a309034904290612021565b60405180910390a2610a38611e8a565b6001600160a01b0381165f908152600260209081526040808320546001909252822054611a6d919061200e565b92915050565b335f9081526003602052604090205460ff16611aa1576040516282b42960e81b815260040160405180910390fd5b611aa9611e49565b6001600160a01b0383165f908152600260205260409020548211611b25576001600160a01b0383165f9081526002602052604081208054849290611aee908490612197565b90915550506001600160a01b0383165f9081526001602052604081208054849290611b1a90849061200e565b90915550611b819050565b6001600160a01b0383165f9081526002602052604090205415611b81576001600160a01b0383165f90815260026020908152604080832080549084905560019092528220805491928392611b7a90849061200e565b9091555050505b5f805f83118015611b9c57506005546001600160a01b031615155b15611ca9576005546040515f916001600160a01b031690611bc390889087906024016121d6565b60408051601f198184030181529181526020820180516001600160e01b0316634b12d9e960e11b17905251611bf891906121aa565b5f604051808303815f865af19150503d805f8114611c31576040519150601f19603f3d011682016040523d82523d5f602084013e611c36565b606091505b505090508015611c4857839250611ca3565b6001600160a01b0386165f9081526006602052604081208054869450849290611c7290849061200e565b90915550506040518481526001600160a01b038716905f805160206122478339815191529060200160405180910390a25b50611d0a565b8215611d0a57506001600160a01b0384165f90815260066020526040812080548492839291611cd990849061200e565b90915550506040518381526001600160a01b038616905f805160206122478339815191529060200160405180910390a25b846001600160a01b03167f1a62d7c4e277a7f41d2037179f7e043f46f9bed94f5380506492de3d13677e018584604051611d45929190612021565b60405180910390a250506107fe611e8a565b611d5f611e17565b6001600160a01b038216611d865760405163d92e233d60e01b815260040160405180910390fd5b6001600160a01b0382165f81815260036020908152604091829020805460ff191685151590811790915591519182527f3213ab8ec2ed122402f038736b41878b69ae9f61f49a7edd0666bce891d29fc99101610a1c565b611de5611e17565b6001600160a01b038116611e0e575f604051631e4fbdf760e01b8152600401611875919061214a565b61092481611ee5565b33611e20611599565b6001600160a01b031614610a38573360405163118cdaa760e01b8152600401611875919061214a565b611e51611f76565b6002611e61611e5e611f9c565b90565b55565b611e6c61109f565b15610a385760405163d93c066560e01b815260040160405180910390fd5b6001611e61611e5e611f9c565b611e9f611fc0565b5f805460ff60a01b191690557f5db9ee0a495bf2e6ff9c91a7834c1ba4fdd244a5e8aa4e537bd38aeae4b073aa335b604051611edb919061214a565b60405180910390a1565b5f80546001600160a01b038381166001600160a01b0319831681178455604051919092169283917f8be0079c531659141344cd1fd0a4f28419497f9722a3daafe3b4186f6b6457e09190a35050565b611f3c611e64565b5f805460ff60a01b1916600160a01b1790557f62e78cea01bee320cd4e420270b5ea74000d11b0c9f74754ebdbfc544b05a258611ece3390565b611f7e611fe5565b15610a3857604051633ee5aeb560e01b815260040160405180910390fd5b7f9b779b17422d0df92223018b32b4d1fa46e071723d6817e2486d003becc55f0090565b611fc861109f565b610a3857604051638dfc202b60e01b815260040160405180910390fd5b5f6002611ff3611e5e611f9c565b5414919050565b634e487b7160e01b5f52601160045260245ffd5b80820180821115611a6d57611a6d611ffa565b918252602082015260400190565b80356001600160a01b0381168114612045575f80fd5b919050565b5f6020828403121561205a575f80fd5b610c638261202f565b5f805f60608486031215612075575f80fd5b61207e8461202f565b925061208c6020850161202f565b9150604084013590509250925092565b5f602082840312156120ac575f80fd5b5035919050565b5f80604083850312156120c4575f80fd5b6120cd8361202f565b946020939093013593505050565b5f805f606084860312156120ed575f80fd5b6120f68461202f565b95602085013595506040909401359392505050565b5f805f806080858703121561211e575f80fd5b6121278561202f565b93506121356020860161202f565b93969395505050506040820135916060013590565b6001600160a01b0391909116815260200190565b5f806040838503121561216f575f80fd5b6121788361202f565b91506020830135801515811461218c575f80fd5b809150509250929050565b81810381811115611a6d57611a6d611ffa565b5f82515f5b818110156121c957602081860181015185830152016121af565b505f920191825250919050565b6001600160a01b03929092168252602082015260400190565b5f602082840312156121ff575f80fd5b505191905056fe90890809c654f11d6e72a28fa60149770a0d11ec6c92319d6ceb2bb0a4ea1a156a2cbfd0a4e37b7dace5dec7cf930020420c1aa4ca495bbf4972d9fd614ecc3b33ab652f53e0d1e5eeea7c131e0511934a3dd823510691706d5a7173d66a55cbf279e6a1f5e320cca91135676d9cb6e44ca8a08c0b88342bcdb1144f6511b568a2646970667358221220cf1b6f7d9f4373a02714ef12bb0df9046b53705024b2896f5268423be17f140664736f6c63430008180033","linkReferences":{}},"methodIdentifiers":{"authorizedContracts(address)":"d5b9221b","balances(address)":"27e235e3","claimPartialPendingProfit(uint256)":"a7406307","claimPendingProfit()":"41a4b99f","collectFee(address,address,uint256)":"651b8cb6","collectFeeFromLocked(address,address,uint256)":"18c9a3f2","deposit()":"d0e30db0","distributeLiquidation(address,address,uint256,uint256)":"5a7ae228","emergencyRescue(address,uint256)":"b72952ee","getBalance(address)":"f8b2cb4f","getLockedBalance(address)":"c4086893","getPendingProfit(address)":"525c91ec","getTotalBalance(address)":"d3d38193","insuranceFund()":"b7902303","lendingPool()":"a59a9973","lockMargin(address,uint256)":"a5bce379","lockedBalances(address)":"0483a7f6","owner()":"8da5cb5b","pause()":"8456cb59","paused()":"5c975abb","pendingProfits(address)":"39cc1378","renounceOwnership()":"715018a6","setAuthorizedContract(address,bool)":"f2fa7392","setInsuranceFund(address)":"c3c05293","setLendingPool(address)":"113aa8b1","settleBankruptcy(address,uint256,uint256)":"3ff04252","settleLoss(address,uint256,uint256)":"8bc34718","settlePnL(address,address,uint256)":"6d7ab40d","settleProfit(address,uint256,uint256)":"f174ea0a","transferFromLocked(address,address,uint256)":"72f81e88","transferOwnership(address)":"f2fde38b","unlockMargin(address,uint256)":"2f45580c","unpause()":"3f4ba83a","withdraw(uint256)":"2e1a7d4d"},"id":75}